:020000040800F2
:100000000000022001260008712500087325000861
:1000100075250008772500087925000800000000F4
:10002000000000000000000000000000D15E000899
:100030007B25000800000000615F00087D250008A6
:1000400051260008512600085126000851260008B4
:1000500051260008512600085126000851260008A4
:100060005126000851260008512600085126000894
:100070005126000851260008512600085126000884
:100080005126000851260008512600085126000874
:100090005126000851260008512600085126000864
:1000A0005126000851260008512600089525000811
:1000B0005126000851260008512600085126000844
:1000C0005126000851260008512600085126000834
:1000D000512600085126000851260008A1250008D5
:1000E0005126000851260008512600085126000814
:1000F0005126000851260008512600085126000804
:1001000051260008512600085126000851260008F3
:1001100051260008512600085126000851260008E3
:1001200051260008512600085126000851260008D3
:1001300051260008512600085126000851260008C3
:1001400051260008512600085126000851260008B3
:1001500051260008512600085126000851260008A3
:100160005126000851260008512600085126000893
:100170005126000851260008512600080000000002
:08018000512600085126000879
:1001900010B5054C237833B9044B13B10448AFF3C1
:1001A00000800123237010BD8800002000000000A3
:1001B000DC6D000808B5034B1BB103490348AFF3DE
:1001C000008008BD000000008C000020DC6D0008ED
:1001D00001F0FF01102A2BDB10F0070F08D010F8F8
:1001E000013B013A8B422DD010F0070F42B3F6D1FC
:1001F000F0B441EA012141EA014122F007047FF015
:1002000000070023F0E80256083C85EA010586EA6B
:10021000010685FA47F5A3FA87F586FA47F6A5FAA7
:1002200087F68EB9EED1F0BC01F0FF0102F00702B3
:1002300032B110F8013B013A83EA010313B1F8D15E
:100240000020704701387047002D06BF354603383F
:10025000073815F0010F07D1013015F4807F02BF78
:10026000013015F4C03F0130F0BC0138704700BFC9
:1002700081F0004102E000BF83F0004330B54FEA57
:1002800041044FEA430594EA050F08BF90EA020FC4
:100290001FBF54EA000C55EA020C7FEA645C7FEA57
:1002A000655C00F0E2804FEA5454D4EB5555B8BF7A
:1002B0006D420CDD2C4480EA020281EA030382EAEB
:1002C000000083EA010180EA020281EA0303362D7D
:1002D00088BF30BD11F0004F4FEA01314FF4801C50
:1002E0004CEA113102D0404261EB410113F0004F62
:1002F0004FEA03334CEA133302D0524263EB430319
:1003000094EA050F00F0A780A4F10104D5F1200EB6
:100310000DDB02FA0EFC22FA05F2801841F1000111
:1003200003FA0EF2801843FA05F359410EE0A5F1E5
:1003300020050EF1200E012A03FA0EFC28BF4CF016
:10034000020C43FA05F3C01851EBE37101F00045CC
:1003500007D54FF0000EDCF1000C7EEB00006EEBD9
:100360000101B1F5801F1BD3B1F5001F0CD3490863
:100370005FEA30004FEA3C0C04F101044FEA4452BA
:1003800012F5800F80F09A80BCF1004F08BF5FEA41
:10039000500C50F1000041EB045141EA050130BD21
:1003A0005FEA4C0C404141EB0101013C28BFB1F533
:1003B000801FE9D291F0000F04BF01460020B1FA7E
:1003C00081F308BF2033A3F10B03B3F120020CDA51
:1003D0000C3208DD02F1140CC2F10C0201FA0CF02F
:1003E00021FA02F10CE002F11402D8BFC2F1200C94
:1003F00001FA02F120FA0CFCDCBF41EA0C0190404A
:10040000E41AA2BF01EB0451294330BD6FEA040492
:100410001F3C1CDA0C340EDC04F11404C4F120027D
:1004200020FA04F001FA02F340EA030021FA04F38F
:1004300045EA030130BDC4F10C04C4F1200220FAE6
:1004400002F001FA04F340EA0300294630BD21FA24
:1004500004F0294630BD94F0000F83F4801306BFEA
:1004600081F480110134013D4EE77FEA645C18BFDE
:100470007FEA655C29D094EA050F08BF90EA020F75
:1004800005D054EA000C04BF1946104630BD91EA6D
:10049000030F1EBF0021002030BD5FEA545C05D170
:1004A0004000494128BF41F0004130BD14F58004AF
:1004B0003CBF01F5801130BD01F0004545F0FE4123
:1004C00041F470014FF0000030BD7FEA645C1ABF58
:1004D000194610467FEA655C1CBF0B46024650EA8F
:1004E000013406BF52EA033591EA030F41F40021BB
:1004F00030BD00BF90F0000F04BF0021704730B541
:100500004FF4806404F132044FF000054FF0000115
:1005100050E700BF90F0000F04BF0021704730B5D6
:100520004FF4806404F1320410F0004548BF4042AB
:100530004FF000013EE700BF42004FEAE2014FEA00
:1005400031014FEA02701FBF12F07F4393F07F4FDB
:1005500081F06051704732F07F4208BF704793F0DE
:100560007F4F04BF41F40021704730B54FF46074F1
:1005700001F0004521F000411CE700BF50EA0102F4
:1005800008BF704730B54FF000050AE050EA01029D
:1005900008BF704730B511F0004502D5404261EB0D
:1005A00041014FF4806404F132045FEA915C3FF44E
:1005B000D8AE4FF003025FEADC0C18BF03325FEAEB
:1005C000DC0C18BF033202EBDC02C2F1200300FA9C
:1005D00003FC20FA02F001FA03FE40EA0E0021FAC1
:1005E00002F11444BDE600BF70B54FF0FF0C4CF4AF
:1005F000E06C1CEA11541DBF1CEA135594EA0C0F61
:1006000095EA0C0F00F0DEF82C4481EA030621EA9B
:100610004C5123EA4C5350EA013518BF52EA0335D6
:1006200041F4801143F4801338D0A0FB02CE4FF088
:100630000005E1FB02E506F00042E0FB03E54FF0B8
:100640000006E1FB03569CF0000F18BF4EF0010EB0
:10065000A4F1FF04B6F5007F64F5407404D25FEAAC
:100660004E0E6D4146EB060642EAC62141EA55515F
:100670004FEAC52040EA5E504FEACE2EB4F1FD0CA1
:1006800088BFBCF5E06F1ED8BEF1004F08BF5FEA1F
:10069000500E50F1000041EB045170BD06F00046D1
:1006A00046EA010140EA020081EA0301B4EB5C047E
:1006B000C2BFD4EB0C0541EA045170BD41F4801176
:1006C0004FF0000E013C00F3AB8014F1360FDEBF9B
:1006D000002001F0004170BDC4F10004203C35DA77
:1006E0000C341BDC04F11404C4F1200500FA05F3FA
:1006F00020FA04F001FA05F240EA020001F000429B
:1007000021F0004110EBD37021FA04F642EB060110
:100710005EEA430E08BF20EAD37070BDC4F10C043A
:10072000C4F1200500FA04F320FA05F001FA04F2FE
:1007300040EA020001F0004110EBD37041F10001EA
:100740005EEA430E08BF20EAD37070BDC4F12005F5
:1007500000FA05F24EEA020E20FA04F301FA05F25D
:1007600043EA020321FA04F001F0004121FA04F205
:1007700020EA020000EBD3705EEA430E08BF20EAD5
:10078000D37070BD94F0000F0FD101F0004640000F
:1007900041EB010111F4801F08BF013CF7D041EA91
:1007A000060195F0000F18BF704703F00046520095
:1007B00043EB030313F4801F08BF013DF7D043EA66
:1007C0000603704794EA0C0F0CEA135518BF95EA1C
:1007D0000C0F0CD050EA410618BF52EA4306D1D1A3
:1007E00081EA030101F000414FF0000070BD50EAC2
:1007F000410606BF1046194652EA430619D094EA4C
:100800000C0F02D150EA013613D195EA0C0F05D135
:1008100052EA03361CBF104619460AD181EA030189
:1008200001F0004141F0FE4141F470014FF0000041
:1008300070BD41F0FE4141F4780170BD70B54FF0DC
:10084000FF0C4CF4E06C1CEA11541DBF1CEA13555C
:1008500094EA0C0F95EA0C0F00F0A7F8A4EB05043E
:1008600081EA030E52EA03354FEA013100F0888035
:100870004FEA03334FF0805545EA131343EA1263FE
:100880004FEA022245EA111545EA10654FEA0026B3
:100890000EF000419D4208BF964244F1FD0404F56C
:1008A000407402D25B084FEA3202B61A65EB0305C8
:1008B0005B084FEA32024FF480104FF4002CB6EB85
:1008C000020E75EB030E22BFB61A754640EA0C0005
:1008D0005B084FEA3202B6EB020E75EB030E22BF45
:1008E000B61A754640EA5C005B084FEA3202B6EB86
:1008F000020E75EB030E22BFB61A754640EA9C0045
:100900005B084FEA3202B6EB020E75EB030E22BF14
:10091000B61A754640EADC0055EA060E18D04FEAD2
:10092000051545EA16754FEA06164FEAC30343EA72
:1009300052734FEAC2025FEA1C1CC0D111F4801F3F
:100940000BD141EA00014FF000004FF0004CB6E738
:1009500011F4801F04BF01430020B4F1FD0C88BFD7
:10096000BCF5E06F3FF6AFAEB5EB030C04BFB6EBE2
:10097000020C5FEA500C50F1000041EB045170BDD5
:100980000EF0004E4EEA113114EB5C04C2BFD4EB02
:100990000C0541EA045170BD41F480114FF0000E86
:1009A000013C90E645EA060E8DE60CEA135594EA02
:1009B0000C0F08BF95EA0C0F3FF43BAF94EA0C0F05
:1009C0000AD150EA01347FF434AF95EA0C0F7FF47A
:1009D00025AF104619462CE795EA0C0F06D152EACE
:1009E00003353FF4FDAE1046194622E750EA4106B2
:1009F00018BF52EA43067FF4C5AE50EA41047FF4C3
:100A00000DAF52EA43057FF4EBAE12E74FF0FF3C27
:100A100006E000BF4FF0010C02E000BF4FF0010CF8
:100A20004DF804CD4FEA410C7FEA6C5C4FEA430C71
:100A300018BF7FEA6C5C1BD001B050EA410C0CBFC0
:100A400052EA430C91EA030F02BF90EA020F002022
:100A5000704710F1000F91EA030F58BF994208BF89
:100A600090422CBFD8176FEAE37040F00100704746
:100A70004FEA410C7FEA6C5C02D150EA013C07D19D
:100A80004FEA430C7FEA6C5CD6D152EA033CD3D0E8
:100A90005DF8040B704700BF8446104662468C46E2
:100AA0001946634600E000BF01B5FFF7B7FF002815
:100AB00048BF10F1000F01BD4DF808EDFFF7F4FF3E
:100AC0000CBF012000205DF808FB00BF4DF808EDC9
:100AD000FFF7EAFF34BF012000205DF808FB00BFEC
:100AE0004DF808EDFFF7E0FF94BF012000205DF80E
:100AF00008FB00BF4DF808EDFFF7CEFF94BF0120C3
:100B000000205DF808FB00BF4DF808EDFFF7C4FFBB
:100B100034BF012000205DF808FB00BF4FEA41020E
:100B200012F5001215D211D56FF47873B3EB62523F
:100B300012D94FEAC12343F0004343EA505311F066
:100B4000004F23FA02F018BF404270474FF00000F8
:100B5000704750EA013005D111F0004008BF6FF036
:100B6000004070474FF00000704700BF4FEA41025D
:100B7000B2F1E04324BFB3F5001CDCF1FE5C0DD9FB
:100B800001F0004C4FEAC0024CEA5070B2F1004F45
:100B900040EB830008BF20F00100704711F0804F48
:100BA00021D113F13872BCBF01F00040704741F40D
:100BB00080114FEA5252C2F11802C2F1200C10FA11
:100BC0000CF320FA02F018BF40F001004FEAC123F5
:100BD0004FEAD32303FA0CFC40EA0C0023FA02F399
:100BE0004FEA4303CCE77FEA625307D150EA01336F
:100BF0001EBF4FF0FE4040F44000704701F000403F
:100C000040F0FE4040F40000704700BF53B94AB9BD
:100C1000002908BF00281CBF4FF0FF314FF0FF3004
:100C200000F070B9ADF1080C6DE904CE00F006F8E3
:100C3000DDF804E0DDE9022304B070472DE9F04758
:100C4000089E0D4604460F46002B4AD18A42944620
:100C500065D9B2FA82F343B102FA03FCC3F1200270
:100C60009F4020FA02F217439C404FEA1C4E1FFAA5
:100C70008CF5B7FBFEF1220C0EFB117742EA07421E
:100C800001FB05F090420AD91CEB020201F1FF378B
:100C900080F01C81904240F2198102396244121A9C
:100CA000A4B2B2FBFEF00EFB102244EA024400FBA9
:100CB00005F5A5420AD91CEB040400F1FF3280F0CF
:100CC0000781A54240F204816444023840EA0140B1
:100CD000641B00211EB1DC400023C6E90043BDE8CF
:100CE000F0878B4208D9002E00F0ED800021C6E984
:100CF00000050846BDE8F087B3FA83F1002949D121
:100D0000AB4202D3824200F2F880841A65EB030200
:100D100001201746002EE2D0C6E90047DFE702B9FE
:100D2000FFDEB2FA82F3002B40F090808A1A4FEA7D
:100D30001C471FFA8CFE0121B2FBF7F507FB1520BB
:100D4000220C42EA00420EFB05F0904208D91CEB4F
:100D5000020205F1FF3802D2904200F2CB804546F4
:100D6000121AA4B2B2FBF7F007FB102244EA0244C5
:100D70000EFB00FEA64508D91CEB040400F1FF326F
:100D800002D2A64500F2BB801046A4EB0E0440EA56
:100D900005409FE7C1F120078B4022FA07FC4CEA8F
:100DA000030C05FA01F420FA07F3FD404FEA1C4951
:100DB0002343B5FBF9F81FFA8CFE09FB18551C0CF0
:100DC00044EA054408FB0EF5A54202FA01F200FAD6
:100DD00001F00BD91CEB040408F1FF3A80F0888085
:100DE000A54240F28580A8F102086444641B9DB2CC
:100DF000B4FBF9F309FB134445EA044403FB0EFE7C
:100E0000A64508D91CEB040403F1FF356CD2A645B6
:100E10006AD9023B644443EA0843A3FB0295A4EB6E
:100E20000E04AC42C846AE4656D353D056B1B0EBD2
:100E3000080264EB0E0404FA07F7CA40CC401743DB
:100E4000C6E9007418460021BDE8F087C3F120010F
:100E500002FA03FC20FA01F225FA01F19D402A432F
:100E60004FEA1C471FFA8CFEB1FBF7F007FB101589
:100E7000110C41EA054100FB0EF58D4204FA03F422
:100E800008D91CEB010100F1FF382FD28D422DD97A
:100E900002386144491B92B2B1FBF7F507FB15110B
:100EA00042EA014205FB0EF1914208D91CEB020215
:100EB00005F1FF3816D2914214D9023D6244521A0C
:100EC00045EA004138E73146304608E73946E6E66C
:100ED0001046FBE64845A9D2B9EB020865EB0C0EBB
:100EE000013BA3E74546EAE72B4694E74046D1E7B6
:100EF000D0467BE7023D624432E708460AE7644495
:100F0000023842E7704700BF7FB5120100294FF059
:100F100001038DF817204FF00A02CDE901320CBF12
:100F2000682169210DF11702009299407F2201F09A
:100F300069FF07B05DF804FB10B586B000298DF895
:100F400017304FF00A044FF00103CDE901340CBF14
:100F5000682169210DF117040094994001F052FFB6
:100F600006B010BD70B504460D4616460022FFF7C8
:100F7000CBFF2946802306222046FFF7DDFFC8204D
:100F800001F0B8FB2946012306222046FFF7D4FFD3
:100F90003823294607222046FFF7CEFF29460222A2
:100FA0002046FFF7B1FF730043F019032946DBB277
:100FB00001222046FFF7C0FF0423294600222046D5
:100FC000FFF7BAFF294600222046FFF79DFF29467A
:100FD00020460223BDE870400F22FFF7ADBF00009E
:100FE00008B50A4B0A4C00221A8001F07DFB094B20
:100FF000186020464FF4806101F027FD00F028FFC3
:101000004FF4FA6003F003FCF3E700BFC2000020D6
:10101000001002409002002000B595B02C22002163
:1010200009A805F057FA1422002103A805F052FA86
:101030000023194A0193116C41F080511164126C24
:1010400002F080520192019A144A0293116841F40D
:101050008041116012680E9302F480420292029A5B
:101060000222089201201022CDE90B0208A801F00B
:1010700075FF014608B172B6FEE70F23CDE90330D4
:10108000CDE90500079003A802F042F908B172B655
:10109000FEE715B05DF804FB003802400070004028
:1010A00080B5A84CA84D9EB001F0F8FA00F088FF7A
:1010B000D4ED000A95ED000AA44AA548002101F0EC
:1010C00007F895ED000AA34DD4ED000A9F4AA24807
:1010D000002100F0FDFFD4ED000A95ED000A9F4AC3
:1010E0009F48002100F0F4FFD4ED000A95ED000ABE
:1010F0009A4A9C48002100F0EBFFFFF78DFF142275
:10110000002115A805F0E6F90024974B00941A6B0E
:10111000964842F010021A631A6B02F01002009215
:10112000009A01941A6B42F001021A631A6B02F0E2
:1011300001020192019A02941A6B42F004021A63AE
:101140001A6B02F004020292029A03941A6B42F0A4
:1011500002021A631B6B03F00203039322464FF44F
:10116000BC61039B01F06CFC814822463C2101F0EC
:1011700067FC22467F48102101F062FC01254FF4F4
:10118000BC637A4815A9CDE91535CDE9174401F0BE
:101190007DFB3C23CDE9153575481794022315A92D
:1011A0001893102601F072FB724815A9CDE9156558
:1011B000CDE9174401F06AFB324621460AA805F042
:1011C00089F91C2221460EA8CDE9064405F082F9D2
:1011D0002022214615A805F07DF9674D674BAC60CC
:1011E000C5E90034284641F61F43C5E90334C5E983
:1011F000054402F03DFB08B172B6FEE74FF480579C
:101200000AA928460A9702F074FD08B172B6FEE7F3
:10121000284602F059FB08B172B6FEE7CDE9060098
:1012200006A9284602F0F6FE024608B172B6FEE7AD
:101230006023CDE90E30CDE91000CDE91200149005
:101240000EA9284602F022FC08B172B6FEE704227D
:101250000EA9284602F01AFC08B172B6FEE7CDE9E5
:101260001500CDE9170019904FF400531C9015A9F3
:1012700028461A9302F00CFF044608B172B6FEE746
:101280000146324606A805F025F9324621460AA84D
:10129000CDE9044405F01EF91C2221460EA805F0F4
:1012A00019F92022214615A805F014F9344D3548C6
:1012B000AC60A023C5E900034FF47A732846C5E962
:1012C0000334C5E9054402F0D3FA08B172B6FEE76B
:1012D00006A92846069702F00CFD08B172B6FEE793
:1012E000284602F01DFB08B172B6FEE7244802F062
:1012F000EBFA08B172B6FEE7CDE9040004A9204874
:1013000002F088FE024608B172B6FEE70126CDE97A
:101310000B600A900D900AA9194802F04BFC08B125
:1013200072B6FEE76023CDE90E30CDE912001090D1
:1013300014900C2212480EA902F0A8FB20B372B63A
:10134000FEE700BF0400002008000020100000207D
:10135000940200200C000020480300201C00002004
:10136000E4020020980300200038024000100240F0
:101370000000024000040240F0010020000401408F
:101380001801002000000140CDE91500CDE917004B
:1013900019904FF400531C9015A962481A9302F05B
:1013A00077FE044608B172B6FEE75F4D5D4801F076
:1013B00075F82146202216A805F08CF84FF6FF7824
:1013C0004FF080434FF003090A2715A92846CDE9BD
:1013D0000E44C5E90034C5E90384AC60AC61CDF8C6
:1013E0005490179619971B9602F0C6FA08B172B678
:1013F000FEE7CDE90E000EA9284602F00BFE0446DA
:1014000008B172B6FEE7494D0146202216A805F044
:1014100061F8474B2C6115A92846CDE90E44C5E972
:101420000034C5E90248AC61CDF85490179619977D
:101430001B9602F0A1FA08B172B6FEE7CDE90E00E4
:101440000EA9284602F0E6FD08B172B6FEE7394B58
:10145000394918614FF4E132C3E900120C22C3E9A3
:101460000200C3E90520D861184602F0FBFE08B16E
:1014700072B6FEE7314C324A324B2046C4E90023B3
:1014800000234FF48042C4E90233C4E90423C4E9D1
:101490000633236201F00EFC054608B172B6FEE782
:1014A00000F08EFD28492348042203F024F903228A
:1014B00029462046FFF756FD0C211A4802F026FD6A
:1014C0003C21194802F06EF83C21184802F06AF8F5
:1014D00029461E4802F01AFD04211C4802F016FDA0
:1014E00003F022F91A4A0421642003F09CF9194BF5
:1014F000194A18602946194803F042F9184B194A4D
:1015000018602946184803F03BF9184B184A186030
:101510002946184803F034F9174B186003F016F900
:10152000FEE700BF1801002060010020A801002094
:10153000000400403802002000480040C4000020A1
:1015400000540040A0860100AC000020F001002003
:10155000A86E0008B0000020C06E0008E10F00086F
:10156000BC000020606E000821180008A4000020C4
:10157000846E0008951D0008A80000202DE9F041A8
:101580003C4E3D4C8AB0054640F6FF73042221468E
:10159000304602F095FE0023B54203935BD1A37859
:1015A000277894F801802D2B02D1E378312B2AD0B3
:1015B0006388ADF8103004A800238DF8123004F0D1
:1015C000D9FE2E4E2E4D2F4C286043462E493770A3
:1015D00084F800803A46009005A804F05BFF0A21D9
:1015E00005AA084600F0CCFC3378532B08D0462BD4
:1015F0000CD12378572B14D04C2B2FD0522B2FD01B
:101600000023039315E04FF0FF30DAE7422BF7D1C8
:101610002378572B26D04C2B26D0522BF0D10623E3
:1016200000E001232A6864214B43511C1ED01A4458
:101630000392164800231A4603A9006803F02EF906
:1016400013490C480322642302F03AFE0A49094870
:10165000042203F050F80AB0BDE8F0810323E1E76B
:101660000523DFE70223DDE70423DBE703F57A73D5
:10167000C7E700BF38020020AC0000203403002080
:10168000B8000020C0000020F46D0008B000002069
:10169000FF6D000808B50D480022202101F0D0F9A7
:1016A0000A480022102101F0CBF908480022042149
:1016B00001F0C6F900220548082101F0C1F9044BE8
:1016C0001B6800225A639A6308BD00BF00000240F5
:1016D000F001002038B51C4D04460021284602F0D8
:1016E00015FC0421284602F011FCDCB917482246FB
:1016F000202101F0A5F915480122102101F0A0F9DF
:1017000022461248042101F09BF901220F480821CA
:1017100001F096F92B6840F64E425A6340F6B83213
:101720009A6338BD09480122202101F089F9074850
:101730000022102101F084F901220448042101F063
:101740007FF90022E2E700BFF00100200000024024
:1017500008B50B480022202101F072F90848012247
:10176000102101F06DF906480022042101F068F90A
:10177000BDE8084002480122082101F061B900BF1C
:101780000000024008B50B480122202101F058F961
:1017900008480022102101F053F9064801220421D3
:1017A00001F04EF9BDE8084002480022082101F08E
:1017B00047B900BF00000240034B1B685F221A6458
:1017C000FA2003F024B800BF18010020034B1B6867
:1017D000AA221A64FA2003F01AB800BF18010020E8
:1017E000034B1B688C221A64FA2003F010B800BF68
:1017F0001801002013681B68DB0607D5814284BFEF
:1018000000F57F40FF30431A184670470B1A81429B
:101810003CBF03F57F43FF33F6E700000000000004
:101820002DE9F04F2DED048BDFF85891DFF858A12A
:101830008BB0002601960496FFF7D2FFD9F800304E
:101840005D6ADAF800309FED488B5F6A3446002C01
:1018500040F0D3804648C8230068224604A903F01C
:101860004DF8049B002B37D0424B01221A70049A8A
:10187000414905A804F00EFE05AA1E210A2000F029
:101880007FFB049F3D496423B7FBF3F603FB167708
:101890003BB23A4605A8F5B2019304F0FBFD05AA58
:1018A00028210A2000F06CFB092D76B26ED9A5F133
:1018B0000D03A5F10A07012BFFB212D8FFF77CFF39
:1018C000032F26D1FFF744FF2D4B1B684FF47A728C
:1018D0005A634FF4FA6238E0FFF7DCFEFFF780FF4F
:1018E000C5E7A5F10F03012B02D8FFF76FFFE7E76C
:1018F000072F0BD1FFF76AFFD9F800305D6ADAF8DD
:10190000003032205F6A02F082FFA0E7FFF768FF35
:10191000D6E70B3D052DEFD801A353F825F000BF06
:101920005B19000863190008F91800084F1900082E
:101930003919000855190008FFF70AFF104B1B68FA
:101940004FF4FA625A634FF47A729A63D4E7FFF75E
:1019500019FFB9E7FFF716FFF0E70020FFF7BAFE1F
:10196000CAE70120FAE700BF000000000000000005
:10197000B0000020B4000020036E00080B6E0008C9
:10198000F001002060010020A8010020062D00F2D7
:10199000F8805423EB40DB0740F1F380FFF7F2FEC1
:1019A000B34BB44A1A60EB1E012BDFF8E4B2DFF848
:1019B000E88200F2E980FFF7FFFEA5A3D3E9002348
:1019C000CBE90023A4A3D3E90023C8E90023AA4B51
:1019D00083ED008BA94B83ED008BA94B83ED008B2E
:1019E000A84B83ED008BD9F800305D6ADAF800303F
:1019F0005F6A049B002B3FF47FAFD9F80030A24A06
:101A0000596ADAF80030DFF870825C6ADFF870B289
:101A10002846FFF7EFFE214605469C4A3846FFF769
:101A2000E9FED8E9002304462846CDE90223FEF763
:101A300061FDDDE90223FEF721FCC8E90001DBE9D5
:101A400000232046CDE90223FEF754FDDDE9022301
:101A5000FEF714FC751EEDB2012DCBE9000100F27A
:101A6000CD80019B854F874C092B40F3C080DBE97B
:101A700000238749D1E90001CDE90223FFF776F879
:101A8000DDE9022309EE100A19461046FFF76EF849
:101A9000F0EE490A00EE100A7E4800F033FB10EE2B
:101AA000100AFEF749FDC4E900017B49D8E900238B
:101AB000D1E90001CDE90223FFF758F8DDE902235F
:101AC00009EE100A19461046FFF750F8F0EE490AE1
:101AD00000EE100A714800F015FB10EE100AFEF738
:101AE0002BFDC7E900015EA3D3E90023D4E900017F
:101AF000FEF7ECFF18B19FED5A7B84ED007BD7E930
:101B0000000157A3D3E90023FEF7E0FF18B19FEDD2
:101B1000547B87ED007B604BD3E90001564BD3E942
:101B20000023FEF7A9FB5E4B0022FEF7D9FF002839
:101B300000F0DB80514B83ED008B5A4B1B68002279
:101B40005A630124524BD3E900014D4BD3E90023E2
:101B5000FEF792FB524B0022FEF7C2FF002800F076
:101B6000E380484B83ED008B4E4B1B6800279F633F
:101B7000002C40F0BC800124012D40F2C7800124DC
:101B8000BAE6FFF7E5FD0BE7053DEDB2022D20D8E3
:101B9000FFF71CFE022D1FD1B8B2FEF7ABFC32A33B
:101BA000D3E90023FEF74AFEC8E90001D8E9002383
:101BB000CBE90023D8E90001FEF7B0FF3A4902B2B1
:101BC00005A804F067FC05AA32210A2000F0D8F924
:101BD000FDE6FFF705FEDFE71DA3D3E90023C8E913
:101BE00000231DA3D3E90023CBE90023EFE69FEDFB
:101BF0001C7B87ED007B84ED007B8CE7F31E032BC1
:101C000089D8DFE803F002551163DDED017A274B37
:101C1000F8EEE77A40F2EE22C3ED007A214B1B6822
:101C20005A6340F2C3520FE0019B5B4207EE903AC9
:101C30001E4BF8EEE77A40F2DC52C3ED007A194B06
:101C40001B685A634FF448729A6364E7AFF30080ED
:101C5000ABAAAAAAAA9EB240ABAAAAAAAA9EA240CE
:101C6000000000000070974048C02E9566398B3FF9
:101C70000800002000007A45800200203803002080
:101C8000880200204003002060010020A8010020FD
:101C9000F003002048030020E80300209402002005
:101CA00000004940F0010020136E0008F8030020F6
:101CB000019B5B4207EE903A1F4BF8EEE77A40F249
:101CC0005232C3ED007A1D4B1B68A9E7DDED017AA6
:101CD000194BF8EEE77A40F2DC52C3ED007A174B6D
:101CE0001B685A6340F2EE22AEE704462AE7144D21
:101CF00004972C78002C3FF4FFAD1249124864235E
:101D0000032202F0DDFA3C462F70F5E50B4B1B6811
:101D10004FF47A725A63002C7FF4EEAD074B1B68C8
:101D20004FF487629A632AE7002C3FF425AF012D18
:101D30003FF6E2ADF2E700BFF8030020F00100201B
:101D4000B4000020FF6D000838020020034B1B6820
:101D500000225A625A6A8242FCD37047180100205E
:101D600010B50A4C01221021204600F069FE0A201D
:101D7000FFF7ECFF10210022204600F061FE044B2B
:101D80001A68D36843F00203D36010BD0004024018
:101D900018010020F0B50E480E4F0F4E0F4D87B0C2
:101DA000002102F0B5F81E24FFF7DAFF013C3A7873
:101DB000FAD1294601A8327004F06CFB01AA322145
:101DC0000A2000F0DDF80A2002F021FDEBE700BF59
:101DD0001801002001000020000000201B6E0008F8
:101DE0000268034B9A4201D100F072BC704700BFF9
:101DF0000014004070B50A46044601B101221348A0
:101E0000124E4FF4807100F01BFE082500222021A5
:101E1000304600F015FE23064CBF0122002240216F
:101E2000304600F00DFE013D01222021304600F039
:101E300007FE640015F0FF05E4B2E7D1BDE870408D
:101E4000024801224FF4807100F0FABD00100240F8
:101E500070B50F4EB02400212046FFF7CBFF0021C4
:101E60000846FFF7C7FF00211020FFF7C3FF00253A
:101E700016F8350001210135FFF7BCFF802DF7D1A1
:101E80000134E4B2B82C06F10106E4D170BD00BF04
:101E9000FC0300200023084810B41C460022C1188F
:101EA00001F832400132802AFAD10133082BF5D1F2
:101EB0005DF8044BFFF7CCBFFC030020030610B510
:101EC00012D43F2910D801F00703C3F107030124FE
:101ED0009C40C908064BC1F10701C9B203EBC00021
:101EE000435C12B12343435410BD23EA0403FAE7D1
:101EF000FC0300202DE9F74F1F46203A1E4B9DF8AA
:101F000030B0D2B203EB021301931C4B02EB42023E
:101F100003EB82038146884600930C460026B742B5
:101F200002D103B0BDE8F08F0C2F0CBF009B019BCA
:101F30009D5D04F108035FFA83FA2B0658BFBBFAD4
:101F40008BF2214604F101044CBF5A46520948461F
:101F5000E4B2FFF7B3FFA4EB08026D00BA42EDB2A2
:101F600007D109F101005FFA80F9C24601365446F3
:101F7000D5E7A245E1D1F9E758730008E46E0008FF
:101F8000F7B504460D46561E012716F8013F0BB95A
:101F900003B0F0BD7A2C82BF1035EDB200243A2D8B
:101FA00003D9FFF777FF00252C46009720463278AB
:101FB0000C2329460834FFF79DFFE4B2E5E7000053
:101FC00010B500F0AFFF404B404C1A6F22F00102F9
:101FD0001A671A6F22F004021A6700F0B1FF00229C
:101FE0008021204600F02CFD642000F083FB0122BC
:101FF0002046802100F024FD0021AE20FFF7FAFEEC
:102000000021D520FFF7F6FE00215020FFF7F2FE59
:102010000021A820FFF7EEFE00213F20FFF7EAFE97
:102020000021D320FFF7E6FE00210846FFF7E2FE7D
:1020300000214020FFF7DEFE00218D20FFF7DAFEB1
:1020400000211420FFF7D6FE00212020FFF7D2FE4A
:1020500000210220FFF7CEFE0021A120FFF7CAFEDB
:102060000021C020FFF7C6FE0021DA20FFF7C2FEE4
:1020700000211220FFF7BEFE00218120FFF7BAFEEB
:102080000021EF20FFF7B6FE0021D920FFF7B2FEB6
:102090000021F120FFF7AEFE0021DB20FFF7AAFEB2
:1020A00000213020FFF7A6FE0021A420FFF7A2FEAA
:1020B0000021A620FFF79EFE0021AF20FFF79AFE29
:1020C000BDE81040FFF7E6BE0038024000100240B5
:1020D000B0B1AAB10170136843605368836093681C
:1020E000C360002380ED040AC0ED050A83634363E7
:1020F00003630362C3628362436243640364C36332
:1021000070470000002800F0878090ED107A90ED75
:102110000F6AC0ED060A037880ED117A70EEC00AEE
:1021200080ED106A80ED070AC0ED0F0A002B3ED14A
:1021300090ED027AD0ED0A6AD0ED017A436B8363A9
:10214000E0EE876A036B436360EEA77A90ED037A53
:10215000C0ED097A70EEC60AC0ED0A6AC0ED0C0A3D
:1021600060EE870A90ED057AC0ED0B0AF4EEC76ABF
:10217000F1EE10FA02DD80ED0A7A06E0B1EE477A60
:10218000F4EEC76AF1EE10FAF5D490ED0A7A77EE24
:10219000877A77EEA07A90ED047AC0ED087AF4EEB3
:1021A000C77AF1EE10FA2DDD80ED087A31E0012BCF
:1021B000D0ED085A2DD170EEC67AD0ED016A436B8E
:1021C000836367EEA67AD0ED026A036BC0ED097AED
:1021D000B0EE005A60EEA66AE6EE450A436390ED63
:1021E000036AC0ED0A6A37EE207A77EEA67A80EDB0
:1021F0000C7A27EE067A77EE877A80ED0B7A77EE07
:10220000A57AC8E7B1EE477AF4EEC77AF1EE10FA94
:10221000CAD490ED080A70479FED010A704700BFCD
:102220000000000082B00E4B00220092596C41F475
:1022300080415964596C01F48041009100990192E8
:10224000196C41F0805119641B6C03F080530193A9
:10225000019B0F216FF0010002B000F071BA00BFC6
:102260000038024030B5044689B01422002103A88A
:1022700004F030F92268134B9A4221D1124C1348D2
:1022800000250195236B43F002032363236B03F0C6
:1022900002030193019BC0221223CDE903230321F2
:1022A0000423CDE9061303A900F0F0FA0295236C8C
:1022B00043F400132364236C03F400130293029B82
:1022C00009B030BD00540040003802400004024014
:1022D00010B514228AB0044600210DEB020004F070
:1022E000F9F82368304A93422AD1304B3048002411
:1022F00000945A6C42F001025A645A6C02F00102D6
:102300000092009A01941A6B42F010021A631B6B40
:1023100003F010030193019B4FF400710223CDE9F8
:102320000513012305A9099300F0B0FA1B202246EA
:10233000052100F005FA1B2000F034FA0AB010BDA8
:102340001C4A93420CD100230293184B1A6C42F0A2
:1023500010021A641B6C03F010030293029BEDE75A
:10236000154A9342EAD1114B1448002103915A6C4B
:1023700042F002025A645A6C02F002020392039A7B
:1023800004911A6B42F004021A631B6B03F00403FE
:102390000493049BC0220223CDE9052305A903234E
:1023A000099300F073FAC9E70000014000380240C9
:1023B00000100240001000400004014000080240EC
:1023C00070B514228AB0044600210DEB020004F01F
:1023D00081F82368B3F1804F37D103F50E33002421
:1023E00000941A6C294842F001021A641A6C02F037
:1023F00001020092009A01941A6B42F001021A63E2
:102400001A6B02F001020192019A02941A6B42F0D7
:1024100002021A631B6B03F002030293029B022663
:102420004FF40043012505A9CDE90536099500F0D3
:102430002DFA0823CDE90536CDE90744144809955E
:1024400005A900F023FA0AB070BD124A9342FAD1EE
:10245000114B0E48002103911A6C42F002021A64DB
:102460001A6C02F002020392039A04911A6B42F072
:1024700001021A631B6B03F001030493049BC02247
:102480000223CDE90523099305A9DAE700000240FC
:1024900000040240000400400038024010B5044629
:1024A00086B01422002101A804F014F822680E4B13
:1024B0009A4216D1002300930C4B0D481A6B42F040
:1024C00010021A631B6B03F010030093009B4FF480
:1024D00080420223CDE9012301A90123059300F0E5
:1024E000D5F906B010BD00BF000001400038024021
:1024F0000010024010B5044688B01422002103A841
:1025000003F0E8FF2268184B9A422BD103F5F83309
:10251000002401941A6C154842F480221A641A6C43
:1025200002F480220192019A02941A6B42F0040292
:102530001A631B6B03F0040302934FF44062029B87
:102540000223CDE9032303210723CDE9061303A9C1
:1025500000F09CF927202246052100F0F1F8272001
:1025600000F020F908B010BD00480040000802400B
:10257000FEE7FEE7FEE7FEE7FEE7704708B500F07E
:10258000A7F803F00DFA012803D0BDE8084003F0D6
:1025900019BD08BD014801F062B800BF1801002054
:1025A000014801F047BF00BF380200200B4A116804
:1025B00010B5034609B90A491160106809490A4C67
:1025C0000344091B8B4206D903F08CFF0C230360E4
:1025D0004FF0FF3010BD1360FCE700BFFC07002088
:1025E000985200200000022000040000034AD2F8A4
:1025F000883043F47003C2F88830704700ED00E083
:10260000DFF834D00D480E490E4A002302E0D458BA
:10261000C4500433C4188C42F9D30B4A0B4C00232A
:1026200001E013600432A242FBD3FFF7DFFF03F0A7
:102630005FFFFEF735FD704700000220000000201C
:1026400088000020B87A00088800002098520020F6
:10265000FEE7000038B50E4B1A784FF47A73B3FBDF
:10266000F2F30C4A05461068B0FBF3F000F0A8F84E
:10267000044658B90F2D09D8024629464FF0FF30BD
:1026800000F05EF8044B20461D6038BD0120FCE7D9
:102690002C000020280000203000002008B50B4B43
:1026A0001A6842F400721A601A6842F480621A6072
:1026B0001A6842F480721A60032000F02FF80F208D
:1026C000FFF7C8FFFFF7AEFD002008BD003C024049
:1026D000034A044B11681B780B441360704700BF1A
:1026E000000800202C000020014B1868704700BF34
:1026F0000008002038B50446FFF7F6FF631C1CBF36
:10270000054B1B78054618BFE418FFF7EDFF431B88
:10271000A342FAD338BD00BF2C0000200749CA6885
:1027200022F4E0620302120403F4E063120C134388
:1027300043F0BF6343F40033CB60704700ED00E02B
:10274000164B30B5DC68C4F30224C4F10703251D21
:10275000042B28BF0423062D4FF0FF358CBF033C0C
:10276000002405FA03F321EA0303A54022EA050247
:10277000A340002843EA0203ACBF00F16040084ACE
:102780004FEA0313B8BF00F00F00DBB2AABF00F599
:102790006140135480F8003330BD00BF00ED00E00D
:1027A00014ED00E0002807DB4109044A00F01F0097
:1027B0000123834042F82130704700BF00E100E070
:1027C0000138B0F1807F0BD24FF0E023054A586109
:1027D000F02182F823100020072298611A617047C7
:1027E0000120704700ED00E070B50446866DFFF7EC
:1027F0007BFF94F83530022B054606D080236365B5
:102800000120002384F8343070BD23681A6822F058
:1028100016021A605A6922F080025A61226C0AB9C3
:10282000A26C1AB11A6822F008021A601A6822F023
:1028300001021A6023681B6813F0010308D1E16DDF
:102840003F228A40B260012284F835201846D8E73A
:10285000FFF74AFF401B0528ECD9202303206365BE
:1028600084F83500CDE790F83530022B03D0802373
:102870004365012070470268052380F835301368EE
:1028800023F0010313600020704700002DE9F74F8B
:10289000DFF8A891674A00230D6801249C4004EAF0
:1028A000050CAC4340F0B1804D6805F003044FEADD
:1028B00043080326671E06FA08F6012F6FEA06068C
:1028C00034D8876807EA060ECF6807FA08F747EAA0
:1028D0000E078760476827EA0C0EC5F300179F4074
:1028E00047EA0E074760C76807EA060E8F6807FACF
:1028F00008F747EA0E07022CC76019D14FEAD30A3E
:1029000000EB8A0A03F0070BDAF820704FEA8B0B12
:102910004FF00F0E0EFA0BFE27EA0E0E0F6907FAA4
:102920000BF747EA0E07CAF8207001E0032CDAD152
:10293000076804FA08F437403C4315F4403F04604C
:1029400063D04FF0000ACDF804A0D9F844603A4CA7
:1029500046F48046C9F84460D9F8446006F48046DD
:102960000196019E23F0030606F1804606F59C368B
:1029700003F0030ED6F808804FEA8E0E0F2707FAF1
:102980000EF7A04228EA070746D004F58064A0426B
:1029900044D004F58064A04242D004F58064A04293
:1029A00040D004F58064A0423ED004F58064A0428B
:1029B0003CD004F58064A0423AD004F58064A04283
:1029C0000CBF0724082404FA0EF43C43B460946856
:1029D0006FEA0C06EF0254BF34404CEA04049460E2
:1029E000D468AF0254BF34404CEA0404D460546845
:1029F000AF0354BF34404CEA040454601468ED0340
:102A000054BF34404CEA040414600133102B7FF4AB
:102A100043AF03B0BDE8F08F5446D4E70124D2E7BA
:102A20000224D0E70324CEE70424CCE70524CAE738
:102A30000624C8E7003C0140000002400038024084
:102A40000AB1816170470904FBE7436901EA0302A7
:102A500021EA030141EA02418161704701684B6943
:102A600013F480634FF0000210D06FF480634B6169
:102A70002023026380F83D3080F83E20036C80F80C
:102A80003C2043F00403036401207047184670475C
:102A90002DE9F84606460F4691461D464FEA114A73
:102AA0003368BAF1010F0CBF5C699C6927EA040422
:102AB000A4B2B4FA84F46409A14501D0002017E05F
:102AC0006A1CEED0FFF710FE089BC01AA84201D87E
:102AD000002DE5D100232022336386F83D2086F8BF
:102AE0003E30326C86F83C3042F0200232640120E5
:102AF000BDE8F8862DE9F04104460F461646984693
:102B00002568686927EA000080B2B8B16B695A0588
:102B100016D52B6843F400732B606FF480636B61F0
:102B200020220023236384F83D2084F83E30226C69
:102B300042F00402226484F83C300120BDE8F081B8
:102B4000731CDED0FFF7D0FDA0EB0800B04201D827
:102B5000002ED5D100232022236384F83D2084F861
:102B60003E30226C42F02002E4E770B504460D4688
:102B7000164623685B691B0601D5002070BD204600
:102B8000FFF76CFFA8B96A1CF3D0FFF7ADFD801BFF
:102B9000A84201D8002DECD100232022236384F821
:102BA0003D2084F83E30226C84F83C3042F0200214
:102BB00022640120E2E700002DE9F0431546026897
:102BC00085B0DDE90C789946136843F4807313608F
:102BD0000E463B46CDF8008000224FF0011104461E
:102BE000FFF756FF236838B11B68DB0502D54FF4A9
:102BF0000073236403200AE006F0FE061E611949F3
:102C000043463A462046FFF775FF18B1012005B04C
:102C1000BDE8F083236803905A6903929B6903938C
:102C2000424639462046039BFFF79FFF40B1236C85
:102C3000042B01BF2268136843F400731360E5E7B7
:102C4000B9F1010F236802D1EDB21D61DFE72A0A55
:102C50001A61394642462046FFF787FF0028E6D131
:102C60002368F1E70200010070B504460D461646E0
:102C700023685B695B0701D5002070BD2046FFF724
:102C8000EDFEA8B96A1CF3D0FFF72EFD801BA84209
:102C900001D8002DECD100232022236384F83D20AD
:102CA00084F83E30226C84F83C3042F020022264EA
:102CB0000120E2E770B5044608B9012070BD90F824
:102CC0003D3003F0FF021BB980F83C20FFF7CAFA41
:102CD000242384F83D3023681A6822F001021A6028
:102CE0001A6842F400421A601A6822F400421A601C
:102CF00000F0A8FB3F4B65689D4294BF3E4B3F4BA5
:102D000098428CBF00230123002BD6D12268394E74
:102D100051683B4BB0FBF3F321F03F011943B5423F
:102D2000516088BF4FF49676116A88BF734321F0D3
:102D30003F0184BF4FF47A76B3FBF6F301330B43C4
:102D40001362D169431E2B4821F44F41854221F083
:102D5000FF0132D86D0040F6FC70B3FBF5F3013390
:102D6000034242D0C3F30B031943D161D4E90730C6
:102D70001168034321F0C0010B4313609168D4E94B
:102D8000030321F40341034321F0FF010B4393604C
:102D9000D4E90530D168034321F0FF010B43D36030
:102DA000136843F00103136000202023206484F89B
:102DB0003D30206384F83E0080E7A06850B905EB01
:102DC0004505B3FBF5F30133C3F30B037BB143F4C8
:102DD0000043C9E719206843B3FBF0F30133C3F3A1
:102DE0000B0323B143F44043BEE70423BCE70123B4
:102DF000BAE700BFA08601007F841E00FF083D00E7
:102E000040420F002DE9F743044699460C9E0F46B9
:102E10009046FFF769FC94F83D30202B054603D01F
:102E2000022003B0BDE8F08300903C491923012241
:102E30002046FFF72DFE0028F2D194F83C30012BFC
:102E4000EED02068012384F83C300368D9075EBFC8
:102E5000036843F001030360036823F40063036025
:102E6000212384F83D30402384F83E30002323643E
:102E70000A9B6362BDF82C306385638D2385284BE4
:102E8000E362CDE900654B46424639462046FFF7EE
:102E900093FE00282AD00120C3E7FFF766FE40B169
:102EA000236C042B01BF2268136843F40073136082
:102EB000F1E7636A27681A4612F8011B39616262FA
:102EC000628D218D013A92B262857A69481E80B284
:102ED000520720850AD548B15A783A6102336362B5
:102EE000638D013B02399BB221856385238D2A4680
:102EF00031462046002BD0D1FFF7B6FE0028CFD1B7
:102F00002268136843F400731360202384F83D3073
:102F100084F83C0084F83E0083E700BF0200100004
:102F20000000FFFF044B01221A62044B82B01B68B1
:102F30000193019B02B0704700000E4200700040F8
:102F4000044B00221A62044B82B01B680193019B60
:102F500002B0704700000E42007000402DE9F341BE
:102F6000044640B30368DD0710D4236898075BD498
:102F700023681A0700F19D8023685B0700F1BD807C
:102F8000A069002840F0248100202CE08D4B9A6835
:102F900002F00C02042A07D09A6802F00C02082AF8
:102FA0000BD15B68590208D5864B1B689A03DCD5A8
:102FB0006368002BD9D1012015E06368814DB3F51A
:102FC000803F13D12B6843F480332B60FFF78CFBD9
:102FD0007C4E054633689B03C7D4FFF785FB401B37
:102FE0006428F7D9032002B0BDE8F081B3F5A02F23
:102FF00004D12B6843F480232B60E3E72A6822F492
:1030000080322A602A6822F480222A60002BDDD1D7
:10301000FFF76AFB06462B689F03A6D5FFF764FB04
:10302000801B6428F7D9DDE7664B9A6812F00C0F15
:1030300007D09A6802F00C02082A11D15B685E0280
:103040000ED4604A13689D0702D5E368012BB2D104
:103050001368216923F0F80343EAC103136087E78B
:10306000E268594BB2B101221A60FFF73DFB554DA2
:1030700006462B68980707D52B68226923F0F803CA
:1030800043EAC2032B6073E7FFF72EFB801B022885
:10309000EFD9A7E71A60FFF727FB4A4E05463368CA
:1030A00099077FF565AFFFF71FFB401B0228F6D994
:1030B00098E76269444B82B10122C3F8802EFFF782
:1030C00013FB404E0546736F9F073FF555AFFFF763
:1030D0000BFB401B0228F6D984E7C3F8802EFFF7CC
:1030E00003FB384E0546736F98077FF545AFFFF732
:1030F000FBFA401B0228F6D974E7324B1A6C12F027
:10310000805228D101921A6C42F080521A641B6CD2
:1031100003F080530193019B01272C4D2B68D905A7
:103120001BD5A368274D012B27D12B6F43F001033B
:103130002B67FFF7D9FA234E054641F28838336FE3
:103140009B0739D5002F3FF41BAF1E4A136C23F0A9
:103150008053136414E70027DFE72B6843F4807380
:103160002B60FFF7C1FA06462B68DA05D9D4FFF7C2
:10317000BBFA801B0228F7D934E7052B04D12B6F4B
:1031800043F004032B67D0E72A6F22F001022A677D
:103190002A6F22F004022A67002BCAD1FFF7A4FA93
:1031A00041F2883806462B6F9807CBD5FFF79CFA7B
:1031B000801B4045F7D915E7FFF796FA401B4045BD
:1031C000BDD90FE7003802400000474200700040C0
:1031D000364DAB6803F00C03082B3DD0344B002276
:1031E00002281A662BD1FFF77FFA06462B68990151
:1031F0001FD4D4E907321343626A43EA8213E26AB6
:1032000043EA0263A26A5208013A43EA02436B604E
:10321000274B264D01221A66FFF766FA04462B68F3
:103220009A013FF5B1AEFFF75FFA001B0228F6D90D
:10323000D8E6FFF759FA801B0228D7D9D2E6FFF764
:1032400053FA04462B689B017FF59EAEFFF74CFABC
:10325000001B0228F6D9C5E601283FF4C4AE6B680E
:10326000E26903F4800191427FF4A5AE216A03F084
:103270003F028A427FF49FAE616A47F6C0721A40ED
:10328000B2EB811F7FF497AEA26A520803F440317B
:10329000013AB1EB024F7FF48EAEE26A03F0706345
:1032A000B3EB026F3FF470AE85E600BF003802401A
:1032B00000004742134908B58B6803F00C03042B48
:1032C0001CD0082B1CD14A684B68496813F4800352
:1032D00014BF0D480D48C1F3881118BF002302F038
:1032E0003F02A1FB0001FDF791FC064B5B68C3F3B5
:1032F000014301335B00B0FBF3F008BD0248FCE77B
:103300000248FAE70038024040787D010024F400CA
:103310002DE9F0410D46044610B90120BDE8F081C9
:10332000434B1A6802F007028A4228D321688F07AC
:103330002DD4C80740D43E4B1A6802F00702AA42B7
:1033400065D8226851076BD4130707D5394A21691C
:10335000936823F4604343EAC1039360FFF7AAFF35
:10336000344B354A9B68C3F30313D35CD840334BCB
:103370001860334B1868FFF76DF90020CEE7CAB22A
:103380001A701B6803F007038B42C6D1CEE7294BA6
:1033900011F0040F1EBF9A6842F4E0529A600E07C3
:1033A00042BF9A6842F460429A609A68A06822F02C
:1033B000F00202439A60BCE762681E4B012A1CD1EE
:1033C0001B6813F4003FA8D01A4EB36823F0030320
:1033D0001343B360FFF788F941F288380746B368B2
:1033E000626803F00C03B3EB820FA4D0FFF77CF903
:1033F000C01B4045F3D9032090E7911E01291B68AB
:1034000002D813F0007FDEE713F0020FDBE7EAB229
:103410001A701B6803F00703AB427FF47EAF90E79E
:103420000449E0688B6823F4E05303438B608BE727
:10343000003C024000380240487900082800002083
:1034400030000020044B054A9B68C3F38223D35C01
:10345000034A1068D8407047003802405879000885
:1034600028000020044B054A9B68C3F34233D35C19
:10347000034A1068D8407047003802405879000865
:1034800028000020036A23F001030362036A70B579
:10349000446882690D6822F073022A438D6823F024
:1034A00002032B430E4DA84202D00E4EB04210D163
:1034B000CE6823F008033343A84223F0040302D06C
:1034C000084DA84205D1D1E9055624F4407435438E
:1034D0002C43446082614A684263036270BD00BF4E
:1034E0000000014000040140036A23F4807303627A
:1034F000036A70B54468C2690D6822F073022A43FA
:103500008D6823F4007343EA0523114DA84203D0CC
:1035100005F58065A84214D1CD6823F4006343EA21
:1035200005230B4DA84223F4806303D005F5806585
:10353000A84206D1D1E9055624F44054354344EA63
:1035400005144460C2614A68C263036270BD00BF73
:1035500000000140036A23F480530362036A30B51C
:103560004468C2690D6822F4E64242EA05228D6889
:1035700023F4005343EA0533084DA84203D005F570
:103580008065A84204D14D6924F4804444EA85143E
:103590004460C2614A680264036230BD00000140B9
:1035A0007047704730B5034690F83E0093F83F20CF
:1035B00093F8425093F84340C0B2D2B2EDB2E4B2B5
:1035C000C1B9012845D1012D13D1022283F83E2033
:1035D00083F842201A68116A21F001011162116A10
:1035E00041F0010111621A68136843F0010313608E
:1035F000002030BD042911D1012A2AD1012C28D163
:10360000022283F83F2083F843201A68116A21F0D0
:1036100010011162116A41F01001E3E7012818D18D
:10362000012AE6D1012DE4D1012CE2D1022283F856
:103630003E2083F83F2083F8422083F843201A6815
:10364000116A21F001011162116A41F00101116258
:10365000DCE70120CDE7704770477047704703688B
:103660001A69910710B504460ED5DA6892070BD592
:103670006FF002021A61012202779B699B0777D0E3
:10368000FFF7EAFF0023237723681A69500710D554
:10369000DA6851070DD56FF004021A610222227711
:1036A0009B6913F4407F204668D0FFF7D5FF0023C5
:1036B000237723681A6912070FD5DA6810070CD52B
:1036C0006FF008021A6104222277DB69990720460D
:1036D0005AD0FFF7C1FF0023237723681A69D20667
:1036E00010D5DA68D0060DD56FF010021A610822E5
:1036F0002277DB6913F4407F20464BD0FFF7ACFF05
:103700000023237723681A69D10708D5DA68D2071E
:1037100005D56FF001021A612046FEF761FB2368B0
:103720001A69100608D5DA68110605D56FF080020F
:103730001A61204600F0D3FC23681A69520608D5A6
:10374000DA68500605D56FF040021A612046FFF78F
:1037500085FF23681A69910622D5DA6892061FD57B
:103760006FF0200220461A61BDE8104000F0B6BCA0
:10377000FFF771FF2046FFF770FF83E7FFF76BFF4E
:103780002046FFF76AFF92E7FFF765FF2046FFF745
:1037900064FFA0E7FFF75FFF2046FFF75EFFAFE79C
:1037A00010BD0000304A0368904212D0B0F1804F43
:1037B0000FD0A2F57C4290420BD002F5806290427D
:1037C00007D002F58062904203D002F57842904221
:1037D00019D14A6823F070031343234A904229D039
:1037E000B0F1804F26D0A2F57C42904222D002F563
:1037F000806290421ED002F5806290421AD002F59B
:103800007842904216D0194A904213D002F5806255
:1038100090420FD002F5806290420BD0A2F5983210
:10382000904207D002F58062904203D002F5806298
:10383000904203D1CA6823F4407313434A6923F0CA
:103840008003134303608B68C3620B688362064B7B
:10385000984203D003F58063984201D10B6903635A
:1038600001234361704700BF000001400040014058
:1038700010B5044630B390F83D3003F0FF021BB999
:1038800080F83C20FEF724FD0223206884F83D30B8
:10389000211DFFF787FF012384F84630002084F8BC
:1038A0003E3084F83F3084F8403084F8413084F86A
:1038B000423084F8433084F8443084F8453084F84A
:1038C0003D3010BD0120FCE710B5044630B390F840
:1038D0003D3003F0FF021BB980F83C20FFF760FE8B
:1038E0000223206884F83D30211DFFF75BFF012390
:1038F00084F84630002084F83E3084F83F3084F865
:10390000403084F8413084F8423084F8433084F801
:10391000443084F8453084F83D3010BD0120FCE788
:1039200010B5044630B390F83D3003F0FF021BB9E8
:1039300080F83C20FFF735FE0223206884F83D30F4
:10394000211DFFF72FFF012384F84630002084F863
:103950003E3084F83F3084F8403084F8413084F8B9
:10396000423084F8433084F8443084F8453084F899
:103970003D3010BD0120FCE7F8B50D460446002897
:103980004CD090F83D3003F0FF021BB980F83C208A
:10399000FEF716FD2146022384F83D3051F8040B52
:1039A000836823F4804323F007038360FFF7FAFE64
:1039B00081682A688369AE69076A1143AA6823F49B
:1039C000407323F0030342EA06221A432B69EE698F
:1039D0001B0143EA0623EE6833432E6A22F47C423D
:1039E00022F0FC0243EA063313436E696A68816081
:1039F00027F0AA0742EA06128361174301230762F0
:103A000084F84630002084F83E3084F83F3084F853
:103A1000423084F8433084F83D30F8BD0120FCE7A3
:103A2000036A23F010030362036A70B54468826975
:103A30000D6822F4E64242EA05228D6823F0200355
:103A400043EA0513104DA84203D005F58065A8424E
:103A500014D1CD6823F0800343EA05130A4DA84230
:103A600023F0400303D005F58065A84206D1D1E9D3
:103A7000055624F44064354344EA85044460826179
:103A80004A688263036270BD0000014070B590F81F
:103A90003C30012B054650D00123082A80F83C30E9
:103AA0003BD007D8C2B1042A27D01846002385F896
:103AB0003C3070BD0C2AF8D10068FFF74BFDC3699C
:103AC0000A6943F40063C361C36923F48063C3617B
:103AD000C36943EA02232EE00068FFF7D3FC836941
:103AE0000A6943F008038361836923F00403836157
:103AF0008369134383610020D8E70068FFF790FFD4
:103B000083690A6943F400638361836923F48063F2
:103B10008361836943EA0223ECE70068FFF7E4FC72
:103B2000C3690A6943F00803C361C36923F004034E
:103B3000C361C3691343C361DDE70220B9E7000035
:103B400070B5046A1A4E24F001040462B04284691C
:103B5000056A29D0B0F1804F26D0A6F57C46B04248
:103B600022D006F58066B0421ED006F58066B042CF
:103B70001AD006F57846B04216D006F57056B04217
:103B800012D0A6F59436B0420ED044F001021B01CB
:103B900022F0F002DBB2134301F00A0125F00A0221
:103BA00011438361016270BD24F003042243EEE7F8
:103BB00000000140F8B590F83C30012B05460C465A
:103BC00000F08B80012380F83C3092B90068CB680C
:103BD000D1E90012FFF7B4FF8369A26823F00C0358
:103BE00083618369134383610020002385F83C309F
:103BF000F8BD042A24D10368186A20F01000D1E926
:103C00000027C968186298691E6A20F4407040EA6B
:103C10000720090320F4704089B21201014302F029
:103C2000A00226F0A000024399611A629A69A16875
:103C300022F440629A619A6942EA01229A61D3E7CA
:103C4000082A22D103681E6A26F48076D1E9002072
:103C5000C9681E62DF691E6A27F00307384309013D
:103C600020F0F000C9B21202014302F4206226F4EF
:103C700020600243D9611A62DA69A16822F00C025D
:103C8000DA61DA690A43DA61AEE70C2A23D1036804
:103C9000186A20F48050D1E90027C9681862D869F1
:103CA0001E6A20F4407040EA0720090320F47040A7
:103CB00089B21203014302F4204226F42040024359
:103CC000D9611A62DA69A16822F44062DA61DA69BC
:103CD00042EA0122D7E7184687E7022088E710B5B5
:103CE0008468114324F47F4441EA0323234383601F
:103CF00010BD38B590F83C30012B04464FF002035C
:103D000000F08E80012280F83D3080F83C20006871
:103D1000836823F47F4323F0770383600B68602B71
:103D20004FD032D8402B64D016D8202B0DD00AD8D3
:103D300033F0100109D0012384F83D30002384F8CA
:103D40003C30104638BD302BF5D1826822F070022D
:103D5000134343F0070328E0502BECD14A68CD68A9
:103D6000016A036A23F001030362836921F00A01F7
:103D700023F0F00343EA05130A4383610262836878
:103D800023F0700343F057030FE0B3F5805F0DD0CD
:103D9000B3F5005F0CD0702BCDD1CB68D1E90121F8
:103DA000FFF79DFF836843F0770383600022C2E73B
:103DB000CB68D1E90121FFF792FF836843F4804388
:103DC000F3E7036A4D68C96823F010030362826950
:103DD000036A22F4704223F0A00343EA051342EA87
:103DE000013282610362836823F0700343F067034A
:103DF000DBE74A68CD68016A036A23F001030362C6
:103E0000836921F00A0123F0F00343EA05130A4312
:103E100083610262836823F0700343F04703C4E7C1
:103E20001A468EE7036A01F01F0110B501248C4089
:103E300023EA04030362036A8A401A43026210BD44
:103E400008B529B990F83E30012B18D001202CE09C
:103E500004290DD190F83F30013B18BF0123002BFE
:103E6000F4D104294FF0020320D180F83F3009E05B
:103E700008290CBF90F8403090F84130ECE702235D
:103E800080F83E3000680122FFF7CCFF1C4A9042C8
:103E900013D01C4B984210D0B0F1804F14D18368DE
:103EA00003F00703062B26D1002008BD08290CBF0C
:103EB00080F8403080F84130E4E7436C904243F4AE
:103EC00000434364EBD0E7E70F4B9842E7D003F59C
:103ED00080639842E3D003F580639842DFD003F516
:103EE00078439842DBD003F570539842D7D0A3F5BE
:103EF00094339842D3D0036843F001030360D3E7BF
:103F0000000001400004014000040040FFF798BF9A
:103F100008B50346002942D190F83E0093F84220AC
:103F2000C0B20128D2B271D1012A70D10222002977
:103F30004BD1186883F83E2083F84220C26842F0D3
:103F40000202C26018680122FFF76CFF304B9842F2
:103F50001AD0B0F1804F17D0A3F57C43984213D00C
:103F600003F5806398420FD003F5806398420BD02D
:103F700003F57843984207D003F57053984203D075
:103F8000A3F59433984204D1836803F00703062B0A
:103F900003D0036843F001030360002037E00429E5
:103FA00005D190F83F0093F84320C0B2B9E7082943
:103FB0000BBF90F8400093F8410093F8442093F829
:103FC00045200CBFC0B2C0B2ABE7042908D11868C5
:103FD00083F83F2083F84320C26842F00402B0E730
:103FE000082908D1186883F8402083F84420C26863
:103FF00042F00802A5E70C2983F8412083F8452008
:1040000005D11868C26842F010029AE7012008BD85
:104010000000014030B590F83C30012B4FF0020316
:1040200032D080F83D3003680D685C689A6824F0EF
:1040300070042C435C60154CA3421AD0B3F1804F3E
:1040400017D0A4F57C44A34213D004F58064A342A6
:104050000FD004F58064A3420BD004F57844A3424A
:1040600007D004F57054A34203D0A4F59434A342BE
:1040700004D1496822F080020A439A60012380F843
:104080003D30002380F83C30184630BD0000014030
:1040900090F83C30012B1FD0CB688A6823F4407322
:1040A00013434A6823F4806313430A6823F40063CC
:1040B00013430A6923F4805313434A6923F40053DA
:1040C0001343CA6923F480431343026853640023F3
:1040D00080F83C30184670470220704770477047A0
:1040E000026802F10C0353E8003F23F490730C3292
:1040F00042E8003102680029F2D102F1140353E8CA
:10410000003F23F0010302F1140C4CE800310029B8
:10411000F3D1036B012B0BD102F10C0353E8003FE9
:1041200023F0100302F10C0C4CE800310029F3D10C
:10413000202380F83E300023036370470268C16883
:10414000136923F440530B4370B51361054683682C
:104150000069D168034368690343E86921F41641A3
:1041600021F00C0103430B43D3605369A96923F485
:1041700040730B4353611F4B9A4203D003F5806396
:104180009A4223D1FFF76EF9EB691921B3F5004F7D
:10419000D5E90046A0FB01011BD1B2194FF0000385
:1041A0005B41FCF733FD6422B0FBF2F102FB11032B
:1041B000DB003233B3FBF2F303F007025B0002EBE8
:1041C000011203F4F8731344A36070BDFFF73AF9CA
:1041D000DAE7B200B30FFCF719FD6422B0FBF2F18D
:1041E00002FB11031B013233B3FBF2F303EB0113A8
:1041F000EAE700BF00100140F8B504460E46174636
:104200001D462268136836EA030301D1002028E026
:104210006B1CF7D025B1FEF767FAC01B8542F0D2C0
:10422000226802F10C0353E8003F23F4D0730C32F0
:1042300042E8003021680028F2D101F1140353E86C
:10424000003F23F0010301F1140040E80032002A8E
:10425000F3D1202384F83D3084F83C2084F83E30AC
:104260000320F8BD10B5044640B390F83D3003F08C
:10427000FF021BB980F83C20FEF73CF9226824239A
:1042800084F83D30D36823F40053D3602046FFF711
:1042900055FF23681A6922F490421A615A6922F084
:1042A0002A025A61DA6842F40052DA6000202023C0
:1042B000206484F83D3084F83E3010BD0120FCE7D6
:1042C000F7B5174690F83D200093202A04460E4685
:1042D00049D1002945D0002F43D090F83C20012A35
:1042E00041D0012280F83C2000252122056480F87D
:1042F0003D20FEF7F9F9A168009BA784B1F5805F26
:104300000246E78403D1216909B935460E460021EA
:1043100084F83C10E18C89B241B940212046FFF776
:104320006BFF60B9202384F83D3009E080212046EE
:10433000CDE90023FFF760FFDDE9002310B1032082
:1043400003B0F0BD20684EB935F8021BC1F3080177
:104350004160E18C013989B2E184DBE716F8011B89
:10436000F6E70120ECE70220EAE77047704708B55E
:10437000806B0023C385C384FFF7F8FF08BD704737
:1043800090F83E30222B07B541D18168836A0268DC
:10439000B1F5805F3ED1016900293ED15268C2F378
:1043A000080223F8022B8362C38D013B9BB2C385B5
:1043B000002B2CD10268D16821F02001D160D16896
:1043C00021F48071D160516921F0010151612022F5
:1043D00080F83E20026B012A026828D1036302F1B3
:1043E0000C0353E8003F23F0100302F10C0C4CE8DF
:1043F00000310029F3D11368DB0605D5019113685C
:10440000019353680193019B818DFFF7B8FF03B0BF
:104410005DF804FB39B9016929B95268D2B21A7042
:10442000836A0133BFE7526802F07F02F7E7FDF7C6
:10443000A5F8ECE703681A6873B51607D9685D69D3
:10444000044608D1960668D58D0666D502B0BDE84B
:104450007040FFF795BF05F0010001F4907505432A
:104460005BD0D60705D5CD0542BF236C43F00103D1
:104470002364530704D518B1236C43F0020323646B
:10448000960704D518B1236C43F004032364150781
:1044900007D501F0200303431EBF236C43F008033C
:1044A0002364236C002B32D0920604D58B0602D5F0
:1044B0002046FFF765FF26687369226C03F040030E
:1044C00002F0080253EA0205204622D0FFF708FE58
:1044D00073695E0618D5226802F1140353E8003FA1
:1044E00023F04003143242E800310029F3D1A06BDD
:1044F00050B1724B0365FEF7B6F940B1A06B036D86
:1045000002B0BDE8704018472046FFF72FFF02B009
:1045100070BDFFF72BFF2564F9E7206B012840F001
:104520009180D50640F18E80C80640F18B80002234
:1045300001921A6801925A680192019A5A695206C8
:104540004CD5A16B0A68526892B2002ADFD0A08DC8
:104550009042DCD9E285CA69B2F5807F36D003F19A
:104560000C0252E8002F22F4807203F10C0040E8A4
:1045700000210029F3D103F1140252E8002F22F0A8
:10458000010203F1140040E800210029F3D103F1F6
:10459000140252E8002F22F0400203F1140040E818
:1045A00000210029F3D1202284F83E20216303F169
:1045B0000C0252E8002F22F0100203F10C0040E838
:1045C00000210029F3D1A06BFEF70EF9E38DA18D38
:1045D000C91A89B22046FFF7D2FE98E7E28DE08D36
:1045E000A18D80B292B2002891D0891A89B2002997
:1045F0008DD003F10C0252E8002F22F4907203F1E7
:104600000C0545E800200028F3D103F1140252E81C
:10461000002F22F0010203F1140545E800200028D4
:10462000F3D1202284F83E20206303F10C0252E8EB
:10463000002F22F0100203F10C0545E800200028AD
:10464000F3D1C7E7160628D50D0626D594F83D20E8
:10465000212A7FF45CAFA168226AB1F5805F17D18F
:104660002169A9B932F8021BC1F30801596022621D
:10467000E28C013A92B2E284002A7FF448AFDA6811
:1046800022F08002DA60DA6842F04002DA603EE747
:10469000511C216212785A60EAE750067FF537AF65
:1046A0004A067FF534AFDA6822F04002DA60202350
:1046B00084F83D302046FFF758FE28E76F43000896
:1046C000C285002382852222036480F83E2002698D
:1046D00080F83C30816203681AB1DA6842F4807273
:1046E000DA605A6942F001025A61DA6842F0200247
:1046F000DA600020704770B490F83E60202E10D130
:1047000061B15AB190F83C40012C0AD0012480F8E4
:104710003C400024046370BCFFF7D2BF012070BC92
:1047200070470220FBE70000EFF305832BB9064B2F
:10473000186828B901221A6070476FF005007047A9
:104740004FF0FF30704700BF600A002010B5EFF354
:1047500005845CB9084B1A68012A0AD1074AD47744
:1047600002221A6000F096FE204610BD6FF0050090
:10477000FBE74FF0FF30F8E7600A002000ED00E0B3
:10478000F0B587B00B4600210591EFF30584CCB955
:10479000C0B16AB395698D4208BF1825691E3729D3
:1047A000AC462AD85168C90727D456696EB1B408F7
:1047B000D2E9027E116857B1BEF15B0F02D91269CE
:1047C00002B1E6B9059807B0F0BD8024F0E7BEF16C
:1047D000000FF7D11269002AF4D105AACDE900C271
:1047E000A2B200F02AFE01281CBF00230593E9E7CE
:1047F00011464FF0180C8024EFE72046E3E7CDE99F
:1048000001270095224600F0E0FD0590DAE710B59B
:10481000EFF3058424B910B100F09AFF204610BDD3
:104820006FF00500FBE7F7B505460E461446EFF3BB
:1048300005871FB10025284603B0F0BD0028F9D038
:104840000029F7D0DAB1D2E9023283B14F2AF1D987
:104850002269002AEED066694D43AE42EAD3009742
:1048600000F0A2F905460028E4D0246811E0002AEF
:10487000E0D12369002BDDD16369002BDAD1284612
:104880000022314600F0DEF905460028D2D0002C87
:10489000EBD12146284600F0FFFBCCE773B51C4660
:1048A000EFF30586C6B118B311B30BBB01AA019390
:1048B00000F0A2FA012818D1019B13B9002002B020
:1048C00070BD4FF0E0234FF08052C3F8042DBFF3CA
:1048D0004F8FBFF36F8FF1E750B149B13346224696
:1048E00000F0D7F90128E9D02CB96FF00200E6E713
:1048F0006FF00300E3E76FF00100E0E737B51C4617
:10490000EFF30583C3B110B309B304BB01AA01944B
:1049100000F073FB012817D1019B13B9002003B0ED
:1049200030BD4FF0E0234FF08052C3F8042DBFF3A9
:104930004F8FBFF36F8FF1E748B141B1224600F0CE
:10494000BDFA0128EAD02CB96FF00200E7E76FF05A
:104950000300E4E76FF00100E1E70000034B0360B0
:10496000034B0B6080231360704700BF040A0020D4
:1049700004080020034B0360034B0B604FF480736B
:1049800013607047640E0020640A002000F10803E1
:104990004FF0FF32C0E9022343600361002303604C
:1049A000704700230361704743684B609A688A60D0
:1049B0009A68516099600368086101330360704729
:1049C00030B50C68631C0AD103695A684A6091606B
:1049D0008B605960036808610133036030BD00F1EA
:1049E0000802134652681568A542FAD9EDE7D0E9E6
:1049F000011203698A6051605968814208BF5A6098
:104A0000002202611A68013A1A601868704710B5EE
:104A1000044601F06FFAA46B01F08CFAB4FA84F04A
:104A2000400910BDF8B51546026C866B044652B9B4
:104A3000076847BB806800F0C3FFA76005460136E2
:104A4000A6632846F8BD65B9406801F077FD636844
:104A5000226C1344A26863609342F0D323686360BE
:104A6000EDE7C06801F06AFD226CE36851429B1AD1
:104A70002268E36093423EBFA3685B18E360022DA7
:104A800001D116B1013E0025D9E73546D7E70346E7
:104A900010B41A6C08466AB1DC68996814448C42F8
:104AA00028BF1968DC6028BFD960D9685DF8044B5D
:104AB00001F044BD5DF8044B704770B5044601F049
:104AC00019FA94F8455004F124066DB2002D14DC57
:104AD000FF2384F8453001F02DFA01F00BFA94F829
:104AE000445004F110066DB2002D12DCFF2384F84F
:104AF0004430BDE8704001F01DBA636A002BE7D076
:104B0000304600F0BBFE08B100F044FF013D6DB23D
:104B1000DCE72369002BE9D0304600F0AFFE08B196
:104B200000F038FF013D6DB2DEE738B50D460446B2
:104B300040B94FF0500383F31188BFF36F8FBFF379
:104B40004F8FFEE701F0D6F9D4E90F312268626099
:104B50004B43D0185B1A1A44A060FF230020A063C7
:104B6000E26084F8443084F84530A5B9236973B114
:104B700004F1100000F082FE48B14FF0E0234FF046
:104B80008052C3F8042DBFF34F8FBFF36F8F01F036
:104B9000D1F9012038BD04F11000FFF7F7FE04F150
:104BA0002400FFF7F3FEF2E713B51C4640B94FF0BF
:104BB000500383F31188BFF36F8FBFF34F8FFEE76E
:104BC00043B94FF0500383F31188BFF36F8FBFF3E6
:104BD0004F8FFEE74AB191B94FF0500383F311882C
:104BE000BFF36F8FBFF34F8FFEE741B14FF050031C
:104BF00083F31188BFF36F8FBFF34F8FFEE750230E
:104C00000193019B502B08D04FF0500383F3118880
:104C1000BFF36F8FBFF34F8FFEE7002908BF224617
:104C2000019B22600123C4E90F0184F84630194634
:104C30002046FFF77AFF9DF8103084F84C3020466C
:104C400002B010BDF8B50D461746064640B94FF004
:104C5000500383F31188BFF36F8FBFF34F8FFEE7CD
:104C60004843503001F0B0FA044670B1002380F898
:104C7000463065B100F15003C4E90F65236001219E
:104C80002046FFF752FF84F84C702046F8BD0346DB
:104C9000F2E72DE9F04385B0884601921F460446AD
:104CA00040B94FF0500383F31188BFF36F8FBFF308
:104CB0004F8FFEE751B9036C43B14FF0500383F3BC
:104CC0001188BFF36F8FBFF34F8FFEE7022F0BD119
:104CD000E36B012B08D04FF0500383F31188BFF32F
:104CE0006F8FBFF34F8FFEE700F05AFE064650B9B4
:104CF000019B4BB14FF0500383F31188BFF36F8FCB
:104D0000BFF34F8FFEE700264FF0000937E0019D0B
:104D10001DB901F00FF9002052E016B902A800F009
:104D2000F1FD01F007F900F0FBFB01F0E3F894F866
:104D30004430FF2B08BF84F8449094F84530FF2B93
:104D400008BF84F8459001F0F5F801A902A800F029
:104D5000E5FD00284AD101F0CDF8A26BE36B9A4241
:104D600031D101F0E7F8019904F1100000F04EFD97
:104D70002046FFF7A2FE00F077FC60B3012601F0A9
:104D8000B9F8A26BE36B9A4201D3022FBFD13A4626
:104D900041462046FFF746FE636A1BB104F124003A
:104DA00000F06CFD48B14FF0E0234FF08052C3F8A3
:104DB000042DBFF34F8FBFF36F8F01F0BBF80120BD
:104DC00005B0BDE8F08301F0B5F82046FFF775FEA9
:104DD00000F04AFCD2E74FF0E0234FF08052C3F8D6
:104DE000042DBFF34F8FBFF36F8FC7E72046FFF748
:104DF00064FE00F039FC8EE72DE9F84389469046C1
:104E00001F46044640B94FF0500383F31188BFF3A7
:104E10006F8FBFF34F8FFEE751B9036C43B14FF073
:104E2000500383F31188BFF36F8FBFF34F8FFEE7FB
:104E3000022F0BD1E36B012B08D04FF0500383F30B
:104E40001188BFF36F8FBFF34F8FFEE701F068F952
:104E5000EFF311864FF0500383F31188BFF36F8F88
:104E6000BFF34F8FA26BE36B9A4201D3022F23D182
:104E700094F84550A36B6DB23A4649462046FFF779
:104E8000D1FD6B1C13D1636A0BB901200BE004F157
:104E9000240000F0F3FC0028F7D0B8F1000FF4D0A4
:104EA0000120C8F8000086F31188BDE8F8830135B9
:104EB0006DB284F84550E8E70020F4E72DE9FF41A2
:104EC0000F460192044640B94FF0500383F3118816
:104ED000BFF36F8FBFF34F8FFEE751B9036C43B140
:104EE0004FF0500383F31188BFF36F8FBFF34F8FE1
:104EF000FEE700F055FD064650B9019B4BB14FF05F
:104F0000500383F31188BFF36F8FBFF34F8FFEE71A
:104F100000264FF000083DE0019D1DB901F00AF8A0
:104F2000002056E016B902A800F0ECFC01F002F8EF
:104F300000F0F6FA00F0DEFF94F84430FF2B08BFD3
:104F400084F8448094F84530FF2B08BF84F84580EE
:104F500000F0F0FF01A902A800F0E0FC002841D118
:104F60002046FFF754FDB8B3019904F1240000F086
:104F70004DFC2046FFF7A1FD00F076FB48B94FF04D
:104F8000E0234FF08052C3F8042DBFF34F8FBFF3DF
:104F90006F8F012600F0AEFFA56B002DBCD0394607
:104FA0002046013DFFF773FDA563236973B104F14A
:104FB000100000F063FC48B14FF0E0234FF0805246
:104FC000C3F8042DBFF34F8FBFF36F8F00F0B2FF14
:104FD000012004B0BDE8F0812046FFF76EFD00F02F
:104FE00043FBD6E72046FFF768FD00F03DFB204677
:104FF000FFF70DFD0028CCD092E72DE9F843894654
:105000009046054640B94FF0500383F31188BFF333
:105010006F8FBFF34F8FFEE751B9036C43B14FF071
:10502000500383F31188BFF36F8FBFF34F8FFEE7F9
:1050300001F076F8EFF311874FF0500383F31188F6
:10504000BFF36F8FBFF34F8FAC6B1CB395F8446009
:10505000494676B22846FFF71AFD013C731CAC6343
:1050600013D12B690BB901200BE005F1100000F002
:1050700005FC0028F7D0B8F1000FF4D00120C8F8E3
:10508000000087F31188BDE8F883013676B285F811
:105090004460E8E72046F4E710B5074A002352F8D9
:1050A00033402CB942F8331002EBC302506010BDFC
:1050B0000133082BF3D1FAE7C00E002070B5044687
:1050C0000D46164600F016FF94F84430FF2B04BF3F
:1050D000002384F8443094F84530FF2B04BF0023AC
:1050E00084F8453000F026FFA36B2BB932462946E1
:1050F00004F1240000F0A4FB2046BDE87040FFF757
:10510000DCBC00002DE9F041044600F0F3FE304B1A
:10511000304E1A68304F01321A603568002D4BD17D
:1051200034601B68012B1FD1B84640460135FFF79C
:105130002DFC382D08F11408F7D1DFF8C480274D75
:105140004046FFF723FC2846FFF720FC2448FFF7E2
:105150001DFC2448FFF71AFC2348FFF717FC234BDC
:10516000C3F80080224B1D60224A1368013313608C
:10517000214A63641168E36A14208B4200FB0370C8
:1051800004F1040188BF1360FFF70EFC00F0D2FEAB
:105190001A4B1B6873B13368DA6AE36A9A4209D220
:1051A0004FF0E0234FF08052C3F8042DBFF34F8F30
:1051B000BFF36F8FBDE8F081104B1A68E36A002AD5
:1051C000D2D13268D26A9A4298BF3460CCE700BF2D
:1051D0006C130020000F00200C0F002094130020FF
:1051E000B4130020E0130020CC130020040F002093
:1051F000080F0020781300207C130020C813002023
:1052000080130020F8B5154B154D1C68064628681C
:1052100004300F46FFF7EBFB731C07D137B1296849
:105220001048BDE8F8400431FFF7BEBB2B68A41955
:105230005C6007D30C4B18682968BDE8F84004315E
:10524000FFF7BEBB094B186829680431FFF7B8FBAC
:10525000074B1A68A24288BF1C60F8BDF4130020F7
:10526000000F0020CC130020080F0020040F0020A6
:10527000A8130020064A13681968064B19B94FF0A5
:10528000FF321A6070471268D268D2685268F8E735
:10529000040F0020A813002010B590F859300446E0
:1052A0003BB9006B01F028F82046BDE8104001F042
:1052B00023B8012BF9D0022B08D04FF0500383F311
:1052C0001188BFF36F8FBFF34F8FFEE710BD000053
:1052D00080B5134C134F144D236873B9134B1B68DF
:1052E000012BF8D94FF0E0234FF08052C3F8042D82
:1052F000BFF34F8FBFF36F8FEDE700F0FBFDFB684F
:10530000DE68301DFFF773FB2B68013B2B602368C1
:10531000013B236000F00EFE3046FFF7BDFFDBE7E8
:1053200070130020E01300206C1300200C0F0020ED
:105330002DE9F047DDE909844FEA82094A4606462D
:105340000D46206BA5211F4601F0C4F8236BA9F17F
:1053500004094B4423F00709A5B36B1E04F1330283
:105360000F3513F8011F02F8011F09B1AB42F8D144
:10537000002384F84330089D372D28BF37254FF090
:10538000000AE562E564201DC4F850A0FFF709FBA0
:10539000C5F1380504F11800FFF703FBC4F854A069
:1053A0002461A561646284F858A03A4631464846B3
:1053B00000F074FD2060B8F1000F01D0C8F8004083
:1053C000BDE8F08784F83450D5E770B586B0DDE9E4
:1053D0000B5445B94FF0500383F31188BFF36F8F1F
:1053E000BFF34F8FFEE744B94FF0500383F31188AA
:1053F000BFF36F8FBFF34F8FFEE75C260596059EC8
:105400005C2E08D04FF0500383F31188BFF36F8FE9
:10541000BFF34F8FFEE72563022584F8595004AD92
:1054200001950A9D02940095059EFFF781FF204695
:10543000FFF768FE049806B070BD2DE9F0430746FB
:1054400085B0900088461646994600F0BDFE054698
:10545000E8B15C2000F0B8FE0446A8B1002380F853
:1054600059300D9B056301930C9B029000933246CB
:105470004B4641463846FFF75BFF2046FFF742FEAA
:10548000012005B0BDE8F083284600F035FF4FF05D
:10549000FF30F6E710B588B0002407AA06A905A8D2
:1054A000CDE90544FFF75AFA059B0293069B079A3C
:1054B00016491748CDE900432346FFF786FF18B386
:1054C00000F014FB012814D14FF0500383F311882E
:1054D000BFF36F8FBFF34F8F0E4B4FF0FF321A6049
:1054E0000D4B18600D4B1C6008B0BDE8104000F07B
:1054F00091BD013008D14FF0500383F31188BFF301
:105500006F8FBFF34F8FFEE708B010BD60790008C2
:10551000D1520008A8130020C8130020F413002063
:10552000024A136801331360704700BF74130020F0
:10553000014B1868704700BFF41300203F4B1B68F5
:105540002DE9F74F002B73D13D4B1D6801351D60D0
:10555000BDB93C4B1A68126842B14FF0500383F357
:105560001188BFF36F8FBFF34F8FFEE7364A19687C
:10557000106818601160354A136801331360FFF733
:1055800079FE334E334F3368DFF8D4809D424FF0BD
:10559000000411D2D8F80030DB6A14225343FB58C0
:1055A000022B2D4B1B6828BF0124002B18BF0124A0
:1055B000204603B0BDE8F08FDFF88890DFF8A4A0A4
:1055C000D9F800301B681BB94FF0FF333360E1E7B7
:1055D000D9F80030DB68D3F80CB0DBF80420954232
:1055E00001D23260D6E70BF1040108460191FFF7C2
:1055F000FEF9DBF82820019922B10BF11800FFF722
:10560000F6F90199DBF82C00DAF800201423904217
:1056100088BFCAF8000003FB0070FFF7C5F9D8F88F
:105620000010DBF82C20CB6A9A4228BF0124C7E780
:105630000A4A1368013313600024B9E77413002089
:10564000F4130020040F0020080F0020AC130020EA
:10565000A81300200C0F0020F8130020B013002026
:10566000000F00207C130020F7B5314C236843B9AC
:105670004FF0500383F31188BFF36F8FBFF34F8F49
:10568000FEE700F037FC2368013B236024682CB15F
:10569000002400F04FFC204603B0F0BD254B1B68F2
:1056A000002BF5D0244D254E254F1EE0EB68DC681D
:1056B00004F11800FFF79BF9211D08460191FFF73F
:1056C00096F9E36A326801991420934200FB037053
:1056D00088BF3360FFF768F91A4BE26A1B68DB6A20
:1056E0009A4202D3184B01221A602B68002BDDD19D
:1056F0000CB1FFF7BFFD154D2C6844B1124E0127C8
:10570000FFF71CFF00B13760013CF9D12C600E4B54
:105710001B68002BBCD04FF0E0234FF08052C3F841
:10572000042DBFF34F8FBFF36F8F0124B1E700BF8C
:10573000741300206C130020B41300207C1300208D
:105740000C0F0020000F0020F8130020B0130020E1
:1057500008B550B94FF0E0234FF08052C3F8042D44
:10576000BFF34F8FBFF36F8F08BD0A4B196841B16C
:105770004FF0500383F31188BFF36F8FBFF34F8F48
:10578000FEE7FFF7CDFEFFF73DFDFFF76DFF0028B9
:10579000E0D0E9E774130020174B1A68174B70B577
:1057A00012B101221A6070BD154D1A602A681549A0
:1057B000142606FB02F3C818CC588CB14468083391
:1057C000646844600B449C4204BF636843601423D4
:1057D00003FB02114B68D9680B4B19602A60E2E7A2
:1057E00042B94FF0500383F31188BFF36F8FBFF3BB
:1057F0004F8FFEE7013ADCE774130020F813002016
:105800007C1300200C0F0020000F002010B50C4668
:1058100040B94FF0500383F31188BFF36F8FBFF38C
:105820004F8FFEE7054B19681831FFF7C9F820467E
:105830000121BDE81040FFF7E5BC00BF000F0020CC
:1058400038B50D46144640B94FF0500383F3118824
:10585000BFF36F8FBFF34F8FFEE7074B1968183107
:10586000FFF7A2F8002C21460CBF28464FF0FF306E
:10587000BDE83840FFF7C6BC000F0020C36813B571
:10588000DC6844B94FF0500383F31188BFF36F8F86
:10589000BFF34F8FFEE704F1180108460191FFF7AF
:1058A000A6F8124B01991B68EBB9211D084601911E
:1058B000FFF79DF80E4AE36A10680199834288BF9A
:1058C00013600C4A142000FB0320FFF76DF80A4B0D
:1058D000E26A1B68DB6A9A4285BF084B0120002000
:1058E000186002B010BD0648EFE700BF7413002037
:1058F0007C1300200C0F0020000F0020F813002064
:10590000B4130020034B1B680360034B1B68436008
:10591000704700BFAC130020F413002070B50C4694
:10592000054640B94FF0500383F31188BFF36F8FE2
:10593000BFF34F8FFEE741B94FF0500383F3118857
:10594000BFF36F8FBFF34F8FFEE700F0D3FA0F4B1B
:10595000196823685A1C10D00D482E6800686A68C0
:10596000864201D08A420FD9881A83420AD95B1A2B
:10597000134423602846FFF7C5FF002400F0DAFA3D
:10598000204670BD002323600124F7E7F4130020B4
:10599000AC130020014B01221A607047F81300205D
:1059A000054B1B6833B1054B1868B0FA80F040090D
:1059B0004000704701207047C81300207413002076
:1059C00013B510B9002002B010BD1C4B1C688442F6
:1059D00008D04FF0500383F31188BFF36F8FBFF3EC
:1059E0004F8FFEE7236D43B94FF0500383F31188C7
:1059F000BFF36F8FBFF34F8FFEE7E16AE26C013BAD
:105A000091422365DED0002BDCD1211D0846019197
:105A1000FEF7EDFFE36C0199E362C3F13802A26186
:105A2000074A1068834288BF1360064A142000FBAF
:105A30000320FEF7B9FF0120C5E700BF000F0020DB
:105A40007C1300200C0F0020F7B5114C00F052FA27
:105A50002568BDB90F4F104E3846FEF797FF304608
:105A6000FEF794FF0D4B0E4A1F600E4B10211E6077
:105A70000A200D4B0095FFF797F8206010B10B49F5
:105A8000FFF70AFB03B0BDE8F04000F053BA00BFD7
:105A900020150020A4140020B8140020FC130020BE
:105AA0000414002000140020D014002065790008A0
:105AB000914208B5416000610AD8D31A82699342C5
:105AC0000DD2084B011D1868FEF77AFF002008BDB3
:105AD0009A4201D2994202D2034B011DF3E7012001
