:020000040800F2
:100000000000022001700008C56E0008CB6E0008D9
:10001000D16E0008D76E0008DD6E000800000000F9
:1000200000000000000000000000000061EB00087C
:10003000E36E000800000000B1ED0008F16E00085A
:10004000517000085170000851700008517000088C
:10005000517000080B6F00085170000851700008C3
:10006000517000085170000851700008517000086C
:10007000517000085170000851700008517000085C
:100080005170000851700008196F00085170000885
:10009000517000085170000851700008517000083C
:1000A000517000085170000851700008356F000849
:1000B0005170000851700008496F00085170000825
:1000C000517000085170000851700008517000080C
:1000D0005170000851700008517000085D6F0008F1
:1000E00051700008517000085170000851700008EC
:1000F00051700008517000085170000851700008DC
:1001000051700008517000085170000851700008CB
:1001100051700008517000085170000851700008BB
:1001200051700008517000085170000851700008AB
:10013000517000085170000851700008517000089B
:10014000517000085170000851700008517000088B
:10015000517000085170000851700008517000087B
:10016000517000085170000851700008517000086B
:100170005170000851700008517000080000000024
:080180005170000851700008E5
:1001900010B5054C237833B9044B13B10448AFF3C1
:1001A00000800123237010BDA80100200000000082
:1001B0007C0A010808B5034B1BB103490348AFF3A0
:1001C000008008BD00000000AC0100207C0A01088E
:1001D00001F0FF01102A2BDB10F0070F08D010F8F8
:1001E000013B013A8B422DD010F0070F42B3F6D1FC
:1001F000F0B441EA012141EA014122F007047FF015
:1002000000070023F0E80256083C85EA010586EA6B
:10021000010685FA47F5A3FA87F586FA47F6A5FAA7
:1002200087F68EB9EED1F0BC01F0FF0102F00702B3
:1002300032B110F8013B013A83EA010313B1F8D15E
:100240000020704701387047002D06BF354603383F
:10025000073815F0010F07D1013015F4807F02BF78
:10026000013015F4C03F0130F0BC0138704700BFC9
:1002700081F0004102E000BF83F0004330B54FEA57
:1002800041044FEA430594EA050F08BF90EA020FC4
:100290001FBF54EA000C55EA020C7FEA645C7FEA57
:1002A000655C00F0E2804FEA5454D4EB5555B8BF7A
:1002B0006D420CDD2C4480EA020281EA030382EAEB
:1002C000000083EA010180EA020281EA0303362D7D
:1002D00088BF30BD11F0004F4FEA01314FF4801C50
:1002E0004CEA113102D0404261EB410113F0004F62
:1002F0004FEA03334CEA133302D0524263EB430319
:1003000094EA050F00F0A780A4F10104D5F1200EB6
:100310000DDB02FA0EFC22FA05F2801841F1000111
:1003200003FA0EF2801843FA05F359410EE0A5F1E5
:1003300020050EF1200E012A03FA0EFC28BF4CF016
:10034000020C43FA05F3C01851EBE37101F00045CC
:1003500007D54FF0000EDCF1000C7EEB00006EEBD9
:100360000101B1F5801F1BD3B1F5001F0CD3490863
:100370005FEA30004FEA3C0C04F101044FEA4452BA
:1003800012F5800F80F09A80BCF1004F08BF5FEA41
:10039000500C50F1000041EB045141EA050130BD21
:1003A0005FEA4C0C404141EB0101013C28BFB1F533
:1003B000801FE9D291F0000F04BF01460020B1FA7E
:1003C00081F308BF2033A3F10B03B3F120020CDA51
:1003D0000C3208DD02F1140CC2F10C0201FA0CF02F
:1003E00021FA02F10CE002F11402D8BFC2F1200C94
:1003F00001FA02F120FA0CFCDCBF41EA0C0190404A
:10040000E41AA2BF01EB0451294330BD6FEA040492
:100410001F3C1CDA0C340EDC04F11404C4F120027D
:1004200020FA04F001FA02F340EA030021FA04F38F
:1004300045EA030130BDC4F10C04C4F1200220FAE6
:1004400002F001FA04F340EA0300294630BD21FA24
:1004500004F0294630BD94F0000F83F4801306BFEA
:1004600081F480110134013D4EE77FEA645C18BFDE
:100470007FEA655C29D094EA050F08BF90EA020F75
:1004800005D054EA000C04BF1946104630BD91EA6D
:10049000030F1EBF0021002030BD5FEA545C05D170
:1004A0004000494128BF41F0004130BD14F58004AF
:1004B0003CBF01F5801130BD01F0004545F0FE4123
:1004C00041F470014FF0000030BD7FEA645C1ABF58
:1004D000194610467FEA655C1CBF0B46024650EA8F
:1004E000013406BF52EA033591EA030F41F40021BB
:1004F00030BD00BF90F0000F04BF0021704730B541
:100500004FF4806404F132044FF000054FF0000115
:1005100050E700BF90F0000F04BF0021704730B5D6
:100520004FF4806404F1320410F0004548BF4042AB
:100530004FF000013EE700BF42004FEAE2014FEA00
:1005400031014FEA02701FBF12F07F4393F07F4FDB
:1005500081F06051704732F07F4208BF704793F0DE
:100560007F4F04BF41F40021704730B54FF46074F1
:1005700001F0004521F000411CE700BF50EA0102F4
:1005800008BF704730B54FF000050AE050EA01029D
:1005900008BF704730B511F0004502D5404261EB0D
:1005A00041014FF4806404F132045FEA915C3FF44E
:1005B000D8AE4FF003025FEADC0C18BF03325FEAEB
:1005C000DC0C18BF033202EBDC02C2F1200300FA9C
:1005D00003FC20FA02F001FA03FE40EA0E0021FAC1
:1005E00002F11444BDE600BF70B54FF0FF0C4CF4AF
:1005F000E06C1CEA11541DBF1CEA135594EA0C0F61
:1006000095EA0C0F00F0DEF82C4481EA030621EA9B
:100610004C5123EA4C5350EA013518BF52EA0335D6
:1006200041F4801143F4801338D0A0FB02CE4FF088
:100630000005E1FB02E506F00042E0FB03E54FF0B8
:100640000006E1FB03569CF0000F18BF4EF0010EB0
:10065000A4F1FF04B6F5007F64F5407404D25FEAAC
:100660004E0E6D4146EB060642EAC62141EA55515F
:100670004FEAC52040EA5E504FEACE2EB4F1FD0CA1
:1006800088BFBCF5E06F1ED8BEF1004F08BF5FEA1F
:10069000500E50F1000041EB045170BD06F00046D1
:1006A00046EA010140EA020081EA0301B4EB5C047E
:1006B000C2BFD4EB0C0541EA045170BD41F4801176
:1006C0004FF0000E013C00F3AB8014F1360FDEBF9B
:1006D000002001F0004170BDC4F10004203C35DA77
:1006E0000C341BDC04F11404C4F1200500FA05F3FA
:1006F00020FA04F001FA05F240EA020001F000429B
:1007000021F0004110EBD37021FA04F642EB060110
:100710005EEA430E08BF20EAD37070BDC4F10C043A
:10072000C4F1200500FA04F320FA05F001FA04F2FE
:1007300040EA020001F0004110EBD37041F10001EA
:100740005EEA430E08BF20EAD37070BDC4F12005F5
:1007500000FA05F24EEA020E20FA04F301FA05F25D
:1007600043EA020321FA04F001F0004121FA04F205
:1007700020EA020000EBD3705EEA430E08BF20EAD5
:10078000D37070BD94F0000F0FD101F0004640000F
:1007900041EB010111F4801F08BF013CF7D041EA91
:1007A000060195F0000F18BF704703F00046520095
:1007B00043EB030313F4801F08BF013DF7D043EA66
:1007C0000603704794EA0C0F0CEA135518BF95EA1C
:1007D0000C0F0CD050EA410618BF52EA4306D1D1A3
:1007E00081EA030101F000414FF0000070BD50EAC2
:1007F000410606BF1046194652EA430619D094EA4C
:100800000C0F02D150EA013613D195EA0C0F05D135
:1008100052EA03361CBF104619460AD181EA030189
:1008200001F0004141F0FE4141F470014FF0000041
:1008300070BD41F0FE4141F4780170BD70B54FF0DC
:10084000FF0C4CF4E06C1CEA11541DBF1CEA13555C
:1008500094EA0C0F95EA0C0F00F0A7F8A4EB05043E
:1008600081EA030E52EA03354FEA013100F0888035
:100870004FEA03334FF0805545EA131343EA1263FE
:100880004FEA022245EA111545EA10654FEA0026B3
:100890000EF000419D4208BF964244F1FD0404F56C
:1008A000407402D25B084FEA3202B61A65EB0305C8
:1008B0005B084FEA32024FF480104FF4002CB6EB85
:1008C000020E75EB030E22BFB61A754640EA0C0005
:1008D0005B084FEA3202B6EB020E75EB030E22BF45
:1008E000B61A754640EA5C005B084FEA3202B6EB86
:1008F000020E75EB030E22BFB61A754640EA9C0045
:100900005B084FEA3202B6EB020E75EB030E22BF14
:10091000B61A754640EADC0055EA060E18D04FEAD2
:10092000051545EA16754FEA06164FEAC30343EA72
:1009300052734FEAC2025FEA1C1CC0D111F4801F3F
:100940000BD141EA00014FF000004FF0004CB6E738
:1009500011F4801F04BF01430020B4F1FD0C88BFD7
:10096000BCF5E06F3FF6AFAEB5EB030C04BFB6EBE2
:10097000020C5FEA500C50F1000041EB045170BDD5
:100980000EF0004E4EEA113114EB5C04C2BFD4EB02
:100990000C0541EA045170BD41F480114FF0000E86
:1009A000013C90E645EA060E8DE60CEA135594EA02
:1009B0000C0F08BF95EA0C0F3FF43BAF94EA0C0F05
:1009C0000AD150EA01347FF434AF95EA0C0F7FF47A
:1009D00025AF104619462CE795EA0C0F06D152EACE
:1009E00003353FF4FDAE1046194622E750EA4106B2
:1009F00018BF52EA43067FF4C5AE50EA41047FF4C3
:100A00000DAF52EA43057FF4EBAE12E74FF0FF3C27
:100A100006E000BF4FF0010C02E000BF4FF0010CF8
:100A20004DF804CD4FEA410C7FEA6C5C4FEA430C71
:100A300018BF7FEA6C5C1BD001B050EA410C0CBFC0
:100A400052EA430C91EA030F02BF90EA020F002022
:100A5000704710F1000F91EA030F58BF994208BF89
:100A600090422CBFD8176FEAE37040F00100704746
:100A70004FEA410C7FEA6C5C02D150EA013C07D19D
:100A80004FEA430C7FEA6C5CD6D152EA033CD3D0E8
:100A90005DF8040B704700BF8446104662468C46E2
:100AA0001946634600E000BF01B5FFF7B7FF002815
:100AB00048BF10F1000F01BD4DF808EDFFF7F4FF3E
:100AC0000CBF012000205DF808FB00BF4DF808EDC9
:100AD000FFF7EAFF34BF012000205DF808FB00BFEC
:100AE0004DF808EDFFF7E0FF94BF012000205DF80E
:100AF00008FB00BF4DF808EDFFF7CEFF94BF0120C3
:100B000000205DF808FB00BF4DF808EDFFF7C4FFBB
:100B100034BF012000205DF808FB00BF4A0011D25D
:100B200012F5001211D20DD56FF47873B3EB625247
:100B30000ED44FEAC12343F0004343EA505323FA53
:100B400002F070474FF00000704750EA013002D1C8
:100B50004FF0FF3070474FF0000070474FEA4102FE
:100B6000B2F1E04324BFB3F5001CDCF1FE5C0DD90B
:100B700001F0004C4FEAC0024CEA5070B2F1004F55
:100B800040EB830008BF20F00100704711F0804F58
:100B900021D113F13872BCBF01F00040704741F41D
:100BA00080114FEA5252C2F11802C2F1200C10FA21
:100BB0000CF320FA02F018BF40F001004FEAC12305
:100BC0004FEAD32303FA0CFC40EA0C0023FA02F3A9
:100BD0004FEA4303CCE77FEA625307D150EA01337F
:100BE0001EBF4FF0FE4040F44000704701F000404F
:100BF00040F0FE4040F40000704700BF53B94AB9CE
:100C0000002908BF00281CBF4FF0FF314FF0FF3014
:100C100000F070B9ADF1080C6DE904CE00F006F8F3
:100C2000DDF804E0DDE9022304B070472DE9F04768
:100C3000089E0D4604460F46002B4AD18A42944630
:100C400065D9B2FA82F343B102FA03FCC3F1200280
:100C50009F4020FA02F217439C404FEA1C4E1FFAB5
:100C60008CF5B7FBFEF1220C0EFB117742EA07422E
:100C700001FB05F090420AD91CEB020201F1FF379B
:100C800080F01C81904240F2198102396244121AAC
:100C9000A4B2B2FBFEF00EFB102244EA024400FBB9
:100CA00005F5A5420AD91CEB040400F1FF3280F0DF
:100CB0000781A54240F204816444023840EA0140C1
:100CC000641B00211EB1DC400023C6E90043BDE8DF
:100CD000F0878B4208D9002E00F0ED800021C6E994
:100CE00000050846BDE8F087B3FA83F1002949D131
:100CF000AB4202D3824200F2F880841A65EB030211
:100D000001201746002EE2D0C6E90047DFE702B90E
:100D1000FFDEB2FA82F3002B40F090808A1A4FEA8D
:100D20001C471FFA8CFE0121B2FBF7F507FB1520CB
:100D3000220C42EA00420EFB05F0904208D91CEB5F
:100D4000020205F1FF3802D2904200F2CB80454604
:100D5000121AA4B2B2FBF7F007FB102244EA0244D5
:100D60000EFB00FEA64508D91CEB040400F1FF327F
:100D700002D2A64500F2BB801046A4EB0E0440EA66
:100D800005409FE7C1F120078B4022FA07FC4CEA9F
:100D9000030C05FA01F420FA07F3FD404FEA1C4961
:100DA0002343B5FBF9F81FFA8CFE09FB18551C0C00
:100DB00044EA054408FB0EF5A54202FA01F200FAE6
:100DC00001F00BD91CEB040408F1FF3A80F0888095
:100DD000A54240F28580A8F102086444641B9DB2DC
:100DE000B4FBF9F309FB134445EA044403FB0EFE8C
:100DF000A64508D91CEB040403F1FF356CD2A645C7
:100E00006AD9023B644443EA0843A3FB0295A4EB7E
:100E10000E04AC42C846AE4656D353D056B1B0EBE2
:100E2000080264EB0E0404FA07F7CA40CC401743EB
:100E3000C6E9007418460021BDE8F087C3F120011F
:100E400002FA03FC20FA01F225FA01F19D402A433F
:100E50004FEA1C471FFA8CFEB1FBF7F007FB101599
:100E6000110C41EA054100FB0EF58D4204FA03F432
:100E700008D91CEB010100F1FF382FD28D422DD98A
:100E800002386144491B92B2B1FBF7F507FB15111B
:100E900042EA014205FB0EF1914208D91CEB020225
:100EA00005F1FF3816D2914214D9023D6244521A1C
:100EB00045EA004138E73146304608E73946E6E67C
:100EC0001046FBE64845A9D2B9EB020865EB0C0ECB
:100ED000013BA3E74546EAE72B4694E74046D1E7C6
:100EE000D0467BE7023D624432E708460AE76444A5
:100EF000023842E7704700BF80B58AB004AFF8609F
:100F00000B467A60FB720023FB757B68DBB21B012A
:100F1000DBB27B75FB7A002B01D1682300E06923EB
:100F2000BB75BB7D9BB25B0099B20A230293012380
:100F3000019307F11503009301237F22F86807F05E
:100F4000F5FA0346FB75FB7D18461837BD4680BD94
:100F500080B588B004AF7860084611461A4603464B
:100F6000FB700B46BB7013467B700023FB73FB7852
:100F7000002B01D1682300E06923BB73BB7B9BB2CC
:100F80005B0099B2BB789AB20A23029301230193C2
:100F90007B1C00930123786807F0C8FA0346FB73B3
:100FA000FB7B18461037BD4680BD80B584B000AFCE
:100FB00078600B46FB701346BB700023FB73FB7815
:100FC000002219467868FFF797FF0346FB73F9780C
:100FD000802306227868FFF7BBFF0346FB73C82017
:100FE00006F0AAF8F978012306227868FFF7B0FF27
:100FF0000346FB73F978382307227868FFF7A8FFC8
:101000000346FB73FB78022219467868FFF774FFEA
:101010000346FB73BB785B005BB243F019035BB222
:10102000DBB2F97801227868FFF792FF0346FB7381
:10103000F978042300227868FFF78AFF0346FB73E0
:10104000FB78002219467868FFF756FF0346FB73CA
:10105000F97802230F227868FFF77AFF0346FB73C3
:1010600000BF1037BD4680BD80B582B000AF05F02F
:10107000F1FF00F073F900F051FD00F07BFC00F08F
:1010800043FC00F03BFB00F01FFD00F097FA00F07E
:1010900089FB00F065FA00F0BFF900F0D7FB00F023
:1010A0000DFA05F073FB032200217048FFF77DFF66
:1010B0006F4B64221A706E4B00225A806D4B0022D7
:1010C0001A706C4B00225A706B4B1A78694B9A70ED
:1010D00000237B600CE064233B7000237B80654A27
:1010E0007B689B0013443A685A607B6801337B60DD
:1010F000614B1B781A467B689342ECDB9FED5F1ACD
:10110000DFED5F0AB0EE040A5E4801F06BFA9FED76
:101110005C1ADFED5B0AB0EE040A5B4801F062FA8C
:101120009FED571ADFED560AB7EE080A574801F04F
:1011300059FA574B1B789BB21A46564956480AF043
:1011400050FB0C21554808F095FD0021544808F04B
:1011500091FD0421524808F08DFD3C21514809F0D1
:101160001DF94E4B1B684A221A644FF4967005F025
:10117000E3FF0BF003FB4C4A00214C480BF048FB0B
:1011800003464B4A13604B4A00214B480BF040FB8F
:1011900003464A4A13604A4A00214A480BF038FB8A
:1011A0000346494A1360494A002149480BF030FB85
:1011B0000346484A1360484A002148480BF028FB80
:1011C0000346474A1360474A002147480BF020FB7B
:1011D0000346464A1360464A002146480BF018FB76
:1011E0000346454A1360454A002145480BF010FB71
:1011F0000346444A1360444A002144480BF008FB6C
:101200000346434A1360434A002143480BF000FB66
:101210000346424A1360424A002142480BF0F8FA62
:101220000346414A1360414A002141480BF0F0FA5D
:101230000346404A1360404A002140480BF0E8FA58
:1012400003463F4A13603F4A00213F480BF0E0FA53
:1012500003463E4A13603E4A00213E480BF0D8FA4E
:1012600003463D4A13600BF0ADFAFEE7540200203E
:1012700018050020E404002001000020CDCC4C3FE4
:101280000000000074050020600500208805002093
:1012900000000020D804002058040020A8020020EC
:1012A00010040020F0020020B80B0108F13D0008F6
:1012B0009C040020DC0B0108A13E0008A0040020D3
:1012C000000C0108E5430008A4040020240C0108D8
:1012D000C5440008A8040020480C0108394700084C
:1012E000AC0400206C0C0108894C0008B0040020FC
:1012F000900C0108854D0008B4040020B40C0108CE
:10130000B9510008B8040020D80C0108F1550008B4
:10131000BC040020FC0C0108295A0008C00400206D
:10132000200D0108615E0008C4040020440D01087E
:10133000C9620008C8040020680D01084563000860
:10134000CC0400208C0D0108C1610008D0040020ED
:10135000B00D010805250008D404002080B594B024
:1013600000AF07F120033022002118460EF0B2F83A
:1013700007F10C0300221A605A609A60DA601A6161
:101380000023BB60224B1B6C214A43F08053136443
:101390001F4B1B6C03F08053BB60BB6800237B605A
:1013A0001C4B1B681B4A43F480431360194B1B689A
:1013B00003F480437B607B6802233B620123FB6272
:1013C00010233B630023BB6307F12003184607F09B
:1013D00051FF0346002B01D005F02CF80F23FB60D2
:1013E00000233B6100237B610023BB610023FB6181
:1013F00007F10C030021184608F0B4F90346002B4E
:1014000001D005F017F800BF5037BD4680BD00BFC2
:10141000003802400070004080B584B000AF3B4609
:1014200000221A605A609A60DA60214B214A1A60E1
:101430001F4B00225A601E4B00229A601C4B002258
:101440001A611B4B00221A76194B002283F82020C8
:10145000174B0022DA62164B174A9A62144B00228D
:10146000DA60134B0122DA61114B002283F830203D
:101470000F4B01225A610E4805F082FE0346002BF5
:1014800001D004F0D7FF0B233B6001237B600023D6
:10149000BB603B461946064806F082F90346002B1E
:1014A00001D004F0C7FF00BF1037BD4680BD00BFAC
:1014B000C4010020002001400100000F80B584B06D
:1014C00000AF3B4600221A605A609A60DA60214BF6
:1014D000214A1A601F4B00225A601E4B00229A605C
:1014E0001C4B00221A611B4B00221A76194B00225A
:1014F00083F82020174B0022DA62164B174A9A62B3
:10150000144B0022DA60134B0122DA61114B0022E6
:1015100083F830200F4B01225A610E4805F030FE4F
:101520000346002B01D004F085FF0E233B6001230E
:101530007B600023BB603B461946064806F030F945
:101540000346002B01D004F075FF00BF1037BD46E5
:1015500080BD00BF0C020020002101400100000FEF
:1015600080B500AF124B134A1A60114B124A5A60F1
:101570000F4B00229A600E4B0022DA600C4B4FF4A6
:1015800080421A610A4B00225A61094B00229A617B
:10159000074B0022DA61064B00221A62044806F06B
:1015A00081FE0346002B01D004F044FF00BF80BD44
:1015B0005402002000540040A086010080B596B07F
:1015C00000AF07F1480300221A605A609A60DA609F
:1015D00007F1400300221A605A6007F12403002239
:1015E0001A605A609A60DA601A615A619A613B1D0A
:1015F0002022002118460DF06DFF3E4B3E4A1A6036
:101600003C4B4FF4A0725A603A4B00229A60394B1F
:101610004FF47A72DA60374B00221A61354B0022A0
:101620005A61344B80229A61324808F07BFA0346B3
:10163000002B01D004F0FEFE4FF48053BB6407F191
:10164000480319462B4809F09DF90346002B01D0A9
:1016500004F0F0FE274808F0B4FA0346002B01D04E
:1016600004F0E8FE00233B6400237B6407F14003A1
:101670001946204809F0F4FE0346002B01D004F07F
:10168000D9FE60237B620023BB620023FB62002340
:101690007B630023BB630023FB6307F124030C225D
:1016A0001946144809F0ACF80346002B01D004F0A9
:1016B000C1FE00237B600023BB600023FB6000238E
:1016C0003B6100237B614FF40053BB6100233B620D
:1016D0003B1D1946074809F03FFF0346002B01D088
:1016E00004F0A8FE034805F063FB00BF5837BD4671
:1016F00080BD00BFA80200200000014080B58CB072
:1017000000AF07F10C032422002118460DF0E2FE81
:101710003B1D00221A605A60214B4FF080421A6034
:101720001F4B00225A601E4B00229A601C4B4FF642
:10173000FF72DA601A4B00221A61194B00229A617B
:101740000323FB6000233B6101237B610023BB611A
:101750000A23FB6100233B6201237B620023BB62FF
:101760000A23FB6207F10C0319460D4808F070FDCF
:101770000346002B01D004F05DFE00237B600023B4
:10178000BB603B1D1946064809F06AFE0346002B64
:1017900001D004F04FFE00BF3037BD4680BD00BF12
:1017A000F002002080B58CB000AF07F10C032422BA
:1017B000002118460DF08EFE3B1D00221A605A6073
:1017C000204B214A1A601F4B00225A601D4B0022F9
:1017D0009A601C4B4FF6FF72DA601A4B00221A61B6
:1017E000184B00229A610323FB6000233B61012315
:1017F0007B610023BB610A23FB6100233B62012361
:101800007B620023BB620A23FB6207F10C031946CB
:101810000C4808F01DFD0346002B01D004F00AFE21
:1018200000237B600023BB603B1D1946054809F07F
:1018300017FE0346002B01D004F0FCFD00BF30373B
:10184000BD4680BD380300200004004080B586B04E
:1018500000AF07F1100300221A605A603B460022D5
:101860001A605A609A60DA60254B264A1A60244B47
:101870000F225A60224B00229A60214B4FF6FF72D2
:10188000DA601F4B00221A611D4B00229A611C482E
:1018900008F0B8FA0346002B01D004F0CBFD00237A
:1018A0003B6100237B6107F110031946144809F0DE
:1018B000D7FD0346002B01D004F0BCFD00233B60A4
:1018C00001237B600023BB600023FB603B460422B6
:1018D00019460B4808F0F8FE0346002B01D004F02F
:1018E000A9FD3B4600221946054808F0EDFE0346D7
:1018F000002B01D004F09EFD00BF1837BD4680BD0F
:10190000800300200008004080B582B000AF3B4655
:1019100000221A605A60154B154A1A60134B0022B8
:101920005A60124B00229A60104B4FF6FF72DA6039
:101930000E4B00229A610D4808F0F4F80346002B84
:1019400001D004F077FD00233B6000237B603B4621
:101950001946064809F084FD0346002B01D004F027
:1019600069FD00BF0837BD4680BD00BFC803002029
:101970000010004080B596B000AF07F14803002288
:101980001A605A609A60DA6007F1400300221A6018
:101990005A6007F1240300221A605A609A60DA60E4
:1019A0001A615A619A613B1D2022002118460DF0F0
:1019B00091FD434B434A1A60414B00225A60404B11
:1019C00000229A603E4B41F61F42DA603C4B0022F7
:1019D0001A613B4B00225A61394B00229A61384808
:1019E00008F0A0F80346002B01D004F023FD4FF4CB
:1019F0008053BB6407F148031946314808F0C2FF21
:101A00000346002B01D004F015FD2D4808F0D9F84D
:101A10000346002B01D004F00DFD00233B6400239E
:101A20007B6407F140031946254809F019FD034678
:101A3000002B01D004F0FEFC60237B620023BB621C
:101A40000023FB6200233B6300237B630023BB6313
:101A50000023FB6307F1240300221946184808F00D
:101A6000CFFE0346002B01D004F0E4FC07F1240371
:101A700004221946124808F0C3FE0346002B01D089
:101A800004F0D8FC00237B600023BB600023FB60D4
:101A900000233B6100237B614FF40053BB610023B3
:101AA0003B623B1D1946064809F056FD0346002BD4
:101AB00001D004F0BFFC00BF5837BD4680BD00BF59
:101AC000100400200004014080B500AF114B124A01
:101AD0001A60104B4FF4E1325A600E4B00229A60AC
:101AE0000C4B0022DA600B4B00221A61094B0C22CE
:101AF0005A61084B00229A61064B0022DA610548C0
:101B000009F090FD0346002B01D004F093FC00BFC8
:101B100080BD00BF580400200048004080B58CB054
:101B200000AF07F11C0300221A605A609A60DA6065
:101B30001A610023BB615B4B1B6B5A4A43F01003D5
:101B40001363584B1B6B03F01003BB61BB6900238D
:101B50007B61544B1B6B534A43F080031363514B1F
:101B60001B6B03F080037B617B6900233B614D4B62
:101B70001B6B4C4A43F0040313634A4B1B6B03F08B
:101B800004033B613B690023FB60464B1B6B454AEA
:101B900043F001031363434B1B6B03F00103FB6032
:101BA000FB680023BB603F4B1B6B3E4A43F00203C4
:101BB00013633C4B1B6B03F00203BB60BB68002349
:101BC0007B60384B1B6B374A43F008031363354B7C
:101BD0001B6B03F008037B607B6800224FF4BC6141
:101BE000314806F045FB00223C21304806F040FB1E
:101BF00000224FF482612E4806F03AFB00224FF497
:101C000000512C4806F034FB4FF4BC63FB61012308
:101C10003B6200237B620023BB6207F11C03194671
:101C2000214806F089F93C23FB6101233B62002334
:101C30007B620223BB6207F11C0319461B4806F0B6
:101C40007BF94FF48263FB6101233B6200237B62DB
:101C50000023BB6207F11C031946154806F06CF916
:101C60004FF48073FB614FF404133B6200237B62EB
:101C700007F11C0319460F4806F05EF94FF40053B4
:101C8000FB6101233B6200237B620023BB6207F1FF
:101C90001C031946074806F04FF900BF3037BD4610
:101CA00080BD00BF0038024000100240000002402A
:101CB00000040240000C024080B58AB000AF78609A
:101CC0008F4B9B78A3F1300213469B0013445B00BB
:101CD0001A468B4BDB78303B13447B62884B5B7836
:101CE0002F2B0CD9864B5B78392B08D8844B5B782B
:101CF000303B642202FB03F37A6A13447B62814B1C
:101D000000221A707E4B1B78532B59D17C4B5B7889
:101D1000542B55D17C4B1B6800225A637A4B1B68AD
:101D200000229A63794B1A78794B1A70774B0B2201
:101D30001A70784B4FF000021A60774B00221A801D
:101D4000764800F070FC764800F06DFC754800F0B5
:101D50006AFC754B00221A80744B1A78734B5B78BF
:101D60009A4212D1724B64221A70714B00225A802F
:101D7000704A0F2170480DF059FB4FF6FF73062291
:101D80006E496F4809F09BFC07E3684B5B78684A33
:101D900066499B000B445B681360644B5B780133BE
:101DA000624A927893FBF2F101FB02F29B1ADAB2DB
:101DB0005E4B5A70634A0F215F480DF037FBECE22F
:101DC0004F4B1B78462B3DD14D4B5B78572B03D0A7
:101DD0004B4B5B78532B35D1494B9B782D2B05D141
:101DE000474BDB782D2B01D1012300E00023DAB231
:101DF000444B1A70424B5B78532B14BF01230023D2
:101E0000DBB21A46504B1A70484B1B78474A9B006E
:101E1000134401221A71454B1B787A6A91B2434AE6
:101E20009B0013440A46DA80404B1B7801333F4A3B
:101E3000927893FBF2F101FB02F29B1ADAB23B4B70
:101E40001A70AAE22E4B1B78422B3DD12C4B5B78AB
:101E5000572B03D02A4B5B78532B35D1284B9B78DB
:101E60002D2B05D1264BDB782D2B01D1012300E052
:101E70000023DAB2234B1A70214B5B78532B14BF2B
:101E800001230023DBB21A462F4B1A70274B1B7815
:101E9000264A9B00134402221A71244B1B787A6A4B
:101EA00091B2224A9B0013440A46DA801F4B1B78EA
:101EB00001331E4A927893FBF2F101FB02F29B1A66
:101EC000DAB21A4B1A7068E20D4B1B78462B5CD1C4
:101ED0000B4B5B784C2B58D1094B9B782D2B05D1A4
:101EE000074BDB782D2B01D1012300E00023DAB270
:101EF000044B1A70034B1B78002B27D0032126E0DC
:101F0000D80400203C0500201004002034010020EB
:101F100035010020440500204A05002074050020FA
:101F2000600500208805002058050020E4040020FA
:101F300018050020400B01081C050020480B010873
:101F400058040020500B01083601002007218D4B5A
:101F50001B788C4A9B0013440A461A71894B1B78E4
:101F60007A6A91B2874A9B0013440A46DA80854B0D
:101F70001B780133834A927893FBF2F101FB02F262
:101F80009B1ADAB27F4B1A7007E27F4B1B78462B05
:101F900036D17D4B5B78522B32D17B4B9B782D2BEE
:101FA00005D1794BDB782D2B01D1012300E00023F3
:101FB000DAB2764B1A70754B1B78002B01D00421D6
:101FC00000E008216F4B1B786E4A9B0013440A46C1
:101FD0001A716C4B1B787A6A91B26A4A9B0013445F
:101FE0000A46DA80674B1B780133664A927893FB86
:101FF000F2F101FB02F29B1ADAB2624B1A70CCE1E9
:10200000614B1B78422B36D15F4B5B784C2B32D126
:102010005D4B9B782D2B05D15B4BDB782D2B01D1B4
:10202000012300E00023DAB2584B1A70574B1B789B
:10203000002B01D0052100E00921524B1B78514AA9
:102040009B0013440A461A714E4B1B787A6A91B270
:102050004C4A9B0013440A46DA804A4B1B780133F2
:10206000484A927893FBF2F101FB02F29B1ADAB232
:10207000444B1A7091E1444B1B78422B36D1424BB2
:102080005B78522B32D1404B9B782D2B05D13E4BA8
:10209000DB782D2B01D1012300E00023DAB23B4B8A
:1020A0001A703A4B1B78002B01D0062100E00A2160
:1020B000344B1B78334A9B0013440A461A71314B48
:1020C0001B787A6A91B22F4A9B0013440A46DA8041
:1020D0002C4B1B7801332B4A927893FBF2F101FBD6
:1020E00002F29B1ADAB2274B1A7056E1264B1B7884
:1020F000542B21D1244B5B784C2B1DD1214B1B78C9
:10210000204A9B0013440B221A711E4B1B787A6ADB
:1021100091B21C4A9B0013440A46DA80194B1B7883
:102120000133184A927893FBF2F101FB02F29B1AF9
:10213000DAB2144B1A7030E1134B1B78542B27D1B1
:10214000114B5B78522B23D10E4B1B780D4A9B0011
:1021500013440C221A710B4B1B787A6A91B2094A0C
:102160009B0013440A46DA80064B1B780133054A6C
:10217000927893FBF2F101FB02F29B1ADAB2014B67
:102180001A700AE1E4040020D80400203C05002075
:102190006F4B1B78492B21D16D4B5B78522B1DD196
:1021A0006C4B1B786B4A9B0013440D221A71694BD0
:1021B0001B787A6A91B2674A9B0013440A46DA8018
:1021C000644B1B780133634A927893FBF2F101FB75
:1021D00002F29B1ADAB25F4B1A70DEE05C4B1B789E
:1021E000442B21D15A4B5B78542B1DD1594B1B7872
:1021F000584A9B0013440E221A71564B1B787A6A78
:1022000091B2544A9B0013440A46DA80514B1B7822
:102210000133504A927893FBF2F101FB02F29B1AD0
:10222000DAB24C4B1A70B8E0494B1B785A2B21D1CB
:10223000474B5B785A2B1DD1464B1B78454A9B0078
:1022400013440F221A71434B1B787A6A91B2414AA8
:102250009B0013440A46DA803E4B1B7801333D4A0B
:10226000927893FBF2F101FB02F29B1ADAB2394B3E
:102270001A7092E0364B1B78572B21D1344B5B7888
:10228000582B1DD1334B1B78324A9B00134410222C
:102290001A71304B1B787A6A91B22E4A9B00134414
:1022A0000A46DA802B4B1B7801332A4A927893FB3B
:1022B000F2F101FB02F29B1ADAB2264B1A706CE0C3
:1022C000234B1B78572B21D1214B5B784E2B1DD1F3
:1022D000204B1B781F4A9B00134411221A711D4B7F
:1022E0001B787A6A91B21B4A9B0013440A46DA8033
:1022F000184B1B780133174A927893FBF2F101FBDC
:1023000002F29B1ADAB2134B1A7046E0104B1B789C
:10231000412B21D10F4B1B780E4A9B0013445822AE
:102320001A710C4B1B787A6A91B20A4A9B001344CB
:102330000A46DA80074B1B780133064A927893FBF2
:10234000F2F101FB02F29B1ADAB2024B1A7024E09E
:10235000D8040020E4040020454B1B78432B1CD1FB
:10236000444B1B78434A9B00134459221A71414B3A
:102370001B787A6A91B23F4A9B0013440A46DA807E
:102380003C4B1B7801333B4A927893FBF2F101FB03
:1023900002F29B1ADAB2374B1A70364B1A78354B69
:1023A0005B789A4219D0334B5B78334A31499B00B2
:1023B0000B445B6813602F4B5B7801332D4A927896
:1023C00093FBF2F101FB02F29B1ADAB2294B5A702D
:1023D0002A4A0F212A480DF029F82A4B1B685B680E
:1023E000294B1B789BB21A462149264809F0F9F976
:1023F0001F4B1B7887F823301D4B5B7887F8223002
:102400001B4B9B782D2B08D1194BDB78312B04D13A
:102410001E4B4FF0FF321A600DE0154B5B88BB83FB
:102420000023BB7707F11C0318460CF06FFF03462F
:102430001A46164B1A60164A97F823301370154A3D
:1024400097F822301370134B1B781A460F4B1B68FA
:1024500007F1080010490DF01DF807F108031A46AE
:102460000A210A2004F060F900BF2837BD4680BD6C
:10247000D8040020E404002018050020500B0108B7
:102480001C0500205804002000000020E405002066
:10249000E9050020E8050020580B010880B500AFD1
:1024A000094804F0B1FE0A21074804F0B2FF0648CB
:1024B00005F04AF903469AB2044B1A80024804F028
:1024C00075FF00BF80BD00BFC4010020DC050020F7
:1024D00080B500AF094804F097FE0A21074804F0D0
:1024E00098FF064805F030F903469AB2044B1A806B
:1024F000024804F05BFF00BF80BD00BF0C0200205B
:10250000DE05002080B588B000AF78600023FB6056
:1025100007F1100300221A605A609A60DA604FF6E1
:10252000FF7307222549264809F0C9F8254B1B8867
:102530001A46254B1B8807F10C0024490CF0AAFF12
:1025400007F10C031A461E21002004F0EDF8204B81
:102550001B68012B04D11F4B1B6818460BF0B0F908
:10256000FFF79CFFFFF7B4FF1B4B5B784C2B0BD1A5
:102570001A4B1B88A3F2F313124A1288934203DD0D
:10258000174B1B68012B0FD0134B5B78522B10D1CC
:10259000124B1B88A3F2F3130B4A1288934208DDF7
:1025A0000F4B1B68012B04D10D4B00221A6003F066
:1025B0006BFE4FF4FA600AF0BDF9B0E7640B010856
:1025C00058040020DC050020DE0500206C0B01080B
:1025D00040010020D4040020D80400203E01002047
:1025E000E005002080B485B000AFF86087ED020AF6
:1025F000C7ED010A87ED001AFB68BA681A60FB682C
:102600007A685A60FB683A689A60FB684FF000028B
:10261000DA60FB684FF000021A6100BF1437BD4654
:102620005DF8047B704780B483B000AF78607B684E
:102630004FF00002DA607B684FF000021A6100BFC1
:102640000C37BD465DF8047B7047000080B586B04E
:1026500004AF0346FB714FF6FF730293022301930D
:10266000A94B009301233722D021A84806F058F83F
:10267000A54B1B781B021AB2A34B5B781BB213430A
:102680001AB2A34B1A80A34B1B681B6803F01003FC
:10269000102B01D1012201E04FF0FF329E4B1A7046
:1026A0009B4BB3F9003013F1040F04DB984BB3F9E3
:1026B00000300B2B07DD964BB3F9003007EE903A54
:1026C000F8EEE77A01E0DFED957A954B93ED007A2D
:1026D00077EE877A924BC3ED007AFB79002B64D1B9
:1026E000904B93ED007A8E4BD3ED007A27EE277A4C
:1026F0008C4BD3ED016A8B4BD3ED047A66EEA77A4F
:1027000037EE277A874BD3ED026A864B93ED036A47
:10271000834BD3ED007A76EE677A66EEA77A77EE92
:10272000277AFDEEE77A17EE902A7F4B1A607C4BF2
:102730001B687C4AD3607B4B93ED047A784BD3EDD6
:10274000007A77EE277A774BC3ED047A764B1B68D5
:10275000B3F5167F06DC744B1B68744A9342B8BF0E
:10276000134601E04FF416736F4A13606A4B93F9F6
:1027700000309AB26C4B1B689BB212FB03F39BB206
:1027800003F596639AB26A4B1A80634B93F9003053
:102790009AB2654B1B689BB212FB03F39BB2C3F565
:1027A00096639AB2634B1A80EFE0FB79022B65D1F6
:1027B000614B93ED007A5A4BD3ED007A27EE277ADE
:1027C0005D4BD3ED016A5C4BD3ED047A66EEA77ADC
:1027D00037EE277A584BD3ED026A574B93ED036AD5
:1027E0004F4BD3ED007A76EE677A66EEA77A77EEF6
:1027F000277AFDEEE77A17EE902A4B4B1A60484B8A
:102800001B684D4AD3604C4B93ED047A444BD3ED97
:10281000007A77EE277A484BC3ED047A424B1B6867
:10282000B3F52F7F06DC404B1B68444A9342B8BF88
:10283000134601E04FF42F733B4A1360364B93F974
:1028400000309AB2384B1B689BB212FB03F39BB269
:1028500003F6B8339AB2364B1A802F4B93F90030F7
:102860009AB2314B1B689BB212FB03F39BB2C3F5C8
:102870003B6308339AB22F4B1A8086E0FB79012B19
:1028800040F083802E4B93ED007A254BD3ED007AF8
:1028900027EE277A2A4BD3ED016A294BD3ED047A30
:1028A00066EEA77A37EE277A254BD3ED026A244BE2
:1028B00093ED036A1A4BD3ED007A76EE677A66EEF3
:1028C000A77A77EE277AFDEEE77A17EE902A164B75
:1028D0001A60134B1B681A4AD360194B93ED047AA4
:1028E0000F4BD3ED007A77EE277A154BC3ED047AC0
:1028F0000D4B1B68B3F52F7F24DC0B4B1B680F4A75
:102900009342B8BF13461FE0480500205402002040
:102910004A050020F00200204401002000000000D1
:102920004405002074050020F4050020A8FDFFFFE9
:102930004C0500204E0500208805002044FDFFFFC7
:10294000600500204FF42F73174A1360174B93F95B
:1029500000309AB2144B1B689BB212FB03F39BB27C
:1029600003F6FC039AB2124B1A80104B93F9003015
:102970009AB20D4B1B689BB212FB03F39BB2C3F5DB
:102980000F630C339AB20B4B1A80094B1A880A4B0F
:102990001B685A63074B1A88074B1B689A6300BF72
:1029A0000837BD4680BD00BFF4050020440100206B
:1029B0004C0500204E0500201004002080B586B094
:1029C00004AF03463960FB714FF6FF730293022395
:1029D00001939B4B009301233722D021994805F0A6
:1029E0009FFE974B1B781B021AB2954B5B781BB26C
:1029F00013431AB2944B1A80944B1B681B6803F064
:102A00001003102B01D1012201E04FF0FF32904B57
:102A10001A708D4BB3F9003013F1040F04DB8A4BAD
:102A2000B3F900300B2B07DD874BB3F9003007EE0D
:102A3000903AF8EEE77A01E0DFED867A864B93ED87
:102A4000007A77EE877A844BC3ED007AFB79012B0D
:102A500065D1824B93ED007A7F4BD3ED007A27EE60
:102A6000277A7E4BD3ED016A7C4BD3ED047A66EE78
:102A7000A77A37EE277A794BD3ED026A774B93ED3D
:102A8000036A754BD3ED007A76EE677A66EEA77A25
:102A900077EE277AFDEEE77A17EE902A704B1A60F0
:102AA0006D4B1B686D4AD3606C4B93ED047A6A4B97
:102AB000D3ED007A77EE277A684BC3ED047A684B42
:102AC0001B68B3F52F7F06DC654B1B68654A934294
:102AD000B8BF134601E04FF42F73614A13605C4B9B
:102AE00093F900309AB25E4B1B689BB212FB03F362
:102AF0009BB203F6FC039AB25B4B1A80544B93F9DA
:102B000000309AB2564B1B689BB212FB03F39BB288
:102B1000C3F50F630C339AB2544B1A8067E0FB790C
:102B2000022B64D1524B93ED007A4B4BD3ED007ADC
:102B300027EE277A4E4BD3ED016A4D4BD3ED047A45
:102B400066EEA77A37EE277A494BD3ED026A484BF7
:102B500093ED036A404BD3ED007A76EE677A66EE2A
:102B6000A77A77EE277AFDEEE77A17EE902A3C4BAC
:102B70001A60394B1B683E4AD3603D4B93ED047A93
:102B8000354BD3ED007A77EE277A394BC3ED047AD3
:102B9000334B1B68B3F52F7F06DC314B1B68314A82
:102BA0009342B8BF134601E04FF42F732C4A1360D1
:102BB000274B93F900309AB2294B1B689BB212FB4A
:102BC00003F39BB203F6B8339AB2274B1A80204B1B
:102BD00093F900309AB2224B1B689BB212FB03F3AD
:102BE0009BB2C3F53B6308339AB2204B1A801E4B4D
:102BF0001B8807EE903AB8EEE77A3B68D3ED007A8F
:102C000067EE277A1B4B1B68FCEEE77A17EE902ADB
:102C10005A63164B1B8807EE903AB8EEE77A3B688A
:102C2000D3ED007A67EE277A124B1B68FCEEE77A49
:102C300017EE902A9A6300BF0837BD4680BD00BFDB
:102C400048050020540200204A050020F002002020
:102C50004401002000000000440500206005002021
:102C6000F405002044FDFFFF4C0500204E05002028
:102C7000880500201004002080B584B000AF786083
:102C80000B46FB701346BB70A14B4FF000021A605D
:102C9000A04B00221A80A048FFF7C5FC9F48FFF711
:102CA000C2FC9F48FFF7BFFC9E4B00221A807B6846
:102CB0001B681846FDF740FC8FA3D3E90023FDF7FE
:102CC00093FC02460B46104619468DA3D3E9002318
:102CD000FDF7D2FA02460B46104619464FF00002A5
:102CE000914BFDF7ABFD02460B46104619464FF0DF
:102CF00000028E4BFDF778FC02460B461046194643
:102D00004FF000028A4BFDF7B7FA02460B46104619
:102D10001946FDF703FF03469AB2864B1A8004F06A
:102D2000FFF90346844A1360FB78002B0CBF012394
:102D30000023DBB21A460421804805F099FAFB789B
:102D4000002B14BF01230023DBB21A4608217B4865
:102D500005F08EFAFB78002B0CBF01230023DBB2B9
:102D60001A462021754805F083FAFB78002B14BF22
:102D700001230023DBB21A461021704805F078FACF
:102D80006F4B1B685B6A9AB26E4B1A806C4B1B6868
:102D90005B6AFB606A4B1B681B6803F01003102B17
:102DA00017D1684B1B881A46FB68934206D8654BBF
:102DB0001A88FB689BB2D31A9BB207E0614B1A8852
:102DC000FB689BB2D31A9BB2013B9BB25E4A138055
:102DD00016E05C4B1B881A46FB68934206D3FB68DF
:102DE0009AB2584B1B88D31A9BB207E0FB689AB281
:102DF000544B1B88D31A9BB2013B9BB2524A13809F
:102E0000FB689AB24F4B1A80464B1A884E4B1B8870
:102E100013449AB2434B1A80424B1A88454B1B8885
:102E20009A4280F0A88004F07BF90246424B1B686E
:102E3000D31A092BAAD9BB78002B03D10020FFF7A6
:102E400005FC92E0374B1B881A463A4B1B88D31A75
:102E5000002BB8BF5B423D4A82FB0312D211DB1745
:102E6000D31A07EE903AF8EEE77A394BC3ED007AC1
:102E7000BB78012B1ED1364BD3ED007AB7EE007A2A
:102E8000F4EEC77AF1EE10FA02DD4FF07E530EE059
:102E90002F4BD3ED007AB6EE087AF4EEC77AF1EE56
:102EA00010FA02D54FF07D5301E0294B1B68284AE8
:102EB000136055E0BB78022B52D1254BD3ED007A3D
:102EC000B7EE007AF4EEC77AF1EE10FA02DD4FF0B9
:102ED0007E5343E01E4B1B681846FDF72DFB0AA3EB
:102EE000D3E90023FDF7F2FD0346002B34D0194B44
:102EF00034E000BFAFF300802AB266FCAC66F23F5C
:102F0000F82625BBD4E3EE3F9A9999999999D93F30
:102F1000440500204A0500207405002060050020BB
:102F200088050020580500200000344000A094408F
:102F3000000024405A0500205005002000000240F7
:102F4000F00200205E0500205C0500206757192173
:102F500038010020CDCCCC3E0D4B1B680C4A1360D1
:102F6000BB780B491846FFF729FD04F0D9F8034652
:102F7000084A13600AE700BF074B1B6800225A6328
:102F8000054B1B6800229A6300BF1037BD4680BD09
:102F9000380100205005002010040020000000002F
:102FA00080B582B000AF78600B46FB70AA4B4FF043
:102FB00000021A60A94B00221A80A948FFF733FBD0
:102FC000A848FFF730FBA848FFF72DFBA74BA84AFE
:102FD0001A600421A74806F065FF04F0A1F8034633
:102FE000A54A136001221021A44805F041F9A14B24
:102FF0001B6800225A629F4B1B685B6A092BFAD937
:10300000002210219D4805F033F99A4B1B68DA68BD
:10301000984B1B6842F00402DA600A2009F08AFC2F
:103020007B6893ED007A914BD3ED007A77EE677A67
:10303000FDEEE77A17EE903A002B0EDB7B6893EDFE
:10304000007A8A4BD3ED007A77EE677AFDEEE77A65
:1030500017EE903A002B40F3E7807B6893ED007AFF
:10306000824BD3ED007AB4EEE77AF1EE10FA94BF1A
:1030700001230023DBB283F00103DBB2DBB21A468B
:1030800004217F4805F0F4F87B6893ED007A774BD4
:10309000D3ED007AB4EEE77AF1EE10FA94BF012393
:1030A0000023DBB21A460821754805F0E1F87B6879
:1030B00093ED007A6D4BD3ED007AB4EEE77AF1EE42
:1030C00010FA94BF01230023DBB283F00103DBB2CB
:1030D000DBB21A4620216A4805F0CAF87B6893EDF6
:1030E000007A624BD3ED007AB4EEE77AF1EE10FA93
:1030F00094BF01230023DBB21A461021604805F07B
:10310000B7F804F00DF802465B4B1B68D31A132B7B
:103110007FF668AFFB78012B3FD1544B93ED007ADB
:103120007B68D3ED007A77EE677AFDEEE77A17EEEB
:10313000903A002BB8BF5B42524A82FB03121A44FA
:10314000D210DB17D31A07EE903AF8EEE77A4E4B1F
:10315000C3ED007A4C4BD3ED007AB7EE007AF4EE73
:10316000C77AF1EE10FA02DD4FF07E530EE0464BC7
:10317000D3ED007AB6EE087AF4EEC77AF1EE10FAE3
:1031800002D54FF07D5301E03F4B1B683E4A136070
:103190003D490120FFF712FC40E0344B93ED007AEB
:1031A0007B68D3ED007A77EE677AFDEEE77A17EE6B
:1031B000903A002BB8BF5B42324A82FB03121A449A
:1031C000D210DB17D31A07EE903AF8EEE77A2E4BBF
:1031D000C3ED007A2C4BD3ED007AB7EE007AF4EE13
:1031E000C77AF1EE10FA02DD4FF07E5310E0264B65
:1031F0001B681846FDF7A0F915A3D3E90023FDF7D6
:1032000065FC0346002B01D0204B01E01E4B1B68E0
:103210001D4A13601C490220FFF7D0FB03F080FF1A
:103220000346154A1360DDE600BF194B1B680022F8
:103230005A63174B1B6800229A6304210D4806F05D
:1032400059FF00BF0837BD4680BD00BFAFF3008007
:103250009A9999999999D93F440500204A050020E7
:10326000740500206005002088050020A4050020CA
:1032700000007A4480030020500500200004024032
:10328000000002408988888838010020CDCCCC3EDF
:10329000100400200000000080B582B000AF78600C
:1032A000A14B00221A80A14B00221A60A04BA14A18
:1032B0001A6003F035FF03469F4A13609F4803F0EE
:1032C000A3FF14219D4804F0A4F89C4804F03CFAA4
:1032D0000246964B1B681344944A1360924B1B881A
:1032E0000133974A82FB03125111DA178A1A6421BB
:1032F00001FB02F29A1A92B28B4B1A808A4B1B88FE
:10330000632B29D1894B1B68874A1288B3FBF2F3E0
:103310001846FDF7EFF87EA3D3E90023FCF7ACFFD6
:1033200002460B467CA1D1E90001FDF787FA02466F
:103330000B4610461946FDF711FC03467C4A136004
:103340007A4B1B68784A1288B3FBF2F39AB27D4B32
:103350001A80764B00221A607B68D3ED007AF5EE76
:10336000C07AF1EE10FA1CDD7B6893ED007A704BA9
:10337000D3ED007A77EE677AFDEEE77A17EE903AB2
:10338000002B0EDB7B6893ED007A694BD3ED007A5E
:1033900077EE677AFDEEE77A17EE903A002B40F36E
:1033A000A4807B6893ED007A614BD3ED007AB4EE94
:1033B000E77AF1EE10FA94BF01230023DBB283F029
:1033C0000103DBB2DBB21A4604215F4804F050FF70
:1033D0007B6893ED007A564BD3ED007AB4EEE77A32
:1033E000F1EE10FA94BF01230023DBB21A46082144
:1033F000554804F03DFF7B6893ED007A4C4BD3EDCC
:10340000007AB4EEE77AF1EE10FA94BF01230023BC
:10341000DBB283F00103DBB2DBB21A4620214A485B
:1034200004F026FF7B6893ED007A414BD3ED007AE0
:10343000B4EEE77AF1EE10FA94BF01230023DBB279
:103440001A461021404804F013FF03F069FE0246BB
:10345000394B1B68D31A092B7FF630AF344B93EDF1
:10346000007A7B68D3ED007A77EE677AFDEEE77A33
:1034700017EE903A002BB8BF5B42344A82FB03122E
:103480001A44D210DB17D31A07EE903AF8EEE77A17
:103490002F4BC3ED007A2E4BD3ED007AB7EE007AB6
:1034A000F4EEC77AF1EE10FA02DD4FF07E5310E031
:1034B000274B1B681846FDF73FF819A3D3E90023F3
:1034C000FDF704FB0346002B01D0224B01E0204B0B
:1034D0001B681F4A13601E490220FFF76FFA03F0B2
:1034E0001FFE0346144A1360E8E600BF1A4B1B6830
:1034F00000225A63184B1B6800229A630F4803F09E
:1035000055FF00BF0837BD4680BD00BFAFF3008048
:10351000D32357FBC546704066834C32340BD940E9
:10352000333333333333D33FA8050020AC050020B9
:10353000A005002000007A4450050020C4010020AE
:103540001F85EB519C050020000002408988888877
:10355000380100209A99993E1004002000000000D4
:10356000B0B586B004AF78604B4B4FF000021A60E4
:103570004A4B00221A8003F0D3FD0346484A1360E9
:1035800003F0CEFD0246464B1B68D31A092BF7D930
:103590004FF6FF73029302230193424B00930123E2
:1035A0003722D021404805F0BBF83E4B1B781B0268
:1035B0001AB23C4B5B781BB213431AB2374B1A80DA
:1035C000354B1B681846FCF7B7FF04460D46334BD6
:1035D000B3F900301846FCF79DFF2BA3D3E9002375
:1035E000FDF72CF902460B461046194628A3D3E9ED
:1035F0000023FCF7F9FF02460B4620462946FCF75C
:103600003DFE02460B4610461946FDF7A7FA034653
:10361000214A1360204B93ED007A7B68D3ED007A4A
:1036200077EE677AFDEEE77A17EE903A002B0DDB26
:10363000194B93ED007A7B68D3ED007A77EE677AC9
:10364000FDEEE77A17EE903A002B05DD03F068FDFA
:103650000346134A136093E700BF144B1B68002214
:103660005A63124B1B6800229A63114B1B684A2253
:103670001A644FF4967003F05FFD00BF0837BD4633
:10368000B0BD00BFAFF30080666666666666304018
:103690007B14AE47E17A843F440500204A050020B0
:1036A000500500204805002054020020100400208E
:1036B000A802002000000000B0B586B004AF78601A
:1036C000494B4FF000021A60484B00221A8003F069
:1036D00027FD0346464A136003F022FD0246444B91
:1036E0001B68D31A092BF7D94FF6FF7302930223F5
:1036F0000193404B009301233722D0213E4805F02F
:103700000FF83C4B1B781B021AB23A4B5B781BB28A
:1037100013431AB2354B1A80334B1B681846FCF71B
:103720000BFF04460D46314BB3F900301846FCF749
:10373000F1FE29A3D3E90023FDF780F802460B46EA
:103740001046194626A3D3E90023FCF74DFF024695
:103750000B4620462946FCF791FD02460B461046D3
:103760001946FDF7FBF903461F4A13601E4B93ED04
:10377000007A7B68D3ED007A77EE677AFDEEE77A20
:1037800017EE903A002B0DDB174B93ED007A7B6818
:10379000D3ED007A77EE677AFDEEE77A17EE903A8E
:1037A000002B05DD03F0BCFC0346114A136093E7D0
:1037B00000BF124B1B6800225A63104B1B6800228B
:1037C0009A630F4B1B684A221A64C82003F0B4FCAA
:1037D00000BF0837BD46B0BD6666666666663040A7
:1037E0007B14AE47E17A843F440500204A0500205F
:1037F000500500204805002054020020100400203D
:10380000A802002080B500AF164B174A1A60174B6C
:103810001B6873221A644FF4967003F08DFC00222B
:103820000421134804F024FD01220821104804F06B
:103830001FFD002220210E4804F01AFD0122102154
:103840000B4804F015FD0B4B1B6840F6B8325A6369
:10385000084B1B684FF448729A630248FFF780FEDA
:1038600000BF80BD400500200000ACC2A8020020BF
:10387000000002401004002080B500AF164B174A2C
:103880001A60174B1B6873221A644FF4967003F08A
:1038900053FC00220421134804F0EAFC0122082111
:1038A000104804F0E5FC002220210E4804F0E0FC62
:1038B000012210210B4804F0DBFC0B4B1B6840F687
:1038C000B8325A63084B1B684FF448729A63024837
:1038D000FFF746FE00BF80BD40050020000030C35A
:1038E000A8020020000002401004002080B582B031
:1038F00000AF786000220421254804F0B9FC0122C1
:103900000821234804F0B4FC00222021204804F0C0
:10391000AFFC012210211E4804F0AAFC7B681B7832
:10392000012B01D0032B15D11A4B1B4A1A601B4BDC
:103930001B6832221A644FF4967003F0FDFB184B9B
:103940001B684FF4FA625A63154B1B6840F6AC5281
:103950009A6315E00F4B104A1A60104B1B68342213
:103960001A644FF4967003F0E7FB0D4B1B6840F6AA
:10397000B8325A630A4B1B6840F6AC529A6300BFD8
:103980000448FFF799FE00BF0837BD4680BD00BF61
:1039900000000240400500200000A642A8020020CE
:1039A0001004002080B582B000AF786000220421AE
:1039B000304804F05DFC012208212E4804F058FC38
:1039C000002220212B4804F053FC01221021294819
:1039D00004F04EFC7B681B78012B02D0032B16D021
:1039E0002BE0254B254A1A60254B1B6832221A64AE
:1039F0004FF4967003F0A0FB224B1B684FF4FA6261
:103A00005A63204B1B6840F6AC529A632BE01A4B6A
:103A10001D4A1A601A4B1B6832221A644FF49670C2
:103A200003F08AFB174B1B684FF4FA625A63154B7D
:103A30001B6840F6AC529A6315E00F4B134A1A60AC
:103A40000F4B1B6834221A644FF4967003F074FB1A
:103A50000C4B1B6840F6B8325A630A4B1B6840F6A1
:103A6000AC529A6300BF0448FFF726FE00BF083738
:103A7000BD4680BD00000240400500200000A64277
:103A8000A8020020100400200000AA4200009E426C
:103A900080B582B000AF786000220421254804F090
:103AA000E7FB01220821234804F0E2FB0022202149
:103AB000204804F0DDFB012210211E4804F0D8FB51
:103AC0007B681B78012B01D0032B15D11A4B1B4AA5
:103AD0001A601B4B1B6873221A644FF4967003F034
:103AE0002BFB184B1B6840F6AC525A63154B1B68F6
:103AF0004FF4FA629A6315E00F4B134A1A60104BA9
:103B00001B6862221A644FF4967003F015FB0D4B8C
:103B10001B6840F6AC525A630A4B1B6840F6A84239
:103B20009A6300BF0448FFF7C7FD00BF0837BD46D2
:103B300080BD00BF000002404005002000002CC3F3
:103B4000A80200201004002000002AC3000000008A
:103B500080B500AF464B4FF000021A60454B4FF066
:103B600000021A60444B00221A8003F0D9FA03467F
:103B7000424A1360424803F047FB1421404803F0D7
:103B800048FC3F4803F0E0FD02463E4B1B681344EF
:103B90003C4A13603C4B1B8801333C4A82FB0312B6
:103BA0005111DA178A1A642101FB02F29A1A92B2B1
:103BB000354B1A80344B1B88632B29D1314B1B6842
:103BC000314A1288B3FBF2F31846FCF793FC24A3A6
:103BD000D3E90023FCF750FB02460B4622A1D1E9B2
:103BE0000001FCF72BFE02460B4610461946FCF777
:103BF000B5FF03461E4A1360224B1B68224A1288F7
:103C0000B3FBF2F39AB2224B1A801E4B00221A60C9
:103C1000174BD3ED007A9FED1F7AF4EEC77AF1EEE1
:103C200010FA10DC03F07CFA0246144B1B68D31A1E
:103C3000092B9FD90220FEF709FD03F071FA034614
:103C40000E4A136096E700BF134B1B6800225A63AD
:103C5000114B1B6800229A6300BF80BDAFF3008048
:103C6000D32357FBC546704066834C32340BD94092
:103C7000A0050020440500204A0500205005002032
:103C8000C4010020AC050020A80500201F85EB51D1
:103C90009C050020000020421004002000000000CD
:103CA00080B500AF464B474A1A60474B4FF00002C1
:103CB0001A60464B00221A8003F032FA0346444A47
:103CC0001360444803F0A0FA1421424803F0A1FB1A
:103CD000404803F039FD02463F4B1B6813443E4AFF
:103CE00013603E4B1B8801333D4A82FB0312511186
:103CF000DA178A1A642101FB02F29A1A92B2374B40
:103D00001A80364B1B88632B29D1334B1B68334AEF
:103D10001288B3FBF2F31846FCF7ECFB24A3D3E9BB
:103D20000023FCF7A9FA02460B4623A1D1E90001C2
:103D3000FCF784FD02460B4610461946FCF70EFFC1
:103D400003461F4A1360244B1B68244A1288B3FBA6
:103D5000F2F39AB2234B1A801F4B00221A60184BC1
:103D6000D3ED007A9FED207AF4EEC77AF1EE10FAE7
:103D700010D403F0D5F90246154B1B68D31A092B52
:103D80009FD90220FEF762FC03F0CAF90346104AED
:103D9000136096E700BF154B1B6800225A63134B54
:103DA0001B6800229A6300BF80BD00BFAFF3008094
:103DB000D32357FBC546704066834C32340BD94041
:103DC000A005002000007A44440500204A05002098
:103DD00050050020C4010020AC050020A8050020EB
:103DE0001F85EB519C05002000002042100400209C
:103DF00080B582B000AF7860234BD3ED007AFDEE42
:103E0000E77A17EE903A214A102121480BF00EFB79
:103E1000204B1B681846FCF78FFB17A3D3E9002340
:103E2000FCF70CFD02460B461046194614A3D3E9D5
:103E30000023FCF7D9FB02460B4610461946FCF757
:103E40008DFE0346144A1360134BD3ED007AFDEE4A
:103E5000E77A17EE903A114A10210D480BF0E6FA76
:103E60000B4A0821002002F05FFC02F0E9FAFA2078
:103E700008F060FDC0E700BF6666666666663040B3
:103E80007B14AE47E17A843FB00500207C0B01082B
:103E90002C05002044050020F8050020840B0108B3
:103EA00080B582B000AF7860C64B1B78013B632BB6
:103EB00000F27A8201A252F823F000BF4D400008C0
:103EC0004D4000086940000869400008694000084A
:103ED000694000083942000847420008554200087E
:103EE000634200087142000871420008B9420008AC
:103EF000C1420008CF420008DD420008EB42000842
:103F0000A9430008A9430008A9430008A9430008E1
:103F1000A9430008A9430008A9430008A9430008D1
:103F2000A9430008A9430008A9430008A9430008C1
:103F3000A9430008A9430008A9430008A9430008B1
:103F4000A9430008A9430008A9430008A9430008A1
:103F5000A9430008A9430008A9430008A943000891
:103F6000A9430008A9430008A9430008A943000881
:103F7000A9430008A9430008A9430008A943000871
:103F8000A9430008A9430008A9430008A943000861
:103F9000A9430008A9430008A9430008A943000851
:103FA000A9430008A9430008A9430008A943000841
:103FB000A9430008A9430008A9430008A943000831
:103FC000A9430008A9430008A9430008A943000821
:103FD000A9430008A9430008A9430008A943000811
:103FE000A9430008A9430008A9430008A943000801
:103FF000A9430008A9430008A9430008A9430008F1
:10400000A9430008A9430008A9430008A9430008E0
:10401000A9430008A9430008F9420008F942000832
:10402000A9430008A9430008A9430008A9430008C0
:10403000A9430008A9430008A9430008A9430008B0
:10404000A9430008A9430008A94300085D4B1B7859
:10405000012B14BF01230023DBB21A465A4B1A70FE
:10406000584B63221A70A0E1564B1B78574A1B012C
:1040700013440433D3ED007A9FED557AF4EEC77AFA
:10408000F1EE10FA01DD73231CE04E4B1B784F4A12
:104090001B0113440433D3ED007A9FED4E7AF4EE06
:1040A000C77AF1EE10FA01D532230BE0454B1B78AD
:1040B000464A1B0113440433D3ED007AFCEEE77A41
:1040C00017EE903A444A126813644FF4967003F066
:1040D00033F83C4B1B783D4A1B01134408331B68E3
:1040E0003E4A1360374B1B78384A1B0113440C338C
:1040F0001B78002B0CBF01230023DBB21A460421DE
:10410000374804F0B5F82F4B1B78304A1B01134495
:104110000C331B78002B14BF01230023DBB21A469B
:1041200008212F4804F0A4F8264B1B78274A1B01CE
:1041300013440C331B78002B0CBF01230023DBB28C
:104140001A462021264804F093F81E4B1B781F4A7C
:104150001B0113440C331B78002B14BF01230023D5
:10416000DBB21A4610211E4804F082F8154B1B786A
:10417000164A1B0113441A881A4B1B685A63114BC9
:104180001B78124A1B01134402331A88154B1B6813
:104190009A63154B1A78144B5B789A422ED1094BCF
:1041A00064221A70074B00225A80104A0F211048CF
:1041B0000BF03CF94FF6FF7306220E490E4807F04C
:1041C0007EFA35E0180500203401002004000020AC
:1041D0000000E64200004842A802002040050020FE
:1041E0000000024010040020E4040020400B0108FD
:1041F0001C050020480B0108580400206D4B5B781B
:104200006D4A6C499B000B445B681360694B5B789B
:104210000133684A927893FBF2F101FB02F29B1A98
:10422000DAB2644B5A70654A0F2165480BF0FEF80C
:10423000614B63221A70B8E0624B02221A705E4B27
:1042400063221A70B1E05F4B03221A705A4B63224B
:104250001A70AAE05B4B04221A70574B63221A7043
:10426000A3E0584B05221A70534B63221A709CE04E
:10427000514B1B780B2B04D0534B1B6873221A64D1
:1042800003E0514B1B6832221A644FF4967002F01F
:1042900053FF494B64221A70474B00225A804B4A05
:1042A0000F2147480BF0C2F84FF6FF73062248492A
:1042B000484807F004FA78E0424B06221A7074E08E
:1042C000404B07221A703C4B63221A706DE03D4B45
:1042D0000A221A70384B63221A7066E0394B0822A2
:1042E0001A70354B63221A705FE0364B09221A7040
:1042F000314B63221A7058E02F4B1B78582B04D097
:10430000314B1B6873221A6403E02F4B1B68322267
:104310001A644FF4967002F00FFF002204212E4819
:1043200003F0A6FF012208212B4803F0A1FF002281
:104330002021294803F09CFF01221021264803F088
:1043400097FF1D4B1B78582B13D11B4B5B8807EE37
:10435000903AF8EE677A214BC3ED007A204B1B6848
:104360004FF448725A631E4B1B684FF496629A636F
:1043700013E0114B5B885B4207EE903AF8EEE77A68
:10438000164BC3ED007A164B1B684FF496625A63C6
:10439000134B1B684FF448729A63074B63221A70E1
:1043A0000E48FFF7DDF800E000BF642008F0C2FA15
:1043B0007AE500BFE404002018050020500B010836
:1043C0001C05002034010020A8020020400B010839
:1043D000480B01085804002000000240400500205E
:1043E0001004002080B584B000AF78600023FB810A
:1043F0000023BB60274B1B78062B04D04FF47A7048
:1044000008F098FAF6E7244B63221A70234B244AEB
:104410001A602248FEF740FF224B00221A601D4B13
:104420001A78214B1A701B4B0B221A701F4B1A78EB
:104430001E4B5B789A4212D1174B64221A70164BAE
:1044400000225A801A4A0F211A480AF0EFFF4FF64D
:10445000FF7306221849194807F031F9CAE7134BD0
:104460005B780D4A11499B000B445B6813600F4B4E
:104470005B7801330D4A927893FBF2F101FB02F273
:104480009B1ADAB2094B5A700D4A0F2109480AF0FB
:10449000CDFFAFE7340100201805002054050020AF
:1044A00000002042EC05002035010020E40400203B
:1044B000400B01081C050020480B0108580400208F
:1044C000500B010880B582B000AF7860854B1B7837
:1044D000002B08D0834B1B78012B04D04FF47A704B
:1044E00008F028FAFCE0804B1B78002B7ED07F4B35
:1044F0004FF000021A607E4B00221A807D48FEF7C2
:1045000092F87D48FEF78FF87C48FEF78CF8754BE3
:104510001B78002B14BF01230023DBB21A460421B1
:10452000774803F0A5FE6F4B1B78002B0CBF0123CF
:104530000023DBB21A460821714803F099FE694B4B
:104540001B78002B14BF01230023DBB21A46202165
:104550006B4803F08DFE634B1B78002B0CBF0123CF
:104560000023DBB21A461021654803F081FE654B3B
:104570001B6800225A63634B1B6800229A63594BE5
:104580001A78614B1A70574B0B221A705F4B00223E
:104590001A605F4B64221A705D4B00225A805D4A9C
:1045A0000F215D480AF042FF4FF6FF7306225B4978
:1045B0005B4807F084F802F0B3FD0346594A1360E4
:1045C000494B1B78002B00F08A8002F0A9FD0246BF
:1045D000544B1B68D31A092BF2D90020FEF736F88A
:1045E00002F09EFD03464F4A1360E9E7484B5B88A3
:1045F00007EE903AF8EE677A4B4BC3ED007A4A4BE0
:10460000D3ED007AB2EE0E7AF4EEC77AF1EE10FA3C
:1046100002D8464B00221A70444B1B78002B0CD159
:10462000304B1B78002B0CBF01230023DBB201228F
:1046300019463D48FEF720FB0BE02A4B1B78002B68
:104640000CBF01230023DBB2022219463648FEF7D5
:1046500013FB2C4B1B6800225A632A4B1B68002259
:104660009A63204B1A78284B1A701E4B0B221A7033
:10467000264B00221A602E4B1A782D4B5B789A42FB
:1046800012D1234B64221A70214B00225A80214AF6
:104690000F2121480AF0CAFE4FF6FF7306221F4978
:1046A0001F4807F00CF811E7214B5B78184A2049A6
:1046B0009B000B445B6813601D4B5B7801331C4A05
:1046C000927893FBF2F101FB02F29B1ADAB2184BDB
:1046D0005A70184A0F2110480AF0A8FEF6E600BFEB
:1046E000F4E600BF340100203C0500204405002012
:1046F0004A05002074050020600500208805002080
:10470000000002401004002035010020EC050020CC
:1047100018050020400B01081C050020480B01086B
:1047200058040020500500205405002036010020C8
:10473000E4040020500B0108B0B588B004AF7860E5
:104740000023FB73844B1B78082B04D04FF47A7042
:1047500008F0F0F8F6E7814B93F90030002B07D111
:104760007F4B804A1A6002217D48FEF719FC3CE22B
:104770007A4B93F90030012B40F098810023FB73B2
:10478000794B4FF000021A60784B00221A80784B68
:104790004FF000021A60774B774A1A60774B4FF060
:1047A00000021A60764B1B6832221A644FF496702E
:1047B00002F0C2FC734B1B684FF416725A63714BC4
:1047C0001B684FF47A729A63002204216E4803F04A
:1047D0004FFD012208216C4803F04AFD00222021F0
:1047E000694803F045FD01221021674803F040FDB0
:1047F0000421664805F056FB02F092FC0346644A29
:1048000013604FF6FF73029302230193614B0093F1
:1048100001233722D021604803F082FF5D4B1B78D3
:104820001B021AB25B4B5B781BB213431AB24F4B9D
:104830001A80FB7B002B1DD101221021574803F069
:1048400017FD524B1B6800225A62504B1B685B6A73
:10485000092BFAD900221021504803F009FD4B4BD7
:104860001B68DA68494B1B6842F00402DA600520D5
:1048700008F060F802F054FC0246454B1B68D31A5E
:10488000092BBED9384B1B681846FBF755FE04466A
:104890000D46364BB3F900301846FBF73BFE2AA312
:1048A000D3E90023FBF7CAFF02460B461046194620
:1048B00027A3D3E90023FBF797FE02460B462046C9
:1048C0002946FBF7DBFC02460B4610461946FCF76F
:1048D00045F90346244A1360284BD3ED007A9FED37
:1048E000307AF4EEC77AF1EE10FA08DDFB7B002B8C
:1048F00005D11D4B1B681E4A13600123FB731D4B22
:1049000093ED007A184BD3ED007A77EE677AFDEEDF
:10491000E77A17EE903A002B0DDB164B93ED007AF9
:10492000114BD3ED007A77EE677AFDEEE77A17EE5A
:10493000903A002B36DD02F0F3FB0346144A136075
:104940005FE700BFAFF3008066666666666630406C
:104950007B14AE47E17A843F34010020F00500204B
:10496000540500200000F041440500204A050020C5
:10497000BC050020400500200000B442A405002032
:10498000A802002010040020000002408003002044
:104990005005002048050020540200200004024079
:1049A00000005C4200BFA24B1B6800225A63A04B70
:1049B0001B6800229A639F4B1B684A221A644FF4BB
:1049C000967002F0B9FB0A2007F0B4FF9A4B1B68FF
:1049D0001846FBF7B1FD94A3D3E90023FBF704FECF
:1049E00002460B46104619464FF00002934BFBF768
:1049F00025FF02460B4610461946FCF7AFF8034662
:104A000000EE103A0BF0E4FAF0EE407AB3EE0E7AD4
:104A100067EE877A8A4BC3ED007A894BD3ED007A33
:104A20009FED887A77EE677AF3EE0E6A87EEA67AC4
:104A3000B0EE470A0BF0F0F9F0EE407A9FED827A83
:104A400067EE877A17EE900AFBF776FD76A3D3E937
:104A50000023FBF7F3FE02460B4610461946FCF70F
:104A60007DF80346794A1360754BD3ED007A9FEDCC
:104A7000757A37EE677A724BD3ED007ADFED716AA3
:104A800076EEE77A67EE277A9FED717A77EE877A8E
:104A9000B0EE670A0BF0A2F9F0EE407AB3EE077AB7
:104AA00077EEC77A6B4BC3ED007A9EE06A4B93F9C1
:104AB0000030022B05D1FFF74BF80A2007F03AFF30
:104AC00093E0654B93F90030032B05D1FEF7D4FE3C
:104AD0000A2007F02FFF88E05F4B93F90030042B8A
:104AE00005D1FFF7DDF80A2007F024FF7DE05A4BDF
:104AF00093F90030052B05D1FFF72AF80A2007F0BB
:104B000019FF72E0544B93F90030062B05D1FEF7E4
:104B100079FE0A2007F00EFF67E04F4B93F9003053
:104B2000072B05D1FFF714F80A2007F003FF5CE01C
:104B3000494B93F90030082B1DD13E4B1B68732263
:104B40001A644FF4967002F0F7FA394B1B684FF471
:104B5000FA625A63364B1B684FF47A729A633B4B86
:104B6000D3ED007AF1EE677A3C4BC3ED007A3B4817
:104B7000FEF7F6FC39E0384B93F90030092B09D1E8
:104B8000344B1B68364A1360002201213448FEF77B
:104B900073F82AE0304B93F900300A2B19D1254BDA
:104BA0001B6832221A644FF4967002F0C5FA204B4B
:104BB0001B684FF47A725A631D4B1B684FF4FA62FC
:104BC0009A63224B1B68254A13602448FEF7C8FCF1
:104BD0000BE0214B93F900300B2B06D1204B214ADF
:104BE0001A6002211E48FEF7DBF91F4B00221A60F3
:104BF0001E4B1A781E4B1A701C4B0B221A701D4B41
:104C000064221A701B4B00225A801B4A0F211B483A
:104C10000AF00CFC4FF6FF7306221949194806F0FA
:104C20004EFD8FE5AFF3008050455254FB21094003
:104C300010040020A8020020BC050020008066406F
:104C4000B40500200000704200003443C00500207D
:104C500000006144B8050020F00500204005002058
:104C60005405002000007041EC05002034010020B4
:104C70003501002018050020400B01081C0500200C
:104C8000480B01085804002080B582B000AF78605E
:104C9000314B1B780A2B1CD04FF47A7007F04AFE78
:104CA000F6E701224FF480612C4803F0E1FA64201A
:104CB00007F040FE00224FF48061284803F0D8FA44
:104CC000642007F037FE264B5B88013B9AB2244BE9
:104CD0005A80234B5B88002BE3D11F4B1A78214B62
:104CE0001A701D4B0B221A701F4B00221A601F4BAB
:104CF0001A781E4B5B789A4212D1194B64221A70B3
:104D0000174B00225A801A4A0F211A480AF08EFBCC
:104D10004FF6FF7306221849184806F0D0FCB7E793
:104D2000124B5B780E4A11499B000B445B68136081
:104D30000E4B5B7801330D4A927893FBF2F101FB45
:104D400002F29B1ADAB2094B5A700D4A0F21094838
:104D50000AF06CFB9CE700BF340100200004024015
:104D60001805002035010020EC050020E404002097
:104D7000400B01081C050020480B010858040020C6
:104D8000500B010880B582B000AF78609D4B1B7856
:104D9000022B04D04FF47A7007F0CCFDF6E79A4B63
:104DA0005B88142B00F081801E2B40F00781974B0D
:104DB000D3ED3D7A9FED967AF4EEC77AF1EE10FAD4
:104DC00001DD732312E0914BD3ED3D7A9FED917A93
:104DD000F4EEC77AF1EE10FA01D5322306E08B4BE0
:104DE000D3ED3D7AFCEEE77A17EE903A8A4A1268E4
:104DF00013644FF4967002F09FF9844BD3F8F830A7
:104E0000864A1360814B93F8FC30002B0CBF0123C2
:104E10000023DBB21A460421814803F029FA7B4BB8
:104E200093F8FC30002B14BF01230023DBB21A4699
:104E300008217B4803F01CFA744B93F8FC30002BDC
:104E40000CBF01230023DBB21A462021744803F073
:104E50000FFA6E4B93F8FC30002B14BF0123002394
:104E6000DBB21A4610216E4803F002FA674BB3F822
:104E7000F0206C4B1B685A63644BB3F8F220694B0B
:104E80001B689A636548FEF76BFB0A2007F052FD2A
:104E9000654B4FF081421A60002200216248FDF705
:104EA000EBFE0A2007F046FD26E15F4B4FF0814202
:104EB0001A60002200215C48FDF7DEFE0A2007F0A0
:104EC00039FD524BD3ED2D7A9FED517AF4EEC77A2E
:104ED000F1EE10FA01DD732312E04C4BD3ED2D7A85
:104EE0009FED4C7AF4EEC77AF1EE10FA01D5322339
:104EF00006E0464BD3ED2D7AFCEEE77A17EE903ABA
:104F0000454A126813644FF4967002F015F93F4B4E
:104F1000D3F8B830414A13603C4B93F8BC30002BB7
:104F20000CBF01230023DBB21A4604213C4803F0E6
:104F30009FF9364B93F8BC30002B14BF012300239C
:104F4000DBB21A460821364803F092F92F4B93F84A
:104F5000BC30002B0CBF01230023DBB21A462021FA
:104F60002F4803F085F9294B93F8BC30002B14BF70
:104F700001230023DBB21A461021294803F078F9F7
:104F8000224BB3F8B020274B1B685A631F4BB3F872
:104F9000B220244B1B689A632048FEF7E1FA0A20EE
:104FA00007F0C8FC204B214A1A60002200211E484D
:104FB000FDF762FE0A2007F0BDFC9DE01A4B4FF0A2
:104FC00081421A60002200211748FDF755FE0A2091
:104FD00007F0B0FC0D4BD3ED1D7A9FED0D7AF4EE8A
:104FE000C77AF1EE10FA01DD732328E0074BD3ED09
:104FF0001D7A9FED087AF4EEC77AF1EE10FA17D514
:1050000032231CE034010020180500200400002099
:105010000000E64200004842A802002040050020AF
:105020000000024010040020540500200000E04071
:10503000504BD3ED1D7AFCEEE77A17EE903A4E4ACC
:10504000126813644FF4967002F076F8494B9B6F28
:105050004A4A1360474B93F87C30002B0CBF012366
:105060000023DBB21A460421454803F001F9414B05
:1050700093F87C30002B14BF01230023DBB21A46C7
:1050800008213F4803F0F4F83A4B93F87C30002BAA
:105090000CBF01230023DBB21A462021384803F05D
:1050A000E7F8344B93F87C30002B14BF0123002326
:1050B000DBB21A461021324803F0DAF82D4BB3F870
:1050C0007020304B1B685A632A4BB3F872202D4B6B
:1050D0001B689A632948FEF743FA0A2007F02AFC66
:1050E000294B2A4A1A60002200212748FDF7C4FDF7
:1050F0000A2007F01FFC00BF254B00221A60254B39
:105100001A78254B1A70234B0B221A70234B1A78EE
:10511000224B5B789A4212D1214B64221A70204BA9
:1051200000225A801F4A0F211F480AF07FF94FF6CC
:10513000FF7306221D491E4806F0C1FA26E6174BEA
:105140005B78174A15499B000B445B681360134B4F
:105150005B780133114A927893FBF2F101FB02F282
:105160009B1ADAB20D4B5A70124A0F210E480AF000
:105170005DF90BE604000020A80200204005002095
:105180000000024010040020540500200000E04010
:10519000EC0500203401002035010020E40400204B
:1051A00018050020400B01081C050020480B0108D1
:1051B00058040020500B010880B582B000AF786021
:1051C0009D4B1B78032B04D04FF47A7007F0B2FB91
:1051D000F6E79A4B5B88142B00F081801E2B40F081
:1051E0000881974BD3ED417A9FED967AF4EEC77A1A
:1051F000F1EE10FA01DD732312E0914BD3ED417A09
:105200009FED917AF4EEC77AF1EE10FA01D53223D0
:1052100006E08B4BD3ED417AFCEEE77A17EE903A3D
:105220008A4A126813644FF4967001F085FF844B2C
:10523000D3F80831864A1360814B93F80C31002B68
:105240000CBF01230023DBB21A460421814803F07E
:105250000FF87B4B93F80C31002B14BF0123002374
:10526000DBB21A4608217B4803F002F8744B93F82E
:105270000C31002B0CBF01230023DBB21A46202186
:10528000744802F0F5FF6E4B93F80C31002B14BFFD
:1052900001230023DBB21A4610216E4802F0E8FF1A
:1052A000674BB3F800216C4B1B685A63644BB3F82F
:1052B0000221694B1B689A636548FEF751F90A2081
:1052C00007F038FB654B4FF081421A600022002145
:1052D0006248FDF7D1FC0A2007F02CFB27E15F4B69
:1052E0004FF081421A60002200215C48FDF7C4FCA7
:1052F0000A2007F01FFB524BD3ED317A9FED517A14
:10530000F4EEC77AF1EE10FA01DD732312E04C4B94
:10531000D3ED317A9FED4C7AF4EEC77AF1EE10FAC4
:1053200001D5322306E0464BD3ED317AFCEEE77A25
:1053300017EE903A454A126813644FF4967001F0E4
:10534000FBFE3F4BD3F8C830414A13603C4B93F807
:10535000CC30002B0CBF01230023DBB21A46042102
:105360003C4802F085FF364B93F8CC30002B14BF3D
:1053700001230023DBB21A460821364802F078FFE9
:105380002F4B93F8CC30002B0CBF01230023DBB252
:105390001A4620212F4802F06BFF294B93F8CC309E
:1053A000002B14BF01230023DBB21A461021294829
:1053B00002F05EFF224BB3F8C020274B1B685A63F4
:1053C0001F4BB3F8C220244B1B689A632048FEF79A
:1053D000C7F80A2007F0AEFA204B4FF082421A605D
:1053E000002200211D48FDF747FC0A2007F0A2FA21
:1053F0009DE01A4B1A4A1A60002200211748FDF757
:105400003BFC0A2007F096FA0D4BD3ED217A9FED75
:105410000D7AF4EEC77AF1EE10FA01DD732328E07D
:10542000074BD3ED217A9FED087AF4EEC77AF1EEBF
:1054300010FA17D532231CE0340100201805002093
:10544000040000200000E64200004842A8020020BC
:1054500040050020000002401004002054050020F8
:1054600000004040514BD3ED217AFCEEE77A17EE75
:10547000903A4F4A126813644FF4967001F05CFE44
:105480004A4BD3F888304B4A1360484B93F88C3022
:10549000002B0CBF01230023DBB21A46042146482F
:1054A00002F0E6FE414B93F88C30002B14BF012331
:1054B0000023DBB21A4608213F4802F0D9FE3B4BDD
:1054C00093F88C30002B0CBF01230023DBB21A466B
:1054D0002021394802F0CCFE344B93F88C30002B5D
:1054E00014BF01230023DBB21A461021324802F018
:1054F000BFFE2E4BB3F88020304B1B685A632B4BFA
:10550000B3F882202D4B1B689A632A48FEF728F8CF
:105510000A2007F00FFA2A4B2A4A1A6000220021BB
:105520002748FDF7A9FB0A2007F004FA00BF264B25
:1055300000221A60254B1A78254B1A70234B0B2238
:105540001A70244B1A78234B5B789A4212D1224B63
:1055500064221A70204B00225A80204A0F212048D2
:1055600009F064FF4FF6FF7306221E491E4806F03D
:10557000A6F825E6174B5B78174A16499B000B44A3
:105580005B681360134B5B780133124A927893FB8C
:10559000F2F101FB02F29B1ADAB20E4B5A70134A77
:1055A0000F210F4809F042FF0AE600BF0400002067
:1055B000A802002040050020000002401004002046
:1055C000540500200000D040EC05002034010020EC
:1055D00035010020E404002018050020400B0108DC
:1055E0001C050020480B010858040020500B01083E
:1055F00080B582B000AF78609C4B1B78042B04D040
:105600004FF47A7007F096F9F6E7994B5B88142B04
:105610007FD01E2B40F00681964BD3ED457A9FED4F
:10562000967AF4EEC77AF1EE10FA01DD732312E0F8
:10563000904BD3ED457A9FED917AF4EEC77AF1EE77
:1056400010FA01D5322306E08A4BD3ED457AFCEE01
:10565000E77A17EE903A8A4A126813644FF496700C
:1056600001F06AFD834BD3F81831864A1360814BF1
:1056700093F81C31002B0CBF01230023DBB21A4628
:105680000421814802F0F4FD7A4B93F81C31002B81
:1056900014BF01230023DBB21A4608217A4802F026
:1056A000E7FD744B93F81C31002B0CBF0123002342
:1056B000DBB21A462021744802F0DAFD6D4B93F8F4
:1056C0001C31002B14BF01230023DBB21A4610212A
:1056D0006D4802F0CDFD674BB3F810216B4B1B6892
:1056E0005A63644BB3F81221684B1B689A63654890
:1056F000FDF736FF0A2007F01DF9654B654A1A6071
:10570000002200216248FDF7B7FA0A2007F012F9DB
:1057100029E15F4B604A1A60002201215C48FDF7D5
:10572000ABFA0A2007F006F9524BD3ED357A9FED1C
:10573000527AF4EEC77AF1EE10FA01DD732312E02B
:105740004C4BD3ED357A9FED4D7AF4EEC77AF1EEFE
:1057500010FA01D5322306E0464BD3ED357AFCEE44
:10576000E77A17EE903A464A126813644FF496703F
:1057700001F0E2FC3F4BD3F8D830424A13603D4B76
:1057800093F8DC30002B0CBF01230023DBB21A4658
:1057900004213D4802F06CFD364B93F8DC30002BC1
:1057A00014BF01230023DBB21A460821364802F059
:1057B0005FFD304B93F8DC30002B0CBF012300233E
:1057C000DBB21A462021304802F052FD294B93F8F3
:1057D000DC30002B14BF01230023DBB21A4610215A
:1057E000294802F045FD234BB3F8D020274B1B6816
:1057F0005A63204BB3F8D220244B1B689A6321488C
:10580000FDF7AEFE0A2007F095F8214B4FF08042DD
:105810001A60002201211E48FDF72EFA0A2007F027
:1058200089F8A0E01A4B1C4A1A600022012118488E
:10583000FDF722FA0A2007F07DF80E4BD3ED257A0A
:105840009FED0D7AF4EEC77AF1EE10FA01DD7323C5
:105850002BE0084BD3ED257A9FED087AF4EEC77A5A
:10586000F1EE10FA1AD532231FE000BF34010020F8
:1058700018050020040000200000E6420000484215
:10588000A802002040050020000002401004002073
:1058900054050020000090400000C040514BD3ED63
:1058A000257AFCEEE77A17EE903A4F4A12681364B5
:1058B0004FF4967001F040FC4A4BD3F898304B4AB5
:1058C0001360484B93F89C30002B0CBF012300233E
:1058D000DBB21A460421464802F0CAFC414B93F859
:1058E0009C30002B14BF01230023DBB21A46082191
:1058F0003F4802F0BDFC3B4B93F89C30002B0CBFA3
:1059000001230023DBB21A462021394802F0B0FC03
:10591000344B93F89C30002B14BF01230023DBB2DF
:105920001A461021324802F0A3FC2E4BB3F8902007
:10593000304B1B685A632B4BB3F892202D4B1B68DE
:105940009A632A48FDF70CFE0A2006F0F3FF2A4B63
:105950002A4A1A60002201212748FDF78DF90A2002
:1059600006F0E8FF00BF264B00221A60254B1A788C
:10597000254B1A70234B0B221A70244B1A78234B99
:105980005B789A4212D1224B64221A70204B00227B
:105990005A80204A0F21204809F048FD4FF6FF7336
:1059A00006221E491E4805F08AFE25E6174B5B7845
:1059B000174A16499B000B445B681360134B5B78D6
:1059C0000133124A927893FBF2F101FB02F29B1A27
:1059D000DAB20E4B5A70134A0F210F4809F026FD18
:1059E0000AE600BF04000020A802002040050020B5
:1059F0000000024010040020540500200000204058
:105A0000EC0500203401002035010020E4040020D2
:105A100018050020400B01081C050020480B010858
:105A200058040020500B010880B582B000AF7860A8
:105A30009B4B1B78052B04D04FF47A7006F07AFF4D
:105A4000F6E7984B5B88142B7FD01E2B40F0058126
:105A5000954BD3ED497A9FED957AF4EEC77AF1EE46
:105A600010FA01DD732312E08F4BD3ED497A9FEDDD
:105A7000907AF4EEC77AF1EE10FA01D5322306E0FF
:105A8000894BD3ED497AFCEEE77A17EE903A894AD2
:105A9000126813644FF4967001F04EFB824BD3F8FA
:105AA0002831854A1360804B93F82C31002B0CBFB2
:105AB00001230023DBB21A460421804802F0D8FB00
:105AC000794B93F82C31002B14BF01230023DBB258
:105AD0001A460821794802F0CBFB734B93F82C311E
