:020000040800F2
:10000000000002206D5E0008215C0008295C0008E9
:10001000315C0008395C0008415C00080000000009
:1000200000000000000000000000000021D80008CF
:10003000495C00080000000071DA0008575C000805
:10004000BD5E0008BD5E0008BD5E0008BD5E000824
:10005000BD5E0008715C0008BD5E0008BD5E000862
:10006000BD5E0008BD5E0008BD5E0008BD5E000804
:10007000BD5E0008BD5E0008BD5E0008BD5E0008F4
:10008000BD5E0008BD5E0008BD5E0008BD5E0008E4
:10009000BD5E0008BD5E0008BD5E0008BD5E0008D4
:1000A000BD5E0008BD5E0008BD5E0008815C000802
:1000B000BD5E0008BD5E0008955C0008BD5E0008DE
:1000C000BD5E0008BD5E0008BD5E0008BD5E0008A4
:1000D000BD5E0008BD5E0008BD5E0008A95C0008AA
:1000E000BD5E0008BD5E0008BD5E0008BD5E000884
:1000F000BD5E0008BD5E0008BD5E0008BD5E000874
:10010000BD5E0008BD5E0008BD5E0008BD5E000863
:10011000BD5E0008BD5E0008BD5E0008BD5E000853
:10012000BD5E0008BD5E0008BD5E0008BD5E000843
:10013000BD5E0008BD5E0008BD5E0008BD5E000833
:10014000BD5E0008BD5E0008BD5E0008BD5E000823
:10015000BD5E0008BD5E0008BD5E0008BD5E000813
:10016000BD5E0008BD5E0008BD5E0008BD5E000803
:10017000BD5E0008BD5E0008BD5E00080000000016
:08018000BD5E0008BD5E000831
:1001900010B5054C237833B9044B13B10448AFF3C1
:1001A00000800123237010BD200300200000000008
:1001B000DC0D010808B5034B1BB103490348AFF33D
:1001C000008008BD0000000024030020DC0D0108B1
:1001D00001F0FF01102A2BDB10F0070F08D010F8F8
:1001E000013B013A8B422DD010F0070F42B3F6D1FC
:1001F000F0B441EA012141EA014122F007047FF015
:1002000000070023F0E80256083C85EA010586EA6B
:10021000010685FA47F5A3FA87F586FA47F6A5FAA7
:1002200087F68EB9EED1F0BC01F0FF0102F00702B3
:1002300032B110F8013B013A83EA010313B1F8D15E
:100240000020704701387047002D06BF354603383F
:10025000073815F0010F07D1013015F4807F02BF78
:10026000013015F4C03F0130F0BC0138704700BFC9
:10027000034613F8012B002AFBD1181A01387047E6
:1002800081F0004102E000BF83F0004330B54FEA47
:1002900041044FEA430594EA050F08BF90EA020FB4
:1002A0001FBF54EA000C55EA020C7FEA645C7FEA47
:1002B000655C00F0E2804FEA5454D4EB5555B8BF6A
:1002C0006D420CDD2C4480EA020281EA030382EADB
:1002D000000083EA010180EA020281EA0303362D6D
:1002E00088BF30BD11F0004F4FEA01314FF4801C40
:1002F0004CEA113102D0404261EB410113F0004F52
:100300004FEA03334CEA133302D0524263EB430308
:1003100094EA050F00F0A780A4F10104D5F1200EA6
:100320000DDB02FA0EFC22FA05F2801841F1000101
:1003300003FA0EF2801843FA05F359410EE0A5F1D5
:1003400020050EF1200E012A03FA0EFC28BF4CF006
:10035000020C43FA05F3C01851EBE37101F00045BC
:1003600007D54FF0000EDCF1000C7EEB00006EEBC9
:100370000101B1F5801F1BD3B1F5001F0CD3490853
:100380005FEA30004FEA3C0C04F101044FEA4452AA
:1003900012F5800F80F09A80BCF1004F08BF5FEA31
:1003A000500C50F1000041EB045141EA050130BD11
:1003B0005FEA4C0C404141EB0101013C28BFB1F523
:1003C000801FE9D291F0000F04BF01460020B1FA6E
:1003D00081F308BF2033A3F10B03B3F120020CDA41
:1003E0000C3208DD02F1140CC2F10C0201FA0CF01F
:1003F00021FA02F10CE002F11402D8BFC2F1200C84
:1004000001FA02F120FA0CFCDCBF41EA0C01904039
:10041000E41AA2BF01EB0451294330BD6FEA040482
:100420001F3C1CDA0C340EDC04F11404C4F120026D
:1004300020FA04F001FA02F340EA030021FA04F37F
:1004400045EA030130BDC4F10C04C4F1200220FAD6
:1004500002F001FA04F340EA0300294630BD21FA14
:1004600004F0294630BD94F0000F83F4801306BFDA
:1004700081F480110134013D4EE77FEA645C18BFCE
:100480007FEA655C29D094EA050F08BF90EA020F65
:1004900005D054EA000C04BF1946104630BD91EA5D
:1004A000030F1EBF0021002030BD5FEA545C05D160
:1004B0004000494128BF41F0004130BD14F580049F
:1004C0003CBF01F5801130BD01F0004545F0FE4113
:1004D00041F470014FF0000030BD7FEA645C1ABF48
:1004E000194610467FEA655C1CBF0B46024650EA7F
:1004F000013406BF52EA033591EA030F41F40021AB
:1005000030BD00BF90F0000F04BF0021704730B530
:100510004FF4806404F132044FF000054FF0000105
:1005200050E700BF90F0000F04BF0021704730B5C6
:100530004FF4806404F1320410F0004548BF40429B
:100540004FF000013EE700BF42004FEAE2014FEAF0
:1005500031014FEA02701FBF12F07F4393F07F4FCB
:1005600081F06051704732F07F4208BF704793F0CE
:100570007F4F04BF41F40021704730B54FF46074E1
:1005800001F0004521F000411CE700BF50EA0102E4
:1005900008BF704730B54FF000050AE050EA01028D
:1005A00008BF704730B511F0004502D5404261EBFD
:1005B00041014FF4806404F132045FEA915C3FF43E
:1005C000D8AE4FF003025FEADC0C18BF03325FEADB
:1005D000DC0C18BF033202EBDC02C2F1200300FA8C
:1005E00003FC20FA02F001FA03FE40EA0E0021FAB1
:1005F00002F11444BDE600BF70B54FF0FF0C4CF49F
:10060000E06C1CEA11541DBF1CEA135594EA0C0F50
:1006100095EA0C0F00F0DEF82C4481EA030621EA8B
:100620004C5123EA4C5350EA013518BF52EA0335C6
:1006300041F4801143F4801338D0A0FB02CE4FF078
:100640000005E1FB02E506F00042E0FB03E54FF0A8
:100650000006E1FB03569CF0000F18BF4EF0010EA0
:10066000A4F1FF04B6F5007F64F5407404D25FEA9C
:100670004E0E6D4146EB060642EAC62141EA55514F
:100680004FEAC52040EA5E504FEACE2EB4F1FD0C91
:1006900088BFBCF5E06F1ED8BEF1004F08BF5FEA0F
:1006A000500E50F1000041EB045170BD06F00046C1
:1006B00046EA010140EA020081EA0301B4EB5C046E
:1006C000C2BFD4EB0C0541EA045170BD41F4801166
:1006D0004FF0000E013C00F3AB8014F1360FDEBF8B
:1006E000002001F0004170BDC4F10004203C35DA67
:1006F0000C341BDC04F11404C4F1200500FA05F3EA
:1007000020FA04F001FA05F240EA020001F000428A
:1007100021F0004110EBD37021FA04F642EB060100
:100720005EEA430E08BF20EAD37070BDC4F10C042A
:10073000C4F1200500FA04F320FA05F001FA04F2EE
:1007400040EA020001F0004110EBD37041F10001DA
:100750005EEA430E08BF20EAD37070BDC4F12005E5
:1007600000FA05F24EEA020E20FA04F301FA05F24D
:1007700043EA020321FA04F001F0004121FA04F2F5
:1007800020EA020000EBD3705EEA430E08BF20EAC5
:10079000D37070BD94F0000F0FD101F000464000FF
:1007A00041EB010111F4801F08BF013CF7D041EA81
:1007B000060195F0000F18BF704703F00046520085
:1007C00043EB030313F4801F08BF013DF7D043EA56
:1007D0000603704794EA0C0F0CEA135518BF95EA0C
:1007E0000C0F0CD050EA410618BF52EA4306D1D193
:1007F00081EA030101F000414FF0000070BD50EAB2
:10080000410606BF1046194652EA430619D094EA3B
:100810000C0F02D150EA013613D195EA0C0F05D125
:1008200052EA03361CBF104619460AD181EA030179
:1008300001F0004141F0FE4141F470014FF0000031
:1008400070BD41F0FE4141F4780170BD70B54FF0CC
:10085000FF0C4CF4E06C1CEA11541DBF1CEA13554C
:1008600094EA0C0F95EA0C0F00F0A7F8A4EB05042E
:1008700081EA030E52EA03354FEA013100F0888025
:100880004FEA03334FF0805545EA131343EA1263EE
:100890004FEA022245EA111545EA10654FEA0026A3
:1008A0000EF000419D4208BF964244F1FD0404F55C
:1008B000407402D25B084FEA3202B61A65EB0305B8
:1008C0005B084FEA32024FF480104FF4002CB6EB75
:1008D000020E75EB030E22BFB61A754640EA0C00F5
:1008E0005B084FEA3202B6EB020E75EB030E22BF35
:1008F000B61A754640EA5C005B084FEA3202B6EB76
:10090000020E75EB030E22BFB61A754640EA9C0034
:100910005B084FEA3202B6EB020E75EB030E22BF04
:10092000B61A754640EADC0055EA060E18D04FEAC2
:10093000051545EA16754FEA06164FEAC30343EA62
:1009400052734FEAC2025FEA1C1CC0D111F4801F2F
:100950000BD141EA00014FF000004FF0004CB6E728
:1009600011F4801F04BF01430020B4F1FD0C88BFC7
:10097000BCF5E06F3FF6AFAEB5EB030C04BFB6EBD2
:10098000020C5FEA500C50F1000041EB045170BDC5
:100990000EF0004E4EEA113114EB5C04C2BFD4EBF2
:1009A0000C0541EA045170BD41F480114FF0000E76
:1009B000013C90E645EA060E8DE60CEA135594EAF2
:1009C0000C0F08BF95EA0C0F3FF43BAF94EA0C0FF5
:1009D0000AD150EA01347FF434AF95EA0C0F7FF46A
:1009E00025AF104619462CE795EA0C0F06D152EABE
:1009F00003353FF4FDAE1046194622E750EA4106A2
:100A000018BF52EA43067FF4C5AE50EA41047FF4B2
:100A10000DAF52EA43057FF4EBAE12E74FF0FF3C17
:100A200006E000BF4FF0010C02E000BF4FF0010CE8
:100A30004DF804CD4FEA410C7FEA6C5C4FEA430C61
:100A400018BF7FEA6C5C1BD001B050EA410C0CBFB0
:100A500052EA430C91EA030F02BF90EA020F002012
:100A6000704710F1000F91EA030F58BF994208BF79
:100A700090422CBFD8176FEAE37040F00100704736
:100A80004FEA410C7FEA6C5C02D150EA013C07D18D
:100A90004FEA430C7FEA6C5CD6D152EA033CD3D0D8
:100AA0005DF8040B704700BF8446104662468C46D2
:100AB0001946634600E000BF01B5FFF7B7FF002805
:100AC00048BF10F1000F01BD4DF808EDFFF7F4FF2E
:100AD0000CBF012000205DF808FB00BF4DF808EDB9
:100AE000FFF7EAFF34BF012000205DF808FB00BFDC
:100AF0004DF808EDFFF7E0FF94BF012000205DF8FE
:100B000008FB00BF4DF808EDFFF7CEFF94BF0120B2
:100B100000205DF808FB00BF4DF808EDFFF7C4FFAB
:100B200034BF012000205DF808FB00BF4FEA410CF4
:100B30007FEA6C5C02D150EA013C0AD14FEA430CD7
:100B40007FEA6C5C02D152EA033C02D14FF0000014
:100B500070474FF0010070474FEA410212F5001252
:100B600015D211D56FF47873B3EB625212D94FEAF4
:100B7000C12343F0004343EA505311F0004F23FADE
:100B800002F018BF404270474FF00000704750EA33
:100B9000013005D111F0004008BF6FF000407047F0
:100BA0004FF00000704700BF4A0011D212F500124A
:100BB00011D20DD56FF47873B3EB62520ED44FEAB5
:100BC000C12343F0004343EA505323FA02F0704735
:100BD0004FF00000704750EA013002D14FF0FF3073
:100BE00070474FF0000070474FEA4102B2F1E04316
:100BF00024BFB3F5001CDCF1FE5C0DD901F0004C04
:100C00004FEAC0024CEA5070B2F1004F40EB830053
:100C100008BF20F00100704711F0804F21D113F17F
:100C20003872BCBF01F00040704741F480114FEAB8
:100C30005252C2F11802C2F1200C10FA0CF320FA41
:100C400002F018BF40F001004FEAC1234FEAD3235E
:100C500003FA0CFC40EA0C0023FA02F34FEA4303C8
:100C6000CCE77FEA625307D150EA01331EBF4FF051
:100C7000FE4040F44000704701F0004040F0FE406C
:100C800040F40000704700BF53B94AB9002908BFBB
:100C900000281CBF4FF0FF314FF0FF3000F06AB961
:100CA000ADF1080C6DE904CE00F006F8DDF804E0C3
:100CB000DDE9022304B070472DE9F047089D0C469A
:100CC000002B4ED194468C458646B2FA82F262D908
:100CD0004AB1C2F12003914020FA03F30CFA02FC5E
:100CE000194300FA02FE4FEA1C471FFA8CF6B1FBCB
:100CF000F7F44FEA1E4307FB141143EA014304FBD8
:100D000006F199420AD91CEB030304F1FF3080F08D
:100D10001281994240F20F81023C6344591A1FFA32
:100D20008EF3B1FBF7F007FB101143EA014300FB20
:100D300006F69E420AD91CEB030300F1FF3180F056
:100D4000FC809E4240F2F980634402389B1B40EADB
:100D5000044000211DB1D3400022C5E90032BDE8A6
:100D6000F0878B4205D90DB1C5E900010021084685
:100D7000F5E7B3FA83F1002946D1A34202D39042AA
:100D8000C0F0F080861A64EB03030120002DE6D04A
:100D9000C5E90063E3E7002A40F09080A1EB0C0472
:100DA0004FEA1C481FFA8CF70121B4FBF8F64FEA12
:100DB0001E4308FB164443EA044307FB06F098422F
:100DC00008D91CEB030306F1FF3402D2984200F26B
:100DD000CD8026461C1A1FFA8EF3B4FBF8F008FBF0
:100DE000104443EA044300FB07F79F4208D91CEB79
:100DF000030300F1FF3402D29F4200F2B08020468C
:100E0000DB1B40EA0640A5E7C1F120068B4022FA31
:100E100006F71F4320FA06FC04FA01F343EA0C0329
:100E2000F44000FA01F8380C4FEA1349B4FBF0FE25
:100E30001FFA87FC00FB1E4449EA04440EFB0CF930
:100E4000A14502FA01F20AD93C190EF1FF3A80F0ED
:100E50008480A14540F28180AEF1020E3C44A4EBB7
:100E600009041FFA83F9B4FBF0F300FB134449EAC9
:100E7000044403FB0CFCA44507D93C1903F1FF30E3
:100E800067D2A44565D9023B3C4443EA0E40A0FB2F
:100E90000293A4EB0C049C42CE469C4651D34ED008
:100EA00055B1B8EB0E0364EB0C0404FA06F6CB4024
:100EB0001E43CC40C5E90064002150E7C2F1200385
:100EC00020FA03F10CFA02FC24FA03F394400C43D9
:100ED0004FEA1C4800FA02FE1FFA8CF7B3FBF8F049
:100EE00008FB1031230C43EA014300FB07F1994250
:100EF00008D91CEB030300F1FF362CD299422AD902
:100F0000023863445B1AA4B2B3FBF8F108FB113357
:100F100044EA034401FB07F3A34208D91CEB040491
:100F200001F1FF3613D2A34211D902396444E41A05
:100F300041EA004139E70446F0E6084606E7C845BD
:100F4000AED2B9EB020E63EB070C0138A8E73146CD
:100F5000EDE7034699E73046D4E7D6467FE763449A
:100F600002384DE70646234608460FE7023E634433
:100F700030E700BF704700BF80B58AB004AFF860AB
:100F80000B467A60FB720023FB757B68DBB21B01AA
:100F9000DBB27B75FB7A002B01D1682300E069236B
:100FA000BB75BB7D9BB25B0099B20A230293012300
:100FB000019307F11503009301237F22F86806F0DF
:100FC000B3F80346FB75FB7D18461837BD4680BD58
:100FD00080B588B004AF7860084611461A460346CB
:100FE000FB700B46BB7013467B700023FB73FB78D2
:100FF000002B01D1682300E06923BB73BB7B9BB24C
:101000005B0099B2BB789AB20A2302930123019341
:101010007B1C00930123786806F086F80346FB7377
:10102000FB7B18461037BD4680BD80B584B000AF4D
:1010300078600B46FB701346BB700023FB73FB7894
:10104000002219467868FFF797FF0346FB73F9788B
:10105000802306227868FFF7BBFF0346FB73C82096
:1010600004F0A0FFF978012306227868FFF7B0FFAB
:101070000346FB73F978382307227868FFF7A8FF47
:101080000346FB73FB78022219467868FFF774FF6A
:101090000346FB73BB785B005BB243F019035BB2A2
:1010A000DBB2F97801227868FFF792FF0346FB7301
:1010B000F978042300227868FFF78AFF0346FB7360
:1010C000FB78002219467868FFF756FF0346FB734A
:1010D000F97802230F227868FFF77AFF0346FB7343
:1010E00000BF1037BD4680BD80B582B000AF04F0B0
:1010F000E7FE00F073F900F051FD00F07BFC00F01A
:1011000043FC00F03BFB00F01FFD00F097FA00F0FD
:1011100089FB00F065FA00F0BFF900F0D7FB00F0A2
:101120000DFA04F0F1F9032200217048FFF77DFF6A
:101130006F4B64221A706E4B00225A806D4B002256
:101140001A706C4B00225A706B4B1A78694B9A706C
:1011500000237B600CE064233B7000237B80654AA6
:101160007B689B0013443A685A607B6801337B605C
:10117000614B1B781A467B689342ECDB9FED5F1A4C
:10118000DFED5F0AB0EE040A5E4801F077FA9FEDEA
:101190005C1ADFED5B0AB0EE040A5B4801F06EFA00
:1011A0009FED571ADFED560AB7EE080A574801F0CF
:1011B00065FA574B1B781A465649574809F063F9A8
:1011C0000C21564807F0B8FB0021554807F0B4FB46
:1011D0000421534807F0B0FB3C21524807F040FF80
:1011E0004E4B1B684A221A644FF4967004F0DAFEE4
:1011F0000AF0F8F84C4A00214C480AF03DF9034641
:101200004B4A13604B4A00214B480AF035F903461C
:101210004A4A13604A4A00214A480AF02DF9034617
:10122000494A1360494A002149480AF025F9034612
:10123000484A1360484A002148480AF01DF903460D
:10124000474A1360474A002147480AF015F9034608
:10125000464A1360464A002146480AF00DF9034603
:10126000454A1360454A002145480AF005F90346FE
:10127000444A1360444A002144480AF0FDF80346FA
:10128000434A1360434A002143480AF0F5F80346F5
:10129000424A1360424A002142480AF0EDF80346F0
:1012A000414A1360414A002141480AF0E5F80346EB
:1012B000404A1360404A002140480AF0DDF80346E6
:1012C0003F4A13603F4A00213F480AF0D5F80346E1
:1012D0003E4A13603E4A00213E480AF0CDF80346DC
:1012E0003D4A13600AF0A2F800BFFDE7CC030020DE
:1012F000940600206006002001000020CDCC4C3F69
:1013000000000000E0060020CC060020F4060020CB
:101310000000002054060020D005002020040020FA
:101320008805002068040020080F0108F13C00082F
:10133000180600202C0F0108353D00081C0600206F
:10134000500F01087542000820060020740F0108A4
:101350005543000824060020980F0108C9450008DD
:1013600028060020BC0F0108394600082C06002082
:10137000E00F01083547000830060020041001087E
:101380000D4900083406002028100108194B0008F8
:10139000380600204C100108254D00083C060020AE
:1013A000701001081D4F000840060020941001082D
:1013B0004152000844060020B8100108BD52000840
:1013C00048060020DC100108415100084C060020AE
:1013D00000110108C12500085006002080B594B016
:1013E00000AF07F120033022002118460DF02DFC3C
:1013F00007F10C0300221A605A609A60DA601A61E1
:101400000023BB60224B1B6C214A43F080531364C2
:101410001F4B1B6C03F08053BB60BB6800237B60D9
:101420001C4B1B681B4A43F480431360194B1B6819
:1014300003F480437B607B6802233B620123FB62F1
:1014400010233B630023BB6307F12003184606F01B
:1014500073FD0346002B01D003F0A8FF0F23FB60B0
:1014600000233B6100237B610023BB610023FB6100
:1014700007F10C030021184606F0D6FF0346002BA7
:1014800001D003F093FF00BF5037BD4680BD00BFC1
:10149000003802400070004080B584B000AF3B4689
:1014A00000221A605A609A60DA60214B214A1A6061
:1014B0001F4B00225A601E4B00229A601C4B0022D8
:1014C0001A611B4B00221A76194B002283F8202048
:1014D000174B0022DA62164B174A9A62144B00220D
:1014E000DA60134B0122DA61114B002283F83020BD
:1014F0000F4B01225A610E4804F078FD0346002B81
:1015000001D003F053FF0B233B6001237B600023DA
:10151000BB603B461946064804F04AFF0346002BD1
:1015200001D003F043FF00BF1037BD4680BD00BFB0
:101530003C030020002001400100000F80B584B072
:1015400000AF3B4600221A605A609A60DA60214B75
:10155000214A1A601F4B00225A601E4B00229A60DB
:101560001C4B00221A611B4B00221A76194B0022D9
:1015700083F82020174B0022DA62164B174A9A6232
:10158000144B0022DA60134B0122DA61114B002266
:1015900083F830200F4B01225A610E4804F026FDDB
:1015A0000346002B01D003F001FF0C233B60012315
:1015B0007B600023BB603B461946064804F0F8FEFA
:1015C0000346002B01D003F0F1FE00BF1037BD46EB
:1015D00080BD00BF84030020002101400100000FF6
:1015E00080B500AF124B134A1A60114B124A5A6071
:1015F0000F4B00229A600E4B0022DA600C4B4FF426
:1016000080421A610A4B00225A61094B00229A61FA
:10161000074B0022DA61064B00221A62044805F0EB
:101620003FFC0346002B01D003F0C0FE00BF80BD8D
:10163000CC03002000540040A086010080B596B085
:1016400000AF07F1480300221A605A609A60DA601E
:1016500007F1400300221A605A6007F124030022B8
:101660001A605A609A60DA601A615A619A613B1D89
:101670002022002118460DF0E8FA3E4B3E4A1A603F
:101680003C4B4FF4A0725A603A4B00229A60394B9F
:101690004FF47A72DA60374B00221A61354B002220
:1016A0005A61344B80229A61324807F09DF8034614
:1016B000002B01D003F07AFE4FF48053BB6407F196
:1016C000480319462B4807F0A7FF0346002B01D01B
:1016D00003F06CFE274807F0D6F80346002B01D034
:1016E00003F064FE00233B6400237B6407F14003A6
:1016F0001946204808F00AFD0346002B01D003F0EC
:1017000055FE60237B620023BB620023FB62002343
:101710007B630023BB630023FB6307F124030C22DC
:101720001946144807F0B6FE0346002B01D003F01B
:101730003DFE00237B600023BB600023FB60002391
:101740003B6100237B614FF40053BB6100233B628C
:101750003B1D1946074808F055FD0346002B01D0F4
:1017600003F024FE034804F0D1F900BF5837BD460A
:1017700080BD00BF200400200000014080B58CB077
:1017800000AF07F10C032422002118460DF05DFA8A
:101790003B1D00221A605A60214B4FF080421A60B4
:1017A0001F4B00225A601E4B00229A601C4B4FF6C2
:1017B000FF72DA601A4B00221A61194B00229A61FB
:1017C0000323FB6000233B6101237B610023BB619A
:1017D0000A23FB6100233B6201237B620023BB627F
:1017E0000A23FB6207F10C0319460D4807F092FB30
:1017F0000346002B01D003F0D9FD00237B600023BA
:10180000BB603B1D1946064808F080FC0346002BD0
:1018100001D003F0CBFD00BF3037BD4680BD00BF17
:101820006804002080B58CB000AF07F10C032422BF
:10183000002118460DF009FA3B1D00221A605A607B
:10184000204B214A1A601F4B00225A601D4B002278
:101850009A601C4B4FF6FF72DA601A4B00221A6135
:10186000184B00229A610323FB6000233B61012394
:101870007B610023BB610A23FB6100233B620123E0
:101880007B620023BB620A23FB6207F10C0319464B
:101890000C4807F03FFB0346002B01D003F086FD08
:1018A00000237B600023BB603B1D1946054808F000
:1018B0002DFC0346002B01D003F078FD00BF30372C
:1018C000BD4680BDB00400200004004080B586B055
:1018D00000AF07F1100300221A605A603B46002255
:1018E0001A605A609A60DA60254B264A1A60244BC7
:1018F0000F225A60224B00229A60214B4FF6FF7252
:10190000DA601F4B00221A611D4B00229A611C48AD
:1019100007F0DAF80346002B01D003F047FD00235F
:101920003B6100237B6107F110031946144808F05E
:10193000EDFB0346002B01D003F038FD00233B6094
:1019400001237B600023BB600023FB603B46042235
:1019500019460B4807F002FD0346002B01D003F0A7
:1019600025FD3B4600221946054807F0F7FC0346D3
:10197000002B01D003F01AFD00BF1837BD4680BD13
:10198000F80400200008004080B582B000AF3B465C
:1019900000221A605A60154B154A1A60134B002238
:1019A0005A60124B00229A60104B4FF6FF72DA60B9
:1019B0000E4B00229A610D4806F016FF0346002BDD
:1019C00001D003F0F3FC00233B6000237B603B4627
:1019D0001946064808F09AFB0346002B01D003F095
:1019E000E5FC00BF0837BD4680BD00BF40050020B4
:1019F0000010004080B596B000AF07F14803002208
:101A00001A605A609A60DA6007F1400300221A6097
:101A10005A6007F1240300221A605A609A60DA6063
:101A20001A615A619A613B1D2022002118460DF06F
:101A30000CF9434B434A1A60414B00225A60404B19
:101A400000229A603E4B41F61F42DA603C4B002276
:101A50001A613B4B00225A61394B00229A61384887
:101A600006F0C2FE0346002B01D003F09FFC4FF4AA
:101A70008053BB6407F148031946314807F0CCFD99
:101A80000346002B01D003F091FC2D4806F0FBFE2D
:101A90000346002B01D003F089FC00233B640023A4
:101AA0007B6407F140031946254808F02FFB0346E5
:101AB000002B01D003F07AFC60237B620023BB6221
:101AC0000023FB6200233B6300237B630023BB6393
:101AD0000023FB6307F1240300221946184807F08E
:101AE000D9FC0346002B01D003F060FC07F124036E
:101AF00004221946124807F0CDFC0346002B01D002
:101B000003F054FC00237B600023BB600023FB60D8
:101B100000233B6100237B614FF40053BB61002332
:101B20003B623B1D1946064808F06CFB0346002B40
:101B300001D003F03BFC00BF5837BD4680BD00BF5D
:101B4000880500200004014080B500AF114B124A07
:101B50001A60104B4FF4E1325A600E4B00229A602B
:101B60000C4B0022DA600B4B00221A61094B0C224D
:101B70005A61084B00229A61064B0022DA6105483F
:101B800008F0A6FB0346002B01D003F00FFC00BFBA
:101B900080BD00BFD00500200048004080B58CB05B
:101BA00000AF07F11C0300221A605A609A60DA60E5
:101BB0001A610023BB615B4B1B6B5A4A43F0100355
:101BC0001363584B1B6B03F01003BB61BB6900230D
:101BD0007B61544B1B6B534A43F080031363514B9F
:101BE0001B6B03F080037B617B6900233B614D4BE2
:101BF0001B6B4C4A43F0040313634A4B1B6B03F00B
:101C000004033B613B690023FB60464B1B6B454A69
:101C100043F001031363434B1B6B03F00103FB60B1
:101C2000FB680023BB603F4B1B6B3E4A43F0020343
:101C300013633C4B1B6B03F00203BB60BB680023C8
:101C40007B60384B1B6B374A43F008031363354BFB
:101C50001B6B03F008037B607B6800224FF4BC61C0
:101C6000314805F003F900223C21304805F0FEF828
:101C700000224FF482612E4805F0F8F800224FF45C
:101C800000512C4805F0F2F84FF4BC63FB610123CE
:101C90003B6200237B620023BB6207F11C031946F1
:101CA000214804F047FF3C23FB6101233B620023F2
:101CB0007B620223BB6207F11C0319461B4804F038
:101CC00039FF4FF48263FB6101233B6200237B6297
:101CD0000023BB6207F11C031946154804F02AFFD4
:101CE0004FF48073FB614FF404133B6200237B626B
:101CF00007F11C0319460F4804F01CFF4FF4005372
:101D0000FB6101233B6200237B620023BB6207F17E
:101D10001C031946074804F00DFF00BF3037BD46CD
:101D200080BD00BF003802400010024000000240A9
:101D300000040240000C024080B58AB000AF786019
:101D400040F6FF7304229249924808F011FB904B31
:101D50009B78A3F1300213469B0013445B001A46A4
:101D60008B4BDB78303B13447B62894B5B782F2BAA
:101D70000CD9874B5B78392B08D8854B5B78303B87
:101D8000642202FB03F37A6A13447B62824B0022D3
:101D90001A707F4B1B78532B59D17D4B5B78542B9A
:101DA00055D17E4B1B6800225A637C4B1B68002276
:101DB0009A637B4B1A787B4B1A70794B0B221A7003
:101DC000794B4FF000021A60784B00221A80784855
:101DD00000F075FC774800F072FC774800F06FFC6B
:101DE000764B00221A80764B1A78754B5B789A42B4
:101DF00012D1744B64221A70724B00225A80724ABC
:101E00000F2172480CF08AFE4FF6FF7306227049CC
:101E1000604808F0ADFA08E3694B5B78694A6849A5
:101E20009B000B445B681360654B5B780133644A2D
:101E3000927893FBF2F101FB02F29B1ADAB2604B4B
:101E40005A70644A0F2161480CF068FEEDE2504B75
:101E50001B78462B3DD14E4B5B78572B03D04C4B18
:101E60005B78532B35D14A4B9B782D2B05D1484BB2
:101E7000DB782D2B01D1012300E00023DAB2464BA1
:101E80001A70434B5B78532B14BF01230023DBB242
:101E90001A46514B1A704A4B1B78494A9B0013440F
:101EA00001221A71464B1B787A6A91B2444A9B0010
:101EB00013440A46DA80424B1B780133404A927839
:101EC00093FBF2F101FB02F29B1ADAB23C4B1A705F
:101ED000ABE22F4B1B78422B3DD12D4B5B78572B20
:101EE00003D02B4B5B78532B35D1294B9B782D2B73
:101EF00005D1274BDB782D2B01D1012300E00023F6
:101F0000DAB2254B1A70224B5B78532B14BF012396
:101F10000023DBB21A46304B1A70294B1B78284A33
:101F20009B00134402221A71254B1B787A6A91B2E6
:101F3000234A9B0013440A46DA80214B1B78013365
:101F40001F4A927893FBF2F101FB02F29B1ADAB27C
:101F50001B4B1A7069E20E4B1B78462B5DD10C4B64
:101F60005B784C2B59D10A4B9B782D2B05D1084B14
:101F7000DB782D2B01D1012300E00023DAB2064BE0
:101F80001A70054B1B78002B28D0032127E000BFD7
:101F900054060020D0050020A80600208805002057
:101FA0003401002035010020B0060020B6060020D4
:101FB000E0060020CC060020F4060020C406002025
:101FC0006006002094060020A40E01089806002058
:101FD000AC0E0108B40E01083601002007218D4B1C
:101FE0001B788C4A9B0013440A461A71894B1B7854
:101FF0007A6A91B2874A9B0013440A46DA80854B7D
:102000001B780133834A927893FBF2F101FB02F2D1
:102010009B1ADAB27F4B1A7007E27F4B1B78462B74
:1020200036D17D4B5B78522B32D17B4B9B782D2B5D
:1020300005D1794BDB782D2B01D1012300E0002362
:10204000DAB2764B1A70754B1B78002B01D0042145
:1020500000E008216F4B1B786E4A9B0013440A4630
:102060001A716C4B1B787A6A91B26A4A9B001344CE
:102070000A46DA80674B1B780133664A927893FBF5
:10208000F2F101FB02F29B1ADAB2624B1A70CCE158
:10209000614B1B78422B36D15F4B5B784C2B32D196
:1020A0005D4B9B782D2B05D15B4BDB782D2B01D124
:1020B000012300E00023DAB2584B1A70574B1B780B
:1020C000002B01D0052100E00921524B1B78514A19
:1020D0009B0013440A461A714E4B1B787A6A91B2E0
:1020E0004C4A9B0013440A46DA804A4B1B78013362
:1020F000484A927893FBF2F101FB02F29B1ADAB2A2
:10210000444B1A7091E1444B1B78422B36D1424B21
:102110005B78522B32D1404B9B782D2B05D13E4B17
:10212000DB782D2B01D1012300E00023DAB23B4BF9
:102130001A703A4B1B78002B01D0062100E00A21CF
:10214000344B1B78334A9B0013440A461A71314BB7
:102150001B787A6A91B22F4A9B0013440A46DA80B0
:102160002C4B1B7801332B4A927893FBF2F101FB45
:1021700002F29B1ADAB2274B1A7056E1264B1B78F3
:10218000542B21D1244B5B784C2B1DD1214B1B7838
:10219000204A9B0013440B221A711E4B1B787A6A4B
:1021A00091B21C4A9B0013440A46DA80194B1B78F3
:1021B0000133184A927893FBF2F101FB02F29B1A69
:1021C000DAB2144B1A7030E1134B1B78542B27D121
:1021D000114B5B78522B23D10E4B1B780D4A9B0081
:1021E00013440C221A710B4B1B787A6A91B2094A7C
:1021F0009B0013440A46DA80064B1B780133054ADC
:10220000927893FBF2F101FB02F29B1ADAB2014BD6
:102210001A700AE16006002054060020A80600207B
:102220006F4B1B78492B21D16D4B5B78522B1DD105
:102230006C4B1B786B4A9B0013440D221A71694B3F
:102240001B787A6A91B2674A9B0013440A46DA8087
:10225000644B1B780133634A927893FBF2F101FBE4
:1022600002F29B1ADAB25F4B1A70DEE05C4B1B780D
:10227000442B21D15A4B5B78542B1DD1594B1B78E1
:10228000584A9B0013440E221A71564B1B787A6AE7
:1022900091B2544A9B0013440A46DA80514B1B7892
:1022A0000133504A927893FBF2F101FB02F29B1A40
:1022B000DAB24C4B1A70B8E0494B1B785A2B21D13B
:1022C000474B5B785A2B1DD1464B1B78454A9B00E8
:1022D00013440F221A71434B1B787A6A91B2414A18
:1022E0009B0013440A46DA803E4B1B7801333D4A7B
:1022F000927893FBF2F101FB02F29B1ADAB2394BAE
:102300001A7092E0364B1B78572B21D1344B5B78F7
:10231000582B1DD1334B1B78324A9B00134410229B
:102320001A71304B1B787A6A91B22E4A9B00134483
:102330000A46DA802B4B1B7801332A4A927893FBAA
:10234000F2F101FB02F29B1ADAB2264B1A706CE032
:10235000234B1B78572B21D1214B5B784E2B1DD162
:10236000204B1B781F4A9B00134411221A711D4BEE
:102370001B787A6A91B21B4A9B0013440A46DA80A2
:10238000184B1B780133174A927893FBF2F101FB4B
:1023900002F29B1ADAB2134B1A7046E0104B1B780C
:1023A000412B21D10F4B1B780E4A9B00134458221E
:1023B0001A710C4B1B787A6A91B20A4A9B0013443B
:1023C0000A46DA80074B1B780133064A927893FB62
:1023D000F2F101FB02F29B1ADAB2024B1A7024E00E
:1023E0005406002060060020414B1B78432B1CD173
:1023F000404B1B783F4A9B00134459221A713D4BB6
:102400001B787A6A91B23B4A9B0013440A46DA80F1
:10241000384B1B780133374A927893FBF2F101FB7A
:1024200002F29B1ADAB2334B1A70324B1A78314BE4
:102430005B789A4219D02F4B5B782F4A2D499B002D
:102440000B445B6813602B4B5B780133294A92780D
:1024500093FBF2F101FB02F29B1ADAB2254B5A70A0
:10246000264A0F2126480CF059FB264B1B685B6857
:10247000254B1B781A461E49224808F004F81C4BCD
:102480001B7887F823301A4B5B7887F82230184B7B
:102490009B782D2B08D1164BDB78312B04D11B4BAD
:1024A0004FF0FF321A600DE0114B5B88BB830023B5
:1024B000BB7707F11C0318460BF08EFD03461A4646
:1024C000124B1A60124A97F823301370114A97F88A
:1024D000223013700F4B1B781A460C4B1B6807F108
:1024E00008000D490CF04EFB00BF2837BD4680BDEB
:1024F000540600206006002094060020B40E010857
:1025000098060020D005002000000020440700208D
:102510004907002048070020BC0E010880B500AF25
:10252000094803F0A7FD0A21074803F0A8FE064862
:1025300003F030FF03469AB2044B1A80024803F0BE
:102540006BFE00BF80BD00BF3C0300203C070020A5
:1025500080B582B000AF00237B6000233B601AE0AF
:10256000144803F087FD0A21124803F088FE114841
:1025700003F010FF02467B6813447B600D4803F0B4
:1025800009FF03469AB20C4B1A800A4803F044FE36
:102590003B6801333B603B68042BE1DD7B68074A05
:1025A00082FB03125210DB17D31A18460837BD46B8
:1025B00080BD00BF840300203E070020676666667A
:1025C00080B588B000AF78600023FB6007F110038E
:1025D00000221A605A609A60DA60204B1B881A4603
:1025E0001F4B1B8807F10C001E490CF0CBFA1E4B49
:1025F0001B68012B04D11D4B1B68184609F0A8FF6E
:10260000FFF78CFFFFF7A4FF194B5B784C2B0BD126
:10261000184B1B88A3F2F313104A1288934203DD70
:10262000154B1B68012B0FD0114B5B78522B10D12F
:10263000104B1B88A3F2F313094A1288934208DD5A
:102640000D4B1B68012B04D10B4B00221A6002F0CA
:10265000D5FD322008F0A2FFBFE700BF3C070020F5
:102660003E070020C80E010840010020500600204F
:10267000540600203E0100204007002080B485B0B1
:1026800000AFF86087ED020AC7ED010A87ED001A76
:10269000FB68BA681A60FB687A685A60FB683A6837
:1026A0009A60FB684FF00002DA60FB684FF00002AE
:1026B0001A6100BF1437BD465DF8047B704780B4D3
:1026C00083B000AF78607B684FF00002DA607B680F
:1026D0004FF000021A6100BF0C37BD465DF8047B65
:1026E0007047000080B586B004AF0346FB714FF61B
:1026F000FF73029302230193A94B00930123372216
:10270000D021A84804F00AFEA54B1B781B021AB280
:10271000A34B5B781BB213431AB2A34B1A80A34B93
:102720001B681B6803F01003102B01D1012201E08C
:102730004FF0FF329E4B1A709B4BB3F9003013F1F0
:10274000040F04DB984BB3F900300B2B07DD964BDD
:10275000B3F9003007EE903AF8EEE77A01E0DFEDEA
:10276000957A954B93ED007A77EE877A924BC3ED8D
:10277000007AFB79002B64D1904B93ED007A8E4B5D
:10278000D3ED007A27EE277A8C4BD3ED016A8B4B81
:10279000D3ED047A66EEA77A37EE277A874BD3ED2E
:1027A000026A864B93ED036A834BD3ED007A76EE93
:1027B000677A66EEA77A77EE277AFDEEE77A17EE6C
:1027C000902A7F4B1A607C4B1B687C4AD3607B4B02
:1027D00093ED047A784BD3ED007A77EE277A774B36
:1027E000C3ED047A764B1B68B3F5167F06DC744B99
:1027F0001B68744A9342B8BF134601E04FF4167346
:102800006F4A13606A4B93F900309AB26C4B1B68A5
:102810009BB212FB03F39BB203F596639AB26A4B29
:102820001A80634B93F900309AB2654B1B689BB2D8
:1028300012FB03F39BB2C3F596639AB2634B1A8003
:10284000EFE0FB79022B65D1614B93ED007A5A4B97
:10285000D3ED007A27EE277A5D4BD3ED016A5C4B0E
:10286000D3ED047A66EEA77A37EE277A584BD3ED8C
:10287000026A574B93ED036A4F4BD3ED007A76EE25
:10288000677A66EEA77A77EE277AFDEEE77A17EE9B
:10289000902A4B4B1A60484B1B684D4AD3604C4BF7
:1028A00093ED047A444BD3ED007A77EE277A484BC8
:1028B000C3ED047A424B1B68B3F52F7F06DC404B17
:1028C0001B68444A9342B8BF134601E04FF42F738C
:1028D0003B4A1360364B93F900309AB2384B1B6871
:1028E0009BB212FB03F39BB203F6B8339AB2364B9A
:1028F0001A802F4B93F900309AB2314B1B689BB270
:1029000012FB03F39BB2C3F53B6308339AB22F4B20
:102910001A8086E0FB79012B40F083802E4B93EDEB
:10292000007A254BD3ED007A27EE277A2A4BD3ED98
:10293000016A294BD3ED047A66EEA77A37EE277A3F
:10294000254BD3ED026A244B93ED036A1A4BD3ED6A
:10295000007A76EE677A66EEA77A77EE277AFDEE52
:10296000E77A17EE902A164B1A60134B1B681A4A27
:10297000D360194B93ED047A0F4BD3ED007A77EEC9
:10298000277A154BC3ED047A0D4B1B68B3F52F7FE7
:1029900024DC0B4B1B680F4A9342B8BF13461FE061
:1029A000B4060020CC030020B606002068040020F6
:1029B0004401002000000000B0060020E0060020D6
:1029C00050070020A8FDFFFFB8060020BA0600202F
:1029D000F406002044FDFFFFCC0600204FF42F73C7
:1029E000174A1360174B93F900309AB2144B1B68C7
:1029F0009BB212FB03F39BB203F6FC039AB2124B99
:102A00001A80104B93F900309AB20D4B1B689BB2A1
:102A100012FB03F39BB2C3F50F630C339AB20B4B5B
:102A20001A80094B1A880A4B1B685A63074B1A888D
:102A3000074B1B689A6300BF0837BD4680BD00BFC7
:102A40005007002044010020B8060020BA060020EC
:102A50008805002080B586B004AF03463960FB715D
:102A60004FF6FF730293022301939B4B00930123C4
:102A70003722D021994804F051FC974B1B781B0258
:102A80001AB2954B5B781BB213431AB2944B1A805F
:102A9000944B1B681B6803F01003102B01D101221B
:102AA00001E04FF0FF32904B1A708D4BB3F90030BC
:102AB00013F1040F04DB8A4BB3F900300B2B07DD55
:102AC000874BB3F9003007EE903AF8EEE77A01E071
:102AD000DFED867A864B93ED007A77EE877A844B2A
:102AE000C3ED007AFB79012B65D1824B93ED007A1F
:102AF0007F4BD3ED007A27EE277A7E4BD3ED016A28
:102B00007C4BD3ED047A66EEA77A37EE277A794BC1
:102B1000D3ED026A774B93ED036A754BD3ED007AE0
:102B200076EE677A66EEA77A77EE277AFDEEE77A99
:102B300017EE902A704B1A606D4B1B686D4AD3607C
:102B40006C4B93ED047A6A4BD3ED007A77EE277ADB
:102B5000684BC3ED047A684B1B68B3F52F7F06DC26
:102B6000654B1B68654A9342B8BF134601E04FF4BA
:102B70002F73614A13605C4B93F900309AB25E4B3D
:102B80001B689BB212FB03F39BB203F6FC039AB2E1
:102B90005B4B1A80544B93F900309AB2564B1B682A
:102BA0009BB212FB03F39BB2C3F50F630C339AB2D3
:102BB000544B1A8067E0FB79022B64D1524B93EDA2
:102BC000007A4B4BD3ED007A27EE277A4E4BD3EDAC
:102BD000016A4D4BD3ED047A66EEA77A37EE277A79
:102BE000494BD3ED026A484B93ED036A404BD3ED5A
:102BF000007A76EE677A66EEA77A77EE277AFDEEB0
:102C0000E77A17EE902A3C4B1A60394B1B683E4A14
:102C1000D3603D4B93ED047A354BD3ED007A77EEDC
:102C2000277A394BC3ED047A334B1B68B3F52F7FFA
:102C300006DC314B1B68314A9342B8BF134601E0B2
:102C40004FF42F732C4A1360274B93F900309AB23C
:102C5000294B1B689BB212FB03F39BB203F6B833FC
:102C60009AB2274B1A80204B93F900309AB2224B2C
:102C70001B689BB212FB03F39BB2C3F53B630833A3
:102C80009AB2204B1A801E4B1B8807EE903AB8EE82
:102C9000E77A3B68D3ED007A67EE277A1B4B1B6817
:102CA000FCEEE77A17EE902A5A63164B1B8807EE64
:102CB000903AB8EEE77A3B68D3ED007A67EE277A70
:102CC000124B1B68FCEEE77A17EE902A9A6300BF5E
:102CD0000837BD4680BD00BFB4060020CC030020ED
:102CE000B606002068040020440100200000000017
:102CF000B0060020CC0600205007002044FDFFFF56
:102D0000B8060020BA060020F4060020880500203E
:102D100080B584B000AF78600B46FB701346BB7083
:102D2000A14B4FF000021A60A04B00221A80A0486D
:102D3000FFF7C5FC9F48FFF7C2FC9F48FFF7BFFCA9
:102D40009E4B00221A807B681B681846FDF7FCFB2F
:102D50008FA3D3E90023FDF74FFC02460B46104634
:102D600019468DA3D3E90023FDF78EFA02460B46E0
:102D7000104619464FF00002914BFDF767FD0246E1
:102D80000B46104619464FF000028E4BFDF734FCFF
:102D900002460B46104619464FF000028A4BFDF7DB
:102DA00073FA02460B4610461946FDF7FDFE034630
:102DB0009AB2864B1A8003F0E9F80346844A1360FE
:102DC000FB78002B0CBF01230023DBB21A46042141
:102DD000804804F04BF8FB78002B14BF012300233C
:102DE000DBB21A4608217B4804F040F8FB78002B40
:102DF0000CBF01230023DBB21A462021754804F0E2
:102E000035F8FB78002B14BF01230023DBB21A46F0
:102E10001021704804F02AF86F4B1B685B6A9AB265
:102E20006E4B1A806C4B1B685B6AFB606A4B1B68BD
:102E30001B6803F01003102B17D1684B1B881A4630
:102E4000FB68934206D8654B1A88FB689BB2D31A7D
:102E50009BB207E0614B1A88FB689BB2D31A9BB206
:102E6000013B9BB25E4A138016E05C4B1B881A46FE
:102E7000FB68934206D3FB689AB2584B1B88D31A5F
:102E80009BB207E0FB689AB2544B1B88D31A9BB2E3
:102E9000013B9BB2524A1380FB689AB24F4B1A8097
:102EA000464B1A884E4B1B8813449AB2434B1A80E8
:102EB000424B1A88454B1B889A4280F0A88003F049
:102EC00065F80246424B1B68D31A092BAAD9BB7876
:102ED000002B03D10020FFF705FC92E0374B1B8845
:102EE0001A463A4B1B88D31A002BB8BF5B423D4AA7
:102EF00082FB0312D211DB17D31A07EE903AF8EED9
:102F0000E77A394BC3ED007ABB78012B1ED1364BE3
:102F1000D3ED007AB7EE007AF4EEC77AF1EE10FA4C
:102F200002DD4FF07E530EE02F4BD3ED007AB6EE6C
:102F3000087AF4EEC77AF1EE10FA02D54FF07D531D
:102F400001E0294B1B68284A136055E0BB78022B2F
:102F500052D1254BD3ED007AB7EE007AF4EEC77A62
:102F6000F1EE10FA02DD4FF07E5343E01E4B1B687A
:102F70001846FDF7E9FA0AA3D3E90023FDF7AEFDF1
:102F80000346002B34D0194B34E000BFAFF3008070
:102F90002AB266FCAC66F23FF82625BBD4E3EE3FCE
:102FA0009A9999999999D93FB0060020B6060020C0
:102FB000E0060020CC060020F4060020C406002015
:102FC0000000344000A0944000002440C6060020C9
:102FD000BC0600200000024068040020CA06002051
:102FE000C80600206757192138010020CDCCCC3EFF
:102FF0000D4B1B680C4A1360BB780B491846FFF752
:1030000029FD02F0C3FF0346084A13600AE700BF28
:10301000074B1B6800225A63054B1B6800229A630A
:1030200000BF1037BD4680BD38010020BC0600201F
:10303000880500200000000080B582B000AF7860F5
:103040000B46FB70B44B4FF000021A60B34B0022EA
:103050001A80B348FFF733FBB248FFF730FBB248A2
:10306000FFF72DFB0421B14805F07EFD02F08EFF35
:103070000346AF4A136001221021AE4803F0F6FE6A
:10308000AA4B1B6800225A62A84B1B685B6A092B7B
:10309000FAD900221021A74803F0E8FEA34B1B68D1
:1030A000DA68A24B1B6842F00402DA600A2008F0DA
:1030B00075FA7B6893ED007A9F4B1B8807EE903A78
:1030C000F8EEE77A77EE677AFDEEE77A17EE903A58
:1030D000002B11DB7B6893ED007A974B1B8807EE82
:1030E000903AF8EEE77A77EE677AFDEEE77A17EE38
:1030F000903A002B40F3F9808F4B1B8807EE903AF3
:10310000B8EEE77A7B68D3ED007AB4EEE77AF1EEB9
:1031100010FAACBF01230023DBB283F00103DBB262
:10312000DBB21A460421854803F0A0FE824B1B88BF
:1031300007EE903AB8EEE77A7B68D3ED007AB4EE0A
:10314000E77AF1EE10FAACBF01230023DBB21A4696
:1031500008217A4803F08AFE774B1B8807EE903AE5
:10316000B8EEE77A7B68D3ED007AB4EEE77AF1EE59
:1031700010FAACBF01230023DBB283F00103DBB202
:10318000DBB21A4620216D4803F070FE6A4B1B88A3
:1031900007EE903AB8EEE77A7B68D3ED007AB4EEAA
:1031A000E77AF1EE10FAACBF01230023DBB21A4636
:1031B0001021624803F05AFE02F0E8FE02465C4B22
:1031C0001B68D31A132B7FF656AFFB78012B42D125
:1031D000594B1B8807EE903AB8EEE77A7B68D3ED3F
:1031E000007A77EE677AFDEEE77A17EE903A002BD9
:1031F000B8BF5B42524A82FB03121A44D210DB175B
:10320000D31A07EE903AF8EEE77A4E4BC3ED007A08
:103210004C4BD3ED007AB7EE007AF4EEC77AF1EEBC
:1032200010FA02DD4FF07E530EE0464BD3ED007AEC
:10323000B6EE087AF4EEC77AF1EE10FA02D54FF046
:103240007D5301E03F4B1B683E4A13603D4901201E
:10325000FFF700FC43E0384B1B8807EE903AB8EECE
:10326000E77A7B68D3ED007A77EE677AFDEEE77A4E
:1032700017EE903A002BB8BF5B42314A82FB031233
:103280001A44D210DB17D31A07EE903AF8EEE77A19
:103290002C4BC3ED007A2B4BD3ED007AB7EE007ABE
:1032A000F4EEC77AF1EE10FA02DD4FF07E5310E033
:1032B000244B1B681846FDF747F915A3D3E90023F3
:1032C000FDF70CFC0346002B01D01F4B01E01D4B0A
:1032D0001B681C4A13601B490220FFF7BBFB02F06E
:1032E00055FE0346124A1360C5E600BF174B1B6824
:1032F00000225A63154B1B6800229A6304210B4875
:1033000005F05AFD00BF0837BD4680BDAFF3008011
:103310009A9999999999D93FB0060020B60600204C
:10332000E0060020CC060020F4060020F80400206F
:10333000BC060020000402403407002000000240C8
:103340008988888838010020CDCCCC3E88050020B3
:1033500080B582B000AF7860A34B00221A80A34BE7
:1033600000221A60A24BA34A1A6002F00FFE034625
:10337000A14A1360A14802F07DFE14219F4802F08B
:103380007EFF9E4803F006F80246984B1B681344E4
:10339000964A1360944B1B885A1C994B83FB02136B
:1033A0009910D317C91A0B469B000B445B00D11A26
:1033B0008AB28D4B1A808C4B1B88092B29D18B4BE1
:1033C0001B68894A1288B3FBF2F31846FDF79AF896
:1033D0007FA3D3E90023FCF757FF02460B467EA1EB
:1033E000D1E90001FDF732FA02460B4610461946B4
:1033F000FDF7FAFB03467E4A13607C4B1B687A4A52
:103400001288B3FBF2F39AB27E4B1A80774B0022FC
:103410001A607A4802F000FF7B68D3ED007AF5EE7F
:10342000C07AF1EE10FA1CDD7B6893ED007A704BE8
:10343000D3ED007A77EE677AFDEEE77A17EE903AF1
:10344000002B0EDB7B6893ED007A694BD3ED007A9D
:1034500077EE677AFDEEE77A17EE903A002B40F3AD
:10346000A4807B6893ED007A614BD3ED007AB4EED3
:10347000E77AF1EE10FA94BF01230023DBB283F068
:103480000103DBB2DBB21A4604215F4803F0EEFC15
:103490007B6893ED007A564BD3ED007AB4EEE77A71
:1034A000F1EE10FA94BF01230023DBB21A46082183
:1034B000554803F0DBFC7B6893ED007A4C4BD3ED71
:1034C000007AB4EEE77AF1EE10FA94BF01230023FC
:1034D000DBB283F00103DBB2DBB21A4620214A489B
:1034E00003F0C4FC7B6893ED007A414BD3ED007A86
:1034F000B4EEE77AF1EE10FA94BF01230023DBB2B9
:103500001A461021404803F0B1FC02F03FFD02468C
:10351000394B1B68D31A092B7FF62CAF344B93ED34
:10352000007A7B68D3ED007A77EE677AFDEEE77A72
:1035300017EE903A002BB8BF5B42344A82FB03126D
:103540001A44D210DB17D31A07EE903AF8EEE77A56
:103550002F4BC3ED007A2E4BD3ED007AB7EE007AF5
:10356000F4EEC77AF1EE10FA02DD4FF07E5310E070
:10357000274B1B681846FCF7E7FF19A3D3E9002384
:10358000FDF7ACFA0346002B01D0224B01E0204BA3
:103590001B681F4A13601E490220FFF75BFA02F006
:1035A000F5FC0346144A1360E4E600BF1A4B1B689F
:1035B00000225A63184B1B6800229A630F4802F0DE
:1035C0002BFE00BF0837BD4680BD00BFAFF30080B3
:1035D000D32357FBC546704066834C32340BD94029
:1035E000333333333333D33F14070020180700201D
:1035F0000C07002000007A44BC0600203C03002099
:10360000676666660807002000000240898888888F
:10361000380100209A99993E88050020000000009A
:10362000B0B58CB004AF78604B4B4FF000021A601D
:103630004A4B00221A8002F0A9FC0346484A136054
:1036400002F0A4FC0246464B1B68D31A092BF7D99B
:103650004FF6FF73029302230193424B0093012321
:103660003722D021404803F059FE3E4B1B781B0205
:103670001AB23C4B5B781BB213431AB2374B1A8019
:10368000354B1B681846FCF75FFF04460D46334B6D
:10369000B3F900301846FCF745FF2BA3D3E900230C
:1036A000FDF7D4F802460B461046194628A3D3E985
:1036B0000023FCF7A1FF02460B4620462946FCF7F3
:1036C000E5FD02460B4610461946FDF78DFA034606
:1036D000214A1360204B93ED007A7B68D3ED007A8A
:1036E00077EE677AFDEEE77A17EE903A002B0DDB66
:1036F000194B93ED007A7B68D3ED007A77EE677A09
:10370000FDEEE77A17EE903A002B05DD02F03EFC65
:103710000346134A136093E700BF144B1B68002253
:103720005A63124B1B6800229A63114B1B684A2292
:103730001A644FF4967002F035FC00BF2037BD4686
:10374000B0BD00BFAFF30080666666666666304057
:103750007B14AE47E17A843FB0060020B606002015
:10376000BC060020B4060020CC0300208805002001
:10377000200400200000000080B500AFB24B4FF0E5
:1037800000021A60B14B4FF000021A60B04B4FF0CC
:1037900000021A60AF4B00221A8002F0F7FB0346CA
:1037A000AD4A1360AD4802F065FC1421AB4802F04D
:1037B00066FDAA4802F0EEFD0246A94B1B681344C1
:1037C000A74A1360A74B1B885A1CA74B83FB021305
:1037D0009910D317C91A0B469B000B445B00D11AF2
:1037E0008AB2A04B1A809F4B1B88092B29D19C4B76
:1037F0001B689C4A1288B3FBF2F31846FCF782FE62
:103800008DA3D3E90023FCF73FFD02460B468CA1B4
:10381000D1E90001FDF71AF802460B461046194699
:10382000FDF7E2F90346884A13608D4B1B688D4A09
:103830001288B3FBF2F39AB28C4B1A80884B0022A9
:103840001A60864802F0E8FC7F4BD3ED007AB3EEB5
:10385000047AF4EEC77AF1EE10FA07DC7A4BD3ED76
:10386000007AF5EEC07AF1EE10FA65D5804802F0E4
:1038700001FC14217E4802F002FD7D4802F08AFD21
:1038800002467C4B1B6813447A4A13607A4B1B88B0
:103890005A1C754B83FB02139910D317C91A0B4698
:1038A0009B000B445B00D11A8AB2734B1A80724B97
:1038B0001B88092B29D16F4B1B686F4A1288B3FBF9
:1038C000F2F31846FCF71EFE5BA3D3E90023FCF7D6
:1038D000DBFC02460B465AA1D1E90001FCF7B6FF1A
:1038E00002460B4610461946FDF77EF90346574A35
:1038F0001360604B1B68604A1288B3FBF2F39AB204
:103900005E4B1A805B4B00221A60594802F084FC1F
:103910004E4BD3ED007AB3EE047AF4EEC77AF1EEB3
:1039200010FA00F3B680494BD3ED007AF5EEC07A79
:10393000F1EE10FA00F1AD804D4802F09BFB14212E
:103940004B4802F09CFC4A4802F024FD0246494BD9
:103950001B681344474A1360474B1B885A1C424B51
:1039600083FB02139910D317C91A0B469B000B4413
:103970005B00D11A8AB2404B1A803F4B1B88092B3F
:1039800029D13C4B1B683C4A1288B3FBF2F3184622
:10399000FCF7B8FD28A3D3E90023FCF775FC024629
:1039A0000B4627A1D1E90001FCF750FF02460B4668
:1039B00010461946FDF718F90346244A13602D4BAB
:1039C0001B682D4A1288B3FBF2F39AB22B4B1A8074
:1039D000284B00221A60264802F01EFC1B4BD3ED38
:1039E000007AB3EE047AF4EEC77AF1EE10FA07DC4F
:1039F000164BD3ED007AF5EEC07AF1EE10FA11D540
:103A0000114BD3ED007AB3EE047AF4EEC77AF1EEFF
:103A100010FA3EDC0C4BD3ED007AF5EEC07AF1EEF5
:103A200010FA36D402F0B2FA02460B4B1B68D31AD6
:103A3000042B7FF6B7AE23E0D32357FBC546704077
:103A400066834C32340BD9400C070020100700204D
:103A5000B0060020B6060020BC0600203C03002073
:103A60001807002014070020676666660807002014
:103A7000840300201C070020160700200A070020EE
:103A80000220FEF72FFE02F081FA0346064A136079
:103A900088E6064B1B6800225A63044B1B68002211
:103AA0009A6300BF80BD00BFBC06002088050020CF
:103AB00080B500AF7E4B7F4A1A607F4B4FF000020B
:103AC0001A607E4B00221A8002F060FA03467C4A9C
:103AD00013607C4802F0CEFA14217A4802F0CFFB42
:103AE000784802F057FC0246774B1B681344764A2D
:103AF0001360764B1B885A1C754B83FB021399107D
:103B0000D317C91A0B469B000B445B00D11A8AB22B
:103B10006E4B1A806D4B1B88092B29D16A4B1B6891
:103B20006A4A1288B3FBF2F31846FCF7EBFC5CA37D
:103B3000D3E90023FCF7A8FB02460B465AA1D1E9C2
:103B40000001FCF783FE02460B4610461946FDF7BE
:103B50004BF80346564A13605B4B1B685B4A12885E
:103B6000B3FBF2F39AB25B4B1A80574B00221A60F8
:103B7000544802F051FB584802F07CFA1421564890
:103B800002F07DFB544802F005FC0246534B1B68D3
:103B90001344524A1360524B1B885A1C4C4B83FBF4
:103BA00002139910D317C91A0B469B000B445B00F4
:103BB000D11A8AB24A4B1A80494B1B88092B29D14A
:103BC000464B1B68464A1288B3FBF2F31846FCF7D3
:103BD00099FC33A3D3E90023FCF756FB02460B46BE
:103BE00031A1D1E90001FCF731FE02460B46104637
:103BF0001946FCF7F9FF03463A4A1360374B1B6836
:103C0000374A1288B3FBF2F39AB2374B1A80334B20
:103C100000221A60304802F0FFFA254BD3ED007AFB
:103C2000B3EE097AF4EEC77AF1EE10FA07D5204B1D
:103C3000D3ED007AF5EEC07AF1EE10FA23DC294BD1
:103C4000D3ED007AB3EE097AF4EEC77AF1EE10FA0A
:103C500007D5244BD3ED007AF5EEC07AF1EE10FAD9
:103C600011DC02F093F90246154B1B68D31A042BA2
:103C70007FF62FAF0220FEF735FD02F087F90346ED
:103C80000F4A136025E7194B1B6800225A63174B34
:103C90001B6800229A6300BF80BD00BFAFF30080A5
:103CA000D32357FBC546704066834C32340BD94052
:103CB0000C07002000007A44B0060020B606002061
:103CC000BC0600203C030020180700201407002039
:103CD0006766666608070020840300201C07002032
:103CE00016070020100700200A0700208805002082
:103CF00080B592B000AF78600B4B1B881A4607F175
:103D000034030A4918460AF03DFF07F134014FF623
:103D1000FF730722064806F02BFB4FF47A7007F07A
:103D20003DFC00BFE8E700BF34070020D80E0108C3
:103D3000D005002080B582B000AF7860C64B1B78FC
:103D4000013B632B00F2788201A252F823F000BFFE
:103D5000E13E0008E13E0008FD3E0008FD3E00088F
:103D6000FD3E0008FD3E0008C9400008D74000089D
:103D7000E5400008F3400008014100080141000847
:103D800049410008514100085F4100086D410008A9
:103D90007B410008394200083942000839420008D6
:103DA0003942000839420008394200083942000807
:103DB00039420008394200083942000839420008F7
:103DC00039420008394200083942000839420008E7
:103DD00039420008394200083942000839420008D7
:103DE00039420008394200083942000839420008C7
:103DF00039420008394200083942000839420008B7
:103E000039420008394200083942000839420008A6
:103E10003942000839420008394200083942000896
:103E20003942000839420008394200083942000886
:103E30003942000839420008394200083942000876
:103E40003942000839420008394200083942000866
:103E50003942000839420008394200083942000856
:103E60003942000839420008394200083942000846
:103E70003942000839420008394200083942000836
:103E80003942000839420008394200083942000826
:103E90003942000839420008394200083942000816
:103EA00039420008394200083942000889410008B7
:103EB00089410008394200083942000839420008A7
:103EC00039420008394200083942000839420008E6
:103ED00039420008394200083942000839420008D6
:103EE0005D4B1B78012B14BF01230023DBB21A4664
:103EF0005A4B1A70584B63221A709EE1564B1B782E
:103F0000574A1B0113440433D3ED007A9FED557AD1
:103F1000F4EEC77AF1EE10FA01DD73231CE04E4B8C
:103F20001B784F4A1B0113440433D3ED007AB3EEE0
:103F3000047AF4EEC77AF1EE10FA01D514230BE0FF
:103F4000454B1B78464A1B0113440433D3ED007ADA
:103F5000FCEEE77A17EE903A434A126813644FF486
:103F6000967002F01FF83C4B1B783D4A1B0113442E
:103F700008331B683D4A1360374B1B78384A1B01D6
:103F800013440C331B78002B0CBF01230023DBB23E
:103F90001A460421364802F069FF2F4B1B78304A3D
:103FA0001B0113440C331B78002B14BF0123002387
:103FB000DBB21A4608212E4802F058FF264B1B7828
:103FC000274A1B0113440C331B78002B0CBF012321
:103FD0000023DBB21A462021254802F047FF1E4B82
:103FE0001B781F4A1B0113440C331B78002B14BF92
:103FF00001230023DBB21A4610211D4802F036FFD0
:10400000154B1B78164A1B0113441A88194B1B6861
:104010005A63114B1B78124A1B01134402331A884E
:10402000144B1B689A63144B1A78134B5B789A42B3
:104030002CD1094B64221A70074B00225A800F4A78
:104040000F210F480AF06AFD4FF6FF7306220D4953
:104050000D4806F08DF933E094060020340100206D
:10406000040000200000E64220040020AC060020EE
:10407000000002408805002060060020A40E010810
:1040800098060020AC0E0108D00500206D4B5B782F
:104090006D4A6C499B000B445B681360694B5B780D
:1040A0000133684A927893FBF2F101FB02F29B1A0A
:1040B000DAB2644B5A70654A0F2165480AF02EFD4A
:1040C000614B63221A70B8E0624B02221A705E4B99
:1040D00063221A70B1E05F4B03221A705A4B6322BD
:1040E0001A70AAE05B4B04221A70574B63221A70B5
:1040F000A3E0584B05221A70534B63221A709CE0C0
:10410000514B1B780B2B04D0534B1B6873221A6442
:1041100003E0514B1B6814221A644FF4967001F0AF
:1041200041FF494B64221A70474B00225A804B4A88
:104130000F2147480AF0F2FC4FF6FF730622484968
:10414000484806F015F978E0424B06221A7074E0F0
:10415000404B07221A703C4B63221A706DE03D4BB6
:104160000A221A70384B63221A7066E0394B082213
:104170001A70354B63221A705FE0364B09221A70B1
:10418000314B63221A7058E02F4B1B78582B04D008
:10419000314B1B6873221A6403E02F4B1B681422F7
:1041A0001A644FF4967001F0FDFE002204212E489F
:1041B00002F05CFE012208212B4802F057FE00228B
:1041C0002021294802F052FE01221021264802F047
:1041D0004DFE1D4B1B78582B13D11B4B5B8807EEF4
:1041E000903AF8EE677A214BC3ED007A204B1B68BA
:1041F0004FF448725A631E4B1B684FF496629A63E1
:1042000013E0114B5B885B4207EE903AF8EEE77AD9
:10421000164BC3ED007A164B1B684FF496625A6337
:10422000134B1B684FF448729A63074B63221A7052
:104230000E48FFF7F5F900E000BF642007F0AEF983
:104240007CE500BF6006002094060020B40E010843
:10425000980600203401002020040020A40E01084C
:10426000AC0E0108D005002000000240AC06002082
:104270008805002080B584B000AF78600023FB8102
:104280000023BB60274B1B78062B04D04FF47A70B9
:1042900007F084F9F6E7244B63221A70234B244A73
:1042A0001A602248FFF754F8224B00221A601D4B77
:1042B0001A78214B1A701B4B0B221A701F4B1A785D
:1042C0001E4B5B789A4212D1174B64221A70164B20
:1042D00000225A801A4A0F211A480AF01FFC4FF692
:1042E000FF7306221849194806F042F8CAE7134B33
:1042F0005B780D4A11499B000B445B6813600F4BC0
:104300005B7801330D4A927893FBF2F101FB02F2E4
:104310009B1ADAB2094B5A700D4A0F2109480AF06C
:10432000FDFBAFE73401002094060020C00600200A
:10433000000020424C0700203501002060060020CC
:10434000A40E010898060020AC0E0108D00500203C
:10435000B40E010880B582B000AF7860854B1B7841
:10436000002B08D0834B1B78012B04D04FF47A70BC
:1043700007F014F9FCE0804B1B78002B7ED07F4BBC
:104380004FF000021A607E4B00221A807D48FEF733
:1043900096F97D48FEF793F97C48FEF790F9754B46
:1043A0001B78002B14BF01230023DBB21A46042123
:1043B000774802F05BFD6F4B1B78002B0CBF01238D
:1043C0000023DBB21A460821714802F04FFD694B09
:1043D0001B78002B14BF01230023DBB21A462021D7
:1043E0006B4802F043FD634B1B78002B0CBF01238D
:1043F0000023DBB21A461021654802F037FD654BF9
:104400001B6800225A63634B1B6800229A63594B56
:104410001A78614B1A70574B0B221A705F4B0022AF
:104420001A605F4B64221A705D4B00225A805D4A0D
:104430000F215D480AF072FB4FF6FF7306225B49BD
:104440005B4805F095FF01F0A1FD0346594A136052
:10445000494B1B78002B00F08A8001F097FD024643
:10446000544B1B68D31A092BF2D90020FEF73AF9F6
:1044700001F08CFD03464F4A1360E9E7484B5B8827
:1044800007EE903AF8EE677A4B4BC3ED007A4A4B51
:10449000D3ED007AB2EE0E7AF4EEC77AF1EE10FAAE
:1044A00002D8464B00221A70444B1B78002B0CD1CB
:1044B000304B1B78002B0CBF01230023DBB2012201
:1044C00019463D48FEF724FC0BE02A4B1B78002BD5
:1044D0000CBF01230023DBB2022219463648FEF747
:1044E00017FC2C4B1B6800225A632A4B1B680022C6
:1044F0009A63204B1A78284B1A701E4B0B221A70A5
:10450000264B00221A602E4B1A782D4B5B789A426C
:1045100012D1234B64221A70214B00225A80214A67
:104520000F2121480AF0FAFA4FF6FF7306221F49BD
:104530001F4805F01DFF11E7214B5B78184A204901
:104540009B000B445B6813601D4B5B7801331C4A76
:10455000927893FBF2F101FB02F29B1ADAB2184B4C
:104560005A70184A0F2110480AF0D8FAF6E600BF30
:10457000F4E600BF34010020A8060020B0060020A9
:10458000B6060020E0060020CC060020F40600203D
:104590000000024088050020350100204C07002063
:1045A00094060020A40E010898060020AC0E010815
:1045B000D0050020BC060020C006002036010020E7
:1045C00060060020B40E010880B582B000AF7860AC
:1045D000124B1B78082B04D04FF47A7006F0DEFFE4
:1045E000F6E7FFF7C9F80D4B1A780D4B1A700B4B15
:1045F0000B221A700B4B64221A700A4B00225A804D
:10460000094A0F2109480AF089FA4FF6FF7306227A
:104610000749084805F0ACFEDAE700BF3401002086
:104620003501002094060020A40E01089806002001
:10463000AC0E0108D005002080B582B000AF7860D4
:10464000314B1B780A2B1CD04FF47A7006F0A6FF72
:10465000F6E701224FF480612C4802F007FC642049
:1046600006F09CFF00224FF48061284802F0FEFB18
:10467000642006F093FF264B5B88013B9AB2244BE3
:104680005A80234B5B88002BE3D11F4B1A78214BB8
:104690001A701D4B0B221A701F4B00221A601F4B01
:1046A0001A781E4B5B789A4212D1194B64221A7009
:1046B000174B00225A801A4A0F211A480AF02EFA84
:1046C0004FF6FF7306221849184805F051FEB7E768
:1046D000124B5B780E4A11499B000B445B681360D8
:1046E0000E4B5B7801330D4A927893FBF2F101FB9C
:1046F00002F29B1ADAB2094B5A700D4A0F2109488F
:104700000AF00CFA9CE700BF3401002000040240CC
:1047100094060020350100204C0700206006002090
:10472000A40E010898060020AC0E0108D005002058
:10473000B40E010880B598B000AF7860634B1B7869
:10474000022B04D04FF47A7006F028FFF6E7604B96
:104750005B88013B07EE903AF8EEE77A5D4BC3EDDC
:10476000007A4FF40C73A7F85E304FF4FA63A7F8A1
:104770005C30594BBB65B7F85E30BB81B7F85C3035
:10478000FB81BB6D3B61534B1B687B6101233B7617
:10479000D7ED047A9FED517AF4EEC77AF1EE10FA74
:1047A00001DD732310E0D7ED047AB3EE047AF4EE62
:1047B000C77AF1EE10FA01D5142305E0D7ED047A9B
:1047C000FCEEE77A17EE903A454A126813644FF40C
:1047D000967001F0E7FB7B693E4A13603B7E002B3D
:1047E0000CBF01230023DBB21A4604213D4802F02E
:1047F0003DFB3B7E002B14BF01230023DBB21A4696
:104800000821384802F032FB3B7E002B0CBF01230D
:104810000023DBB21A462021324802F027FB3B7E00
:10482000002B14BF01230023DBB21A4610212D48B0
:1048300002F01CFBBA892C4B1B685A63FA892A4B7D
:104840001B689A632348FEF7EBFE0A2006F0A6FEDB
:10485000264B00221A601D4B1A78254B1A701B4BF1
:104860000B221A70234B1A78224B5B789A4212D192
:10487000174B64221A70164B00225A801E4A0F21D1
:104880001E480AF04BF94FF6FF7306221C491D48DB
:1048900005F06EFD52E7174B5B780D4A15499B00FA
:1048A0000B445B681360134B5B780133114A9278B9
:1048B00093FBF2F101FB02F29B1ADAB20D4B5A7034
:1048C000114A0F210D480AF029F937E73401002079
:1048D00094060020AC060020000054420000E6428E
:1048E0002004002000000240880500204C07002022
:1048F0003501002060060020A40E01089806002063
:10490000AC0E0108D0050020B40E010880B58AB0B5
:1049100000AF78606F4B1B78032B04D04FF47A7094
:1049200006F03CFEF6E76C4B5B8807EE903AF8EE3B
:10493000677A6A4BC3ED007A684BD3ED007AB0EE2C
:10494000087AF4EEC77AF1EE10FA09DD634BD3ED85
:10495000007AB0EE087A77EEC77A604BC3ED007A42
:1049600040F6C413FB844FF47A73BB845C4B3B6208
:104970005A4BD3ED007A9FED5B7A77EE677AC7EDFD
:10498000077AFB8CBB81BB8CFB813B6A3B61FB697B
:104990007B6101233B76D7ED047A9FED537AF4EEE9
:1049A000C77AF1EE10FA01DD732310E0D7ED047A37
:1049B000B3EE047AF4EEC77AF1EE10FA01D51423BF
:1049C00005E0D7ED047AFCEEE77A17EE903A474A15
:1049D000126813644FF4967001F0E4FA7B693F4A61
:1049E00013603B7E002B0CBF01230023DBB21A4671
:1049F00004213F4802F03AFA3B7E002B14BF01230A
:104A00000023DBB21A460821394802F02FFA3B7E18
:104A1000002B0CBF01230023DBB21A4620213448AF
:104A200002F024FA3B7E002B14BF01230023DBB2EB
:104A30001A4610212E4802F019FABA892D4B1B682C
:104A40005A63FA892B4B1B689A632448FEF7E8FDEA
:104A50000A2006F0A3FD284B00221A601D4B1A788D
:104A6000264B1A701B4B0B221A70254B1A78244BBD
:104A70005B789A4212D1184B64221A70164B0022AE
:104A80005A80204A0F2120480AF048F84FF6FF7359
:104A900006221E491E4805F06BFC3BE7184B5B786D
:104AA0000D4A17499B000B445B681360144B5B78FD
:104AB0000133134A927893FBF2F101FB02F29B1A45
:104AC000DAB20F4B5A70134A0F210F480AF026F83A
:104AD00020E700BF3401002094060020AC0600202F
:104AE00000009643000000000000E6422004002081
:104AF00000000240880500204C07002035010020FE
:104B000060060020A40E010898060020AC0E0108E3
:104B1000D0050020B40E010880B58AB000AF7860DF
:104B20006F4B1B78042B04D04FF47A7006F036FDDF
:104B3000F6E76C4B5B8807EE903AF8EE677A6A4BC3
:104B4000C3ED007A684BD3ED007AB0EE007AF4EE54
:104B5000C77AF1EE10FA09DD634BD3ED007AB0EEBF
:104B6000007A77EEC77A604BC3ED007A40F29E235D
:104B7000FB844FF4FA63BB845C4B3B625A4BD3ED2E
:104B8000007A9FED5B7A77EE677AC7ED077AFB8C48
:104B9000BB81BB8CFB813B6A3B61FB697B61002372
:104BA0003B76D7ED047A9FED537AF4EEC77AF1EEB7
:104BB00010FA01DD732310E0D7ED047AB3EE047A26
:104BC000F4EEC77AF1EE10FA01D5142305E0D7ED23
:104BD000047AFCEEE77A17EE903A474A12681364BB
:104BE0004FF4967001F0DEF97B693F4A13603B7E1B
:104BF000002B0CBF01230023DBB21A4604213F48DF
:104C000002F034F93B7E002B14BF01230023DBB2FA
:104C10001A460821394802F029F93B7E002B0CBFC7
:104C200001230023DBB21A462021344802F01EF98A
:104C30003B7E002B14BF01230023DBB21A46102158
:104C40002E4802F013F9BA892D4B1B685A63FA8972
:104C50002B4B1B689A632448FEF7E2FC0A2006F0FF
:104C60009DFC284B00221A601D4B1A78264B1A70A7
:104C70001B4B0B221A70254B1A78244B5B789A42F7
:104C800012D1184B64221A70164B00225A80204A07
:104C90000F21204809F042FF4FF6FF7306221E49FC
:104CA0001E4805F065FB3BE7184B5B780D4A17493A
:104CB0009B000B445B681360144B5B780133134A11
:104CC000927893FBF2F101FB02F29B1ADAB20F4BDE
:104CD0005A70134A0F210F4809F020FF20E700BF48
:104CE0003401002094060020AC060020000054424D
:104CF000000000000000E642200400200000024006
:104D0000880500204C0700203501002060060020A7
:104D1000A40E010898060020AC0E0108D005002062
:104D2000B40E010880B588B000AF78606B4B1B787B
:104D3000052B04D04FF47A7006F030FCF6E7684B90
:104D40005B8807EE903AF8EE677A664BC3ED007A1F
:104D5000644BD3ED007AB0EE007AF4EEC77AF1EE50
:104D600010FA09DD5F4BD3ED007AB0EE007A77EEF2
:104D7000C77A5C4BC3ED007A40F6FC03FB8340F23C
:104D80001A43BB83584BBB61FB8B3B81BB8B7B8145
:104D9000BB69FB60534B1B683B6100233B75D7ED40
:104DA000037A9FED527AF4EEC77AF1EE10FA01DD44
:104DB000732310E0D7ED037AB3EE047AF4EEC77AEA
:104DC000F1EE10FA01D5142305E0D7ED037AFCEEDD
:104DD000E77A17EE903A464A126813644FF49670D9
:104DE00001F0E0F83B693F4A13603B7D002B0CBFAC
:104DF00001230023DBB21A4604213E4802F036F8B4
:104E00003B7D002B14BF01230023DBB21A4608218F
:104E1000384802F02BF83B7D002B0CBF0123002308
:104E2000DBB21A462021334802F020F83B7D002BEC
:104E300014BF01230023DBB21A4610212D4802F0D3
:104E400015F83A892C4B1B685A637A892A4B1B68E0
:104E50009A632448FEF7E4FB0A2006F09FFB274BE9
:104E600000221A601D4B1A78254B1A701B4B0B221F
:104E70001A70244B1A78234B5B789A4212D1184B44
:104E800064221A70164B00225A801F4A0F211F48B5
:104E900009F044FE4FF6FF7306221D491D4805F038
:104EA00067FA43E7174B5B780D4A16499B000B44A2
:104EB0005B681360134B5B780133124A927893FB63
:104EC000F2F101FB02F29B1ADAB20E4B5A70124A4F
:104ED0000F210E4809F022FE28E700BF3401002010
:104EE00094060020AC060020000096430000E64235
:104EF0002004002000000240880500204C0700200C
:104F00003501002060060020A40E0108980600204C
:104F1000AC0E0108D0050020B40E010880B582B0A7
:104F200000AF7860124B1B78092B04D04FF47A70D5
:104F300006F034FBF6E7FEF7BBFD0D4B1A780D4B80
:104F40001A700B4B0B221A700B4B64221A700A4B0F
:104F500000225A80094A0F21094809F0DFFD4FF667
:104F6000FF7306220749084805F002FADAE700BF96
:104F7000340100203501002094060020A40E010811
:104F800098060020AC0E0108D005002080B500AFC7
:104F900001224FF400510B4801F068FF0A2000F095
:104FA00015F800224FF40051064801F05FFF064B50
:104FB0001B68DA68044B1B6842F00202DA6000BF2B
:104FC00080BD00BF000C0240F804002080B483B014
:104FD00000AF0346FB80094B1B6800225A6200BFEA
:104FE000064B1B685A6AFB889A42F9D300BF00BF80
:104FF0000C37BD465DF8047B704700BFF804002005
:1050000080B582B000AF78607B681B7F012B40F0D9
:105010008380454B1B78002B1AD10021786804F05F
:10502000C3FB0346414A13603F4B01221A707B6861
:105030001B681A6A7B681B6822F00A021A627B6886
:105040001B681A6A7B681B6842F002021A6263E0FE
:10505000354B1B78012B5FD10021786804F0A4FB4D
:105060000346334A13607B681B6800225A62304B48
:105070001A682E4B1B689A4207D92D4B1A682B4B86
:105080001B68D31A2B4A13600FE0284B1A68284B71
:105090001B689A4209D9264B1A68244B1B68D31AFD
:1050A00003F57F43FF33234A1360224B1B681846E6
:1050B000FBF728FA1AA3D3E90023FBF79DFA02466F
:1050C0000B46104619464FF000024FF08043FBF7A5
:1050D000BDFB02460B4610461946FBF765FD03462D
:1050E0009AB2154B1A80104B00221A707B681B680D
:1050F0001A6A7B681B6822F00A021A627B681A68C7
:105100007B681B68126A1A620C4B1B68DA680B4BCF
:105110001B6822F00202DA6000BF0837BD4680BD7E
:10512000006F8104C58FA13F2C07002024070020B9
:10513000280700203007002034070020F804002052
:1051400080B588B000AF78600023FB6007F11003E2
:1051500000221A605A609A60DA600021104803F059
:1051600003FDFFF713FF0F4B1B881A4607F10C03D3
:105170000D49184609F006FD0A4B1A880B4B1B888F
:105180009A4208D80A4B1B68012B04D1084B002215
:105190001A6000F033F8642006F000FAE1E700BF7F
:1051A000F804002034070020E00E01083C01002034
:1051B0003807002080B483B000AF0346FB80054B66
:1051C0001B68FA885A6300BF0C37BD465DF8047B44
:1051D000704700BF8805002080B483B000AF03464D
:1051E000FB80054B1B68FA889A6300BF0C37BD46ED
:1051F0005DF8047B704700BF8805002080B500AFD4
:10520000002220210C4801F031FE002210210A4822
:1052100001F02CFE00220421074801F027FE0022A5
:105220000821054801F022FE0020FFF7C3FF0020FF
:10523000FFF7D2FF00BF80BD000002400000000069
:1052400080B582B000AF7860194800F013FF1421D8
:10525000174801F014F8164801F09CF80346184668
:10526000FBF750F910A3D3E90023FBF7EFFA02464E
:105270000B46104619464FF000020E4BFBF7BCF9E7
:1052800002460B4610461946FBF7AEFC03460A4A97
:105290001360074800F0C0FF47F2305006F07EF977
:1052A00000BFD1E7AFF30080BCE9961D02379640FE
:1052B00084030020000059402007002080B582B000
:1052C00000AF78602D4B1B78072B04D04FF47A7019
:1052D00006F064F9F6E72A4B5B8807EE903AF8EEA1
:1052E000677A284BC3ED007A02212648FDF7A4FE19
:1052F000254B1B6800225A63234B1B6800229A63CC
:105300001E4B1A78214B1A701C4B0B221A70204B23
:1053100000221A601F4B1A781E4B5B789A4212D1FA
:10532000174B64221A70164B00225A801A4A0F211A
:105330001A4809F0F3FB4FF6FF7306221849194883
:1053400005F016F8BEE7134B5B780D4A11499B0038
:105350000B445B6813600F4B5B7801330D4A927806
:1053600093FBF2F101FB02F29B1ADAB2094B5A707D
:105370000D4A0F21094809F0D1FBA3E734010020B1
:1053800094060020C006002088050020350100207A
:105390004C07002060060020A40E0108980600209B
:1053A000AC0E0108D0050020B40E010880B400AF97
:1053B00072B600BF00BFFDE780B582B000AF00232A
:1053C000FB7126E0FB79503BDBB20021184600F070
:1053D0002BF80021002000F027F80021102000F019
:1053E00023F80023BB710DE0BA79FB790D49D20097
:1053F0000A4413441B780121184600F015F8BB79C4
:105400000133BB7197F90630002BEDDAFB790133DC
:10541000FB71FB79072BD5D900BF00BF0837BD460C
:1054200080BD00BF5407002080B584B000AF0346A4
:105430000A46FB711346BB71BB79002B06D00122D3
:105440004FF480711C4801F011FD05E000224FF47B
:105450008071194801F00AFD0023FB731EE0002251
:105460002021154801F002FD97F90730002B05DADD
:1054700001224021104801F0F9FC04E00022402103
:105480000D4801F0F3FC012220210B4801F0EEFC55
:10549000FB795B00FB71FB7B0133FB73FB7B072B11
:1054A000DDD901224FF48071034801F0DFFC00BF19
:1054B0001037BD4680BD00BF0010024080B582B0ED
:1054C00000AF0023FB7114E00023BB710AE0BA793E
:1054D000FB790C49D2000A44134400221A70BB79AC
:1054E0000133BB7197F90630002BF0DAFB790133F9
:1054F000FB71FB79072BE7D9FFF75EFF00BF083789
:10550000BD4680BD5407002080B500AF02F0ECFC22
:10551000414B1B6F404A23F0010313673E4B1B6F47
:105520003D4A23F00403136702F0F2FC00228021BD
:105530003A4801F09BFC642000F034FD01228021F8
:10554000364801F093FC0021AE20FFF76DFF0021EB
:10555000D520FFF769FF00215020FFF765FF0021EC
:10556000A820FFF761FF00213F20FFF75DFF00212A
:10557000D320FFF759FF00210020FFF755FF00213E
:105580004020FFF751FF00218D20FFF74DFF002144
:105590001420FFF749FF00212020FFF745FF0021DD
:1055A0000220FFF741FF0021A120FFF73DFF00216E
:1055B000C020FFF739FF0021DA20FFF735FF002177
:1055C0001220FFF731FF00218120FFF72DFF00217E
:1055D000EF20FFF729FF0021D920FFF725FF002149
:1055E000F120FFF721FF0021DB20FFF71DFF002145
:1055F0003020FFF719FF0021A420FFF715FF00213D
:10560000A620FFF711FF0021AF20FFF70DFFFFF7E6
:1056100055FF00BF80BD00BF0038024000100240AF
:1056200080B582B000AF00237B60164B5B6C154ADF
:1056300043F480435364134B5B6C03F480437B60FF
:105640007B6800233B600F4B1B6C0E4A43F080537A
:1056500013640C4B1B6C03F080533B603B680022CF
:105660000F216FF0010001F09CF9002205210520B7
:1056700001F097F9052001F0B0F900BF0837BD46E9
:1056800080BD00BF0038024080B58CB000AF7860AC
:1056900007F11C0300221A605A609A60DA601A61EE
:1056A0007B681B682E4A934228D10023BB612D4B97
:1056B0005B6C2C4A43F4807353642A4B5B6C03F499
:1056C0008073BB61BB6900237B61264B1B6B254A42
:1056D00043F004031363234B1B6B03F004037B6150
:1056E0007B690223FB6103233B6200237B6207F19A
:1056F0001C0319461C4801F01DFA2CE07B681B684E
:105700001A4A934227D100233B61164B5B6C154A22
:1057100043F400735364134B5B6C03F400733B61FD
:105720003B690023FB600F4B1B6B0E4A43F00403E5
:1057300013630C4B1B6B03F00403FB60FB68042337
:10574000FB6103233B6200237B6207F11C031946C4
:10575000054801F0EFF900BF3037BD4680BD00BFFE
:1057600000200140003802400008024000210140B2
:1057700080B58AB000AF786007F1140300221A6088
:105780005A609A60DA601A617B681B68194A934212
:105790002CD100233B61184B1B6B174A43F00203CB
:1057A0001363154B1B6B03F002033B613B694FF422
:1057B00040737B611223BB610023FB6103233B62C7
:1057C00004237B6207F1140319460C4801F0B2F977
:1057D0000023FB60084B1B6C074A43F4001313645F
:1057E000054B1B6C03F40013FB60FB6800BF2837FC
:1057F000BD4680BD00540040003802400004024015
:1058000080B58CB000AF786007F11C0300221A60ED
:105810005A609A60DA601A617B681B68404A93425A
:1058200035D10023BB613F4B5B6C3E4A43F0010323
:1058300053643C4B5B6C03F00103BB61BB69002309
:105840007B61384B1B6B374A43F010031363354BB6
:105850001B6B03F010037B617B694FF40073FB61EA
:1058600002233B6200237B620023BB620123FB62B5
:1058700007F11C0319462C4801F05CF900220521B0
:105880001B2001F08EF81B2001F0A7F844E07B6894
:105890001B68264A93420ED100233B61214B1B6CAF
:1058A000204A43F0100313641E4B1B6C03F01003DB
:1058B0003B613B6930E07B681B681D4A93422BD1FA
:1058C0000023FB60174B5B6C164A43F002035364E2
:1058D000144B5B6C03F00203FB60FB680023BB60AE
:1058E000104B1B6B0F4A43F0040313630D4B1B6BF0
:1058F00003F00403BB60BB68C023FB6102233B626F
:1059000000237B620023BB620323FB6207F11C03BD
:105910001946084801F00EF900BF3037BD4680BD7A
:10592000000001400038024000100240001000401A
:10593000000401400008024080B58CB000AF7860E0
:1059400007F11C0300221A605A609A60DA601A613B
:105950007B681B68B3F1804F4BD10023BB613F4B89
:105960001B6C3E4A43F0010313643C4B1B6C03F079
:105970000103BB61BB6900237B61384B1B6B374A5A
:1059800043F001031363354B1B6B03F001037B6191
:105990007B6900233B61314B1B6B304A43F00203B0
:1059A00013632E4B1B6B03F002033B613B694FF407
:1059B0000043FB6102233B6200237B620023BB6246
:1059C0000123FB6207F11C031946254801F0B2F8D8
:1059D0000823FB6102233B6200237B620023BB623E
:1059E0000123FB6207F11C0319461E4801F0A2F8CF
:1059F00030E07B681B681C4A93422BD10023FB607C
:105A0000164B1B6C154A43F002031364134B1B6CBB
:105A100003F00203FB60FB680023BB600F4B1B6BB2
:105A20000E4A43F0010313630C4B1B6B03F001039D
:105A3000BB60BB68C023FB6102233B6200237B6227
:105A40000023BB620223FB6207F11C0319460448D2
:105A500001F070F800BF3037BD4680BD003802400D
:105A600000000240000402400004004080B58AB0FB
:105A700000AF786007F1140300221A605A609A6040
:105A8000DA601A617B681B681D4A934234D1002397
:105A90003B611C4B1B6C1B4A43F004031364194B02
:105AA0001B6C03F004033B613B690023FB60154B57
:105AB0001B6B144A43F008031363124B1B6B03F078
:105AC0000803FB60FB684FF480537B610223BB61DA
:105AD0000023FB6100233B6202237B6207F1140376
